:100000000C94C7000C94E6000C94E6000C94E600F7
:100010000C94E6000C94E6000C94E6000C94E600C8
:100020000C94E6000C94E6000C94E6000C94E600B8
:100030000C94E6000C94E6000C94E6000C94E600A8
:100040000C94E6000C94E6000C94E6000C94E60098
:100050000C94E6000C94E6000C94E6000C94E60088
:100060000C94E6000C94E6000C94E6000C94E60078
:100070000C94E6000C94E6000C94E6000C94E60068
:100080000C94E6000C94E6000C94E6006E616E00A1
:10009000696E660000407A10F35A00A0724E18098B
:1000A0000010A5D4E80000E87648170000E40B54DF
:1000B000020000CA9A3B000000E1F50500008096AE
:1000C0009800000040420F000000A08601000000E0
:1000D000102700000000E80300000000640000009A
:1000E00000000A00000000000100000000002C7663
:1000F000D888DC674F0823DFC1DFAE59E1B1B7967E
:10010000E5E3E453C63AE651997696E8E6C28426DA
:10011000EB898C9B62ED407C6FFCEFBC9C9F40F2B6
:10012000BAA56FA5F490055A2AF75C936B6CF96732
:100130006DC11BFCE0E40D47FEF520E6B500D0EDF7
:10014000902E0300943577050080841E080000205F
:100150004E0A000000C80C333333330F986E1283FD
:100160001141EF8D2114893BE65516CFFEE6DB18D1
:10017000D1844B381BF77C1D901DA4BBE424203296
:1001800084725E228100C9F124ECA1E53D2711248F
:100190001FBECFEFD0E1DEBFCDBF12E0A0E0B1E0E7
:1001A000E2E5F8E100E00BBF02C007900D92A03439
:1001B000B107D9F722E0A0E4B2E001C01D92AE344D
:1001C000B207E1F70E9446080C94270C0C9400003B
:1001D0002F923F924F925F926F927F928F929F9257
:1001E000AF92BF92CF92DF92EF92FF920F931F9345
:1001F000CF93DF93CDB7DEB763970FB6F894DEBF2A
:100200000FBECDBF7C011B016A01FC011782168263
:10021000838181FF66C3BE016F5F7F4F4B01F70192
:100220009381F10193FD859193FF81911F018823B3
:1002300009F453C3853239F493FD859193FF81917D
:100240001F01853239F4B70190E00E94580B560126
:100250006501E5CF10E0512C20E02032A0F48B3274
:1002600069F030F4803259F0833269F420612CC097
:100270008D3239F0803339F4216026C02260246049
:1002800023C0286021C027FD27C030ED380F3A3049
:1002900078F426FF06C0FAE01F9F300D1124132FBB
:1002A00013C06AE0569E300D1124532E20620CC0FC
:1002B0008E3221F426FD11C3206406C08C3611F461
:1002C000206802C0883641F4F10193FD859193FFC7
:1002D00081911F018111C1CF9BEB980F933018F4CE
:1002E0002061805E06C09BE9980F933008F0AAC198
:1002F0002F7E26FF16E02F73722E853621F4F22F03
:10030000F0647F2E08C0863621F4622F6068762E56
:1003100002C01111115077FE07C01C3348F4442469
:100320004394410E27E00BC0183030F4212F06C053
:1003300027E04CE3442E03C027E017E0412C560190
:1003400074E0A70EB11CF6016081718182819381F6
:10035000042DA4010E946A0A6C01098100FF02C0F9
:1003600003FF06C071FC07C072FC08C0612C08C006
:100370003DE2632E05C02BE2622E02C090E2692EA0
:10038000802F8C7099F1662011F084E001C083E029
:10039000851510F0512C0BC0581A73FC08C0B7011A
:1003A00080E290E00E94580B5A94C9F7F3CF662080
:1003B00029F0B701862D90E00E94580B03FD03C081
:1003C00000E910E002C00CE810E0F72DF0717F2E7C
:1003D000F8018491882309F476C271108052B70124
:1003E00090E00E94580B0F5F1F4FF2CF77FE0FC0B7
:1003F0004C0C04FF04C08A81813309F44A9414141C
:1004000074F5F8E0F41578F588E0482E2CC076FCF9
:100410002AC0812F90E08C159D059CF06CEFC616CC
:100420006FEFD60674F0772D7068772E0AC0E2E081
:10043000F0E0EC0FFD1FE10FF11D8081803319F416
:1004400011501111F4CF77FE0EC044244394410E95
:10045000812F90E0C816D9062CF41C1904C044243E
:10046000439401C010E077FE07C01C141D043CF447
:1004700096012F5F3F4F05C025E030E002C021E02C
:1004800030E0662011F02F5F3F4F112331F0412FF4
:1004900050E04F5F5F4F240F351F452D50E024176C
:1004A000350714F4521A01C0512C872D897049F474
:1004B000552039F0B70180E290E00E94580B5A9421
:1004C000F7CF662029F0B701862D90E00E94580BE7
:1004D00073FC09C0552039F0B70180E390E00E9419
:1004E000580B5A94F7CF77FE5FC09C2D8D2DD7FE09
:1004F00002C090E080E0692E782E40E050E0C60116
:10050000841991099D878C87960126193709280D32
:10051000391D812F90E0EE27FF27E81BF90BFF879D
:10052000EE87FFEF6F167F0669F4B7018EE290E069
:100530002B8B3A8B488B598B0E94580B59894889D1
:100540003A892B89C614D70454F06C857D856615CD
:1005500077052CF4F901E40FF51F818101C080E3D8
:1005600071E0671A71084F5F5F4FEE85FF856E1669
:100570007F066CF0B70190E02B8B3A8B488B598B40
:100580000E94580B2B893A8948895989CACF6C1423
:100590007D0439F49A81963318F4953311F404FFED
:1005A00081E3B70190E04BC08A81813309F00F7E6F
:1005B000B70190E00E94580B111105C074FE18C0DD
:1005C00085E490E017C0B7018EE290E00E94580BDE
:1005D00082E066246394680EF401E80FF11D8081C7
:1005E000B70190E00E94580B115041F3862DF1CFD6
:1005F00085E690E0B7010E94580BD7FC05C0C114F6
:10060000D10439F404FF05C0D194C194D1088DE21E
:1006100001C08BE2B70190E00E94580B80E36AE0D2
:10062000C616D1042CF08F5FFAE0CF1AD108F7CFAD
:10063000B70190E00E94580BB701C601C0960E9416
:10064000580B41C1833631F0833779F0833509F097
:1006500058C021C0560172E0A70EB11CF60180817E
:10066000898301E010E0640114C05601F2E0AF0E8E
:10067000B11CF601C080D18026FF03C0612F70E05D
:1006800002C06FEF7FEFC6012B8B0E944D0B8C01D8
:100690002B892F7715C05601F2E0AF0EB11CF60181
:1006A000C080D18026FF03C0612F70E002C06FEFD1
:1006B0007FEFC6012B8B0E94420B8C012B89206897
:1006C000722E23FD1AC0852D90E008171907A8F493
:1006D000B70180E290E00E94580B5A94F4CFF601E3
:1006E00077FC859177FE81916F01B70190E00E94C0
:1006F000580B51105A94015011090115110579F741
:10070000E2C0843611F0893651F5560127FF09C041
:10071000F4E0AF0EB11CF60160817181828193819A
:100720000AC0F2E0AF0EB11CF6016081718188272A
:1007300077FD8095982F022F0F7697FF08C0909530
:100740008095709561957F4F8F4F9F4F00682AE08D
:1007500030E0A4010E94C90BC82EC8183EC0022F69
:10076000853721F40F7E2AE030E01DC0097F8F36E7
:1007700091F018F4883559F0B0C0803719F08837F7
:1007800011F0ABC0006104FF09C0046007C024FF82
:1007900008C0066006C028E030E005C020E130E077
:1007A00002C020E132E0560107FF09C0F4E0AF0EBD
:1007B000B11CF601608171818281938108C0F2E0F1
:1007C000AF0EB11CF6016081718180E090E0A40160
:1007D0000E94C90BC82EC8180F7706FF0BC0202F28
:1007E0002E7FC11650F404FF0AC002FD08C0202F5E
:1007F0002E7E05C0DC2C202F03C0DC2C01C0D12EA6
:1008000024FF0DC0FE01EC0DF11D8081803311F439
:10081000297E09C022FF06C0D394D39404C0822F3E
:10082000867809F0D39423FD13C020FF06C01C2D49
:10083000D51418F4150D1D19D52CD51468F4B7016D
:1008400080E290E02B8B0E94580BD3942B89F5CF3C
:10085000D51410F45D1801C0512C24FF12C0B7014B
:1008600080E390E02B8B0E94580B2B8922FF17C04E
:1008700021FF03C088E590E002C088E790E0B7015F
:100880000CC0822F867859F021FD02C080E201C0A1
:100890008BE227FD8DE2B70190E00E94580BC11654
:1008A00038F4B70180E390E00E94580B1150F7CF65
:1008B000CA94F401EC0DF11D8081B70190E00E9413
:1008C000580BC110F5CF552009F4C2CCB70180E216
:1008D00090E00E94580B5A94F6CFF70186819781D9
:1008E00002C08FEF9FEF63960FB6F894DEBF0FBE86
:1008F000CDBFDF91CF911F910F91FF90EF90DF90CF
:10090000CF90BF90AF909F908F907F906F905F90AF
:100910004F903F902F900895FB01218130E0322FBE
:1009200022279081292B803171F4A9014E7F63E049
:10093000440F551F6A95E1F796812CE030E0291BA2
:100940003109240F351F37FF05C031952195310935
:10095000A1E001C0A0E0883211F0823269F4848104
:100960008076803231F0803431F0811105C0287FEB
:1009700003C02C7F01C02E7FC90144E09695879566
:100980004A95E1F76AE0689FA001699F500D112424
:100990002F70332760E872E0269FC001279F900DDB
:1009A000369F900D1124A11101C09E5F9C01232F41
:1009B000332726952695240F351FAA2319F0319544
:1009C00021953109C9018A5D9D4F8930974018F002
:1009D00080ED97E00895C9010895FF920F931F934A
:1009E000CF93DF93062FF72EBC018EEB0E941308E6
:1009F000C02FDF2D19E00E94C90789931150D9F744
:100A000069E070E0802F9F2D0E940B07882311F072
:100A100083E001C080E0DF91CF911F910F91FF90A3
:100A200008950F931F93CF93DF93EC018B01B801CF
:100A300088810E94CC07888381508D3F48F4F8015B
:100A40008081883239F0803129F0823281F702C00A
:100A500081E001C080E0DF91CF911F910F91089557
:100A6000CF93DF93EC010E945107BE0184EB0E94FB
:100A7000130881E00E946E07C82F0E94510781E091
:100A8000C11101C080E0DF91CF9108951F93CF93F2
:100A9000DF9300D0CDB7DEB7182F69837A830E9429
:100AA00051070E94240769817A81882351F084E4E8
:100AB000113019F00E94160802C00E94130880E04D
:100AC00001C082E00F900F90DF91CF911F910895A8
:100AD00081E00E946E0791E0811190E0892F0895D6
:100AE000EF92FF920F931F93CF93DF93CDB7DEB7B3
:100AF00027970FB6F894DEBF0FBECDBF8B014730EE
:100B000008F460C09C0129513C4F273F3A4208F04D
:100B100059C097FF06C0919581959109EE24E39401
:100B200001C0E12CF12C6AE070E00E94420921E052
:100B30002F0DE1E0F0E0EC0FFD1FEF0DF11DF7FCD4
:100B4000FA95805D8083862F972F1816190614F466
:100B5000F22EE9CF822F992787FD9095E1E0F0E012
:100B6000EC0FFD1FE80FF91FEE2029F03DE2308366
:100B700030E06EE21DC03BE2FACF41E0430F5FEF91
:100B8000520FD801A80FB91FE1E0F0E0EC0FFD1FF4
:100B9000E20FF11D27FDFA9520812C93511106C01B
:100BA000F801E40FF11D608342E0430F342F252F3D
:100BB000832F90E027FFE1CFF801E80FF91F1082A3
:100BC00080E001C081E027960FB6F894DEBF0FBE2B
:100BD000CDBFDF91CF911F910F91FF90EF900895BE
:100BE000DF92EF92FF920F931F93CF93DF93CDB7D6
:100BF000DEB729970FB6F894DEBF0FBECDBF8C01CC
:100C00007B010E945107BE016F5F7F4FC8010E94A8
:100C1000ED04D82E81110AC0BE016F5F7F4FF8012D
:100C200080810E948C04F701918380838D2D299609
:100C30000FB6F894DEBF0FBECDBFDF91CF911F91ED
:100C40000F91FF90EF90DF900895EF92FF920F9336
:100C50001F93CF93DF93CDB7DEB729970FB6F894E4
:100C6000DEBF0FBECDBFE82E8B01BE016F5F7F4F91
:100C700080E090E00E94ED04F82E811109C0BE01D1
:100C80006F5F7F4F8E2D0E948C04F80191838083CB
:100C90008F2D29960FB6F894DEBF0FBECDBFDF9122
:100CA000CF911F910F91FF90EF900895DF92EF92F7
:100CB000FF920F931F93CF93DF93CDB7DEB72997A2
:100CC0000FB6F894DEBF0FBECDBF7C018B010E9432
:100CD0005107BE016F5F7F4FC7010E94ED04D82E00
:100CE000811159C0F70180814A8150E0542F442777
:100CF0009981492B803171F49A012E7FF3E0220F04
:100D0000331FFA95E1F79F814CE050E0491B5109F0
:100D1000420F531F57FF06C0519541955109FF24BB
:100D2000F39401C0F12C883211F0823269F48D8184
:100D30008076803231F0803431F0811105C0487FF7
:100D400003C04C7F01C04E7F9A01E4E036952795A1
:100D5000EA95E1F7A0E1B7E20E9456094F705527E6
:100D6000E1E7F2E04E9F90014F9F300D5E9F300D06
:100D70001124620F731F811D911DFF2039F0909582
:100D80008095709561957F4F8F4F9F4FF8016083DD
:100D90007183828393838D2D29960FB6F894DEBFDD
:100DA0000FBECDBFDF91CF911F910F91FF90EF90BC
:100DB000DF900895FF920F931F93CF93DF93EC0181
:100DC000162FF42E022F0E9451070E942407882319
:100DD00099F0BE018EE40E941308812F0E947207D1
:100DE0008F2D0E9472079881983211F0923231F45F
:100DF000802F0E94720702C081E001C080E0DF9175
:100E0000CF911F910F91FF900895262F2F6140E001
:100E100060E00C94DA06FC01680F791F80E048E17D
:100E2000E617F70781F0219198E0322F3827532FEA
:100E3000517030FD84278695513009F480682695DD
:100E4000915099F7EDCF089586B380780895C79AA9
:100E5000BF9A0895CF93DF93DFB7F894BF9A95E0D8
:100E60009A95F1F700008111BF9892E29A95F1F7F7
:100E700000C0C6B3CC0FCC0BC82382E78A95F1F72C
:100E800000C0BF9861110E942707DFBF9AE19A95C1
:100E9000F1F700C08C2FDF91CF910895BF98C798CC
:100EA0000895C798BF9A8FEB93E00197F1F700C0C0
:100EB00000009FB7F894BF98EAEAEA95F1F700C0FE
:100EC00086B39FBFEFE3F3E03197F1F700C0000076
:100ED000B79B02C08078089581E0089560E081703A
:100EE0000C942A07CF93DF93C82FD8E08C2F817002
:100EF0000E946E07C6958111C068D150B9F78C2F3A
:100F0000DF91CF910895CF93DF93C82FD8E08C2F36
:100F10008170D13011F060E001C061E00E942A07C9
:100F2000C6958111C068D15091F78C2FDF91CF9178
:100F30000895EF92FF920F931F93CF93DF93F82EB4
:100F4000EB01E42E0E945107209769F085E50E948D
:100F500072078E01085F1F4F89910E947207C017A8
:100F6000D107D1F703C08CEC0E9472078F2DEE20C1
:100F700041F0DF91CF911F910F91FF90EF900C9472
:100F80008307DF91CF911F910F91FF90EF900C9409
:100F900072078FEF0C947207DF92EF92FF920F931C
:100FA0001F93CF93DF93E82EEB010E94510781112D
:100FB0002FC080EF0E947207F12C10E488EFD82E2A
:100FC000D10E81E00E946E07082F81E00E946E071B
:100FD000882319F0002361F01DC0011109C01E15FE
:100FE00028F0888180FF04C0E11611F0F12E01E0A5
:100FF000802F0E946E0798819695011190689883C2
:1010000011501D11DECF21961111D8CF8F2D03C0A5
:101010008FEF01C08EEFDF91CF911F910F91FF9065
:10102000EF90DF90089540E00C94990741E00C9414
:1010300099070E943E0980E090E00895FC018781B5
:101040001F928F9386811F928F9385811F928F931A
:1010500084811F928F9383811F928F9382811F922D
:101060008F9381811F928F9380811F928F938EE047
:1010700091E09F938F930E948A0B8DB79EB7429603
:101080000FB6F8949EBF0FBE8DBF0895CF93DF9328
:10109000CDB7DEB72A970FB6F894DEBF0FBECDBF2F
:1010A0000E94300980E091E090934B0280934A02C5
:1010B00087E391E00E949C0B83E591E00E949C0BEA
:1010C0008FE791E00E949C0B0E9451078FEF898768
:1010D000712C8E01075F1F4F8985882319F17110CC
:1010E0001FC0BE016F5F7F4FC8010E941105898537
:1010F0008F3F19F488E991E004C08E3F29F488EA13
:1011000091E00E949C0B0EC0FE013196A0E4B2E07B
:1011100081918D93E017F107D9F777247394DCCF91
:10112000772473941F927F9282EB91E09F938F9329
:101130000E948A0B0F900F900F900F90672C93EDE9
:10114000E92E91E0F92E0BEE11E028E0C22E22E00C
:10115000D22E30EEA32E31E0B32E662009F475C0F6
:10116000862C912C1F926F92FF92EF920E948A0B15
:1011700083E0880C991C8A95E1F7C401885C9D4F37
:101180004C010E941E0860E6C4010E940507B401DC
:1011900081E00E9446050F900F900F900F908111F3
:1011A0004EC09FE72FE482E1915020408040E1F75C
:1011B00000C00000BE01675F7F4FC4010E94F005C0
:1011C00081110DC08A858F9389858F93BF92AF92CD
:1011D0000E948A0B0F900F900F900F9006C01F93E4
:1011E0000F930E948A0B0F900F90BE016F5F7F4F8D
:1011F000C4010E94560681111BC069817A818B81CE
:101200009C810E947B0927E137EB41ED58E30E9466
:10121000B6099F938F937F936F93DF92CF920E9433
:101220008A0B0F900F900F900F900F900F900BC0A4
:101230001F930F930E948A0B0F900F9004C08CE1B4
:1012400092E00E949C0B6A9488CF9FEF24E38CE08D
:10125000915020408040E1F700C00000672C7DCF16
:101260001092900083E389B988E18AB986E080937F
:10127000950008955F9BFECF8CB108955D9BFECFD6
:101280008CB9089597FB072E16F4009407D077FDCC
:1012900009D00E94650907FC05D03EF49095819520
:1012A0009F4F0895709561957F4F0895A29FB0015B
:1012B000B39FC001A39F700D811D1124911DB29F8A
:1012C000700D811D1124911D0895AA1BBB1B51E1B6
:1012D00007C0AA1FBB1FA617B70710F0A61BB70BA6
:1012E000881F991F5A95A9F780959095BC01CD014B
:1012F0000895E89409C097FB3EF490958095709509
:1013000061957F4F8F4F9F4F9923A9F0F92F96E951
:10131000BB279395F695879577956795B795F111C6
:10132000F8CFFAF4BB0F11F460FF1BC06F5F7F4F63
:101330008F4F9F4F16C0882311F096E911C0772375
:1013400021F09EE8872F762F05C0662371F096E87E
:10135000862F70E060E02AF09A95660F771F881F4D
:10136000DAF7880F9695879597F908950BD078C08E
:1013700069D028F06ED018F0952309F05AC05FC0EC
:101380001124A2C07ED0A0F3959FD1F3950F50E019
:10139000551F629FF001729FBB27F00DB11D639F27
:1013A000AA27F00DB11DAA1F649F6627B00DA11DCD
:1013B000661F829F2227B00DA11D621F739FB00D73
:1013C000A11D621F839FA00D611D221F749F3327E3
:1013D000A00D611D231F849F600D211D822F762F7C
:1013E0006A2F11249F5750408AF0E1F088234AF079
:1013F000EE0FFF1FBB1F661F771F881F91505040C5
:10140000A9F79E3F510570F014C05EC05F3FECF33A
:10141000983EDCF3869577956795B795F795E795B0
:101420009F5FC1F7FE2B880F911D9695879597F9C1
:10143000089597F99F6780E870E060E008959FEF56
:1014400080EC089500240A9416161706180609065B
:10145000089500240A94121613061406050608952A
:10146000092E0394000C11F4882352F0BB0F40F4B2
:10147000BF2B11F460FF04C06F5F7F4F8F4F9F4FF2
:10148000089557FD9058440F551F59F05F3F71F074
:101490004795880F97FB991F61F09F3F79F08795DB
:1014A0000895121613061406551FF2CF4695F1DF64
:1014B00008C0161617061806991FF1CF86957105F4
:1014C000610508940895E894BB2766277727CB0128
:1014D00097F90895283008F027E03327DA01990FAB
:1014E000311D87FD916000966105710539F4326008
:1014F0002E5F3D9330E32A95E1F708959F3F30F04A
:1015000080387105610509F03C5F3C5F3D93913087
:1015100008F08068911DDF93CF931F930F93FF9284
:10152000EF92192F987F9695E92F96959695E90F4A
:10153000FF27E251FF4F99273327EE24FF24A7010D
:10154000E70105900894079428F4360FE71EF81E6B
:10155000491F511D660F771F881F991F0694A1F719
:101560000590079428F4E70EF81E491F561FC11D69
:10157000770F881F991F661F0694A1F7059007949F
:1015800028F4F80E491F561FC71FD11D880F991F39
:10159000661F771F0694A1F70590079420F4490F62
:1015A000561FC71FD81F990F661F771F881F0694E5
:1015B000A9F784911095177041F0D695C795579566
:1015C0004795F794E7941A95C1F7E4E9F0E0689439
:1015D0001590159135916591959105907FE27395E0
:1015E000E118F10A430B560BC90BD009C0F7E10C07
:1015F000F11E431F561FC91FD01D7EF4703311F416
:101600008A95E6CFE894015030F0080F0AF40027DD
:10161000021708F4202F2395022F7A3328F079E35C
:101620007D932A95E9F710C07D932A9589F6069453
:1016300097956795379517951794E118F10A430B1D
:10164000560BC90BD00998F023957E9173957A3388
:1016500008F070E37C932013B8F77E9170617D935E
:1016600030F0839571E37D9370E32A95E1F71124BF
:10167000EF90FF900F911F91CF91DF91992787FDF8
:1016800090950895FC010590615070400110D8F7C5
:10169000809590958E0F9F1F0895FC0161507040BA
:1016A00001900110D8F7809590958E0F9F1F089597
:1016B0000F931F93CF93DF93182F092FEB018B818B
:1016C00081FD03C08FEF9FEF20C082FF10C04E81CD
:1016D0005F812C813D81421753077CF4E881F981B9
:1016E0009F012F5F3F4F39832883108306C0E88511
:1016F000F985812F0995892B29F72E813F812F5F4D
:101700003F4F3F832E83812F902FDF91CF911F91E9
:101710000F910895CF93DF93CDB7DEB7FE013596D5
:1017200061917191AF0180914A0290914B020E94A8
:10173000E800DF91CF9108950F931F93CF93DF932C
:10174000E0914A02F0914B02238121FF1BC0EC0182
:1017500000E010E0899160914A0270914B02DB0138
:101760001896ED91FC911997882331F00995892BF2
:1017700089F30FEF1FEFEECF8AE00995892B11F463
:10178000C80102C08FEF9FEFDF91CF911F910F91A2
:101790000895FA01AA27283051F1203181F1E89407
:1017A0006F936E7F6E5F7F4F8F4F9F4FAF4FB1E054
:1017B0003ED0B4E03CD0670F781F891F9A1FA11D4F
:1017C000680F791F8A1F911DA11D6A0F711D811D50
:1017D000911DA11D20D009F468943F912AE0269F15
:1017E00011243019305D3193DEF6CF010895462F74
:1017F0004770405D4193B3E00FD0C9F7F6CF462F55
:101800004F70405D4A3318F0495D31FD40524193BD
:1018100002D0A9F7EACFB4E0A6959795879577957A
:101820006795BA95C9F700976105710508959B0101
:10183000AC010A2E06945795479537952795BA958A
:10184000C9F7620F731F841F951FA01D0895F89498
:02185000FFCFC8
:101852000000000200000000190800000000252E10
:10186200325820252E325820252E325820252E324D
:101872005820252E325820252E325820252E325817
:1018820020252E32580A000A44533138583230206B
:10189200312D576972652D52656164657220446508
:1018A2006D6F002D2D2D2D2D2D2D2D2D2D2D2D2D11
:1018B2002D2D2D2D2D2D2D2D2D2D2D2D2D2D2D2D56
:1018C2002D2D2D2D2D2D2D2D2D2D2D2D2D2D00534D
:1018D20063616E6E696E672042757320666F722057
:1018E20044533138583230004E6F2053656E736F57
:1018F2007220666F756E6400427573204572726F56
:101902007200256920445331385832302053656EB5
:10191200736F7228732920617661696C61626C65EC
:101922003A0A0053656E736F7223202569200A00FC
:1019320074656D70203D2025690A0043524320459D
:1019420072726F7220286C6F737420636F6E6E6593
:101952006374696F6E3F290074656D705F6D6178A5
:10196200524573203D20252E34660A00537461725D
:1019720074206D6561732E206661696C6564202830
:1019820073686F727420636972637569743F2900AA
:00000001FF
