:100000000C941F010C943E010C943E010C943E0193
:100010000C943E010C943E010C943E010C943E0164
:100020000C943E010C943E010C943E010C943E0154
:100030000C94EE090C943E010C943E010C943E018C
:100040000C943E010C943E010C943E010C943E0134
:100050000C943E010C943E010C943E010C943E0124
:100060000C943E010C943E010C943E010C943E0114
:100070000C943E010C943E010C943E010C943E0104
:100080000C943E010C943E010C943E01084AD73B6F
:100090003BCE016E84BCBFFDC12F3D6C74319ABD57
:1000A00056833DDA3D00C77F11BED9E4BB4C3E917B
:1000B0006BAAAABE000000803F07634236B79BD8F8
:1000C000A71A39685618AEBAAB558C1D3CB7CC5739
:1000D00063BD6DEDFD753EF6177231BF0000008007
:1000E0003F08000000BE922449123EABAAAA2ABED5
:1000F000CDCCCC4C3E00000080BEABAAAAAA3E00EC
:10010000000000BF000000803F0000000000084128
:1001100078D3BB4387D1133D190E3CC3BD4282AD9A
:100120002B3E68EC8276BED98FE1A93E4C80EFFF72
:10013000BE01C4FF7F3F0000000000006E616E0042
:10014000696E660000407A10F35A00A0724E1809DA
:100150000010A5D4E80000E87648170000E40B542E
:10016000020000CA9A3B000000E1F50500008096FD
:100170009800000040420F000000A086010000002F
:10018000102700000000E8030000000064000000E9
:1001900000000A00000000000100000000002C76B2
:1001A000D888DC674F0823DFC1DFAE59E1B1B796CD
:1001B000E5E3E453C63AE651997696E8E6C284262A
:1001C000EB898C9B62ED407C6FFCEFBC9C9F40F206
:1001D000BAA56FA5F490055A2AF75C936B6CF96782
:1001E0006DC11BFCE0E40D47FEF520E6B500D0ED47
:1001F000902E0300943577050080841E08000020AF
:100200004E0A000000C80C333333330F986E12834C
:100210001141EF8D2114893BE65516CFFEE6DB1820
:10022000D1844B381BF77C1D901DA4BBE4242032E5
:1002300084725E228100C9F124ECA1E53D271124DE
:100240001FBECFEFD0E1DEBFCDBF11E0A0E0B1E037
:10025000E2E1F6E300E00BBF02C007900D92AE337F
:10026000B107D9F721E0AEE3B1E001C01D92A43798
:10027000B207E1F70E9441110C94071B0C94000097
:100280002F923F924F925F926F927F928F929F92A6
:10029000AF92BF92CF92DF92EF92FF920F931F9394
:1002A000CF93DF93CDB7DEB763970FB6F894DEBF79
:1002B0000FBECDBF7C011B016A01FC0117821682B3
:1002C000838181FF66C3BE016F5F7F4F4B01F701E2
:1002D0009381F10193FD859193FF81911F01882303
:1002E00009F453C3853239F493FD859193FF8191CD
:1002F0001F01853239F4B70190E00E94771A560148
:100300006501E5CF10E0512C20E02032A0F48B32C3
:1003100069F030F4803259F0833269F420612CC0E6
:100320008D3239F0803339F4216026C02260246098
:1003300023C0286021C027FD27C030ED380F3A3098
:1003400078F426FF06C0FAE01F9F300D1124132F0A
:1003500013C06AE0569E300D1124532E20620CC04B
:100360008E3221F426FD11C3206406C08C3611F4B0
:10037000206802C0883641F4F10193FD859193FF16
:1003800081911F018111C1CF9BEB980F933018F41D
:100390002061805E06C09BE9980F933008F0AAC1E7
:1003A0002F7E26FF16E02F73722E853621F4F22F52
:1003B000F0647F2E08C0863621F4622F6068762EA6
:1003C00002C01111115077FE07C01C3348F44424B9
:1003D0004394410E27E00BC0183030F4212F06C0A3
:1003E00027E04CE3442E03C027E017E0412C5601E0
:1003F00074E0A70EB11CF601608171818281938146
:10040000042DA4010E9489196C01098100FF02C01A
:1004100003FF06C071FC07C072FC08C0612C08C055
:100420003DE2632E05C02BE2622E02C090E2692EEF
:10043000802F8C7099F1662011F084E001C083E078
:10044000851510F0512C0BC0581A73FC08C0B70169
:1004500080E290E00E94771A5A94C9F7F3CF6620A1
:1004600029F0B701862D90E00E94771A03FD03C0A2
:1004700000E411E002C00CE311E0F72DF0717F2ED3
:10048000F8018491882309F476C271108052B70173
:1004900090E00E94771A0F5F1F4FF2CF77FE0FC0D8
:1004A0004C0C04FF04C08A81813309F44A9414146B
:1004B00074F5F8E0F41578F588E0482E2CC076FC49
:1004C0002AC0812F90E08C159D059CF06CEFC6161C
:1004D0006FEFD60674F0772D7068772E0AC0E2E0D1
:1004E000F0E0EC0FFD1FE10FF11D8081803319F466
:1004F00011501111F4CF77FE0EC044244394410EE5
:10050000812F90E0C816D9062CF41C1904C044248D
:10051000439401C010E077FE07C01C141D043CF496
:1005200096012F5F3F4F05C025E030E002C021E07B
:1005300030E0662011F02F5F3F4F112331F0412F43
:1005400050E04F5F5F4F240F351F452D50E02417BB
:10055000350714F4521A01C0512C872D897049F4C3
:10056000552039F0B70180E290E00E94771A5A9442
:10057000F7CF662029F0B701862D90E00E94771A08
:1005800073FC09C0552039F0B70180E390E00E9468
:10059000771A5A94F7CF77FE5FC09C2D8D2DD7FE2A
:1005A00002C090E080E0692E782E40E050E0C60165
:1005B000841991099D878C87960126193709280D82
:1005C000391D812F90E0EE27FF27E81BF90BFF87ED
:1005D000EE87FFEF6F167F0669F4B7018EE290E0B9
:1005E0002B8B3A8B488B598B0E94771A59894889F3
:1005F0003A892B89C614D70454F06C857D8566151D
:1006000077052CF4F901E40FF51F818101C080E327
:1006100071E0671A71084F5F5F4FEE85FF856E16B8
:100620007F066CF0B70190E02B8B3A8B488B598B8F
:100630000E94771A2B893A8948895989CACF6C1444
:100640007D0439F49A81963318F4953311F404FF3C
:1006500081E3B70190E04BC08A81813309F00F7EBE
:10066000B70190E00E94771A111105C074FE18C0FE
:1006700085E490E017C0B7018EE290E00E94771AFF
:1006800082E066246394680EF401E80FF11D808116
:10069000B70190E00E94771A115041F3862DF1CFF7
:1006A00085E690E0B7010E94771AD7FC05C0C11417
:1006B000D10439F404FF05C0D194C194D1088DE26E
:1006C00001C08BE2B70190E00E94771A80E36AE0F4
:1006D000C616D1042CF08F5FFAE0CF1AD108F7CFFD
:1006E000B70190E00E94771AB701C601C0960E9438
:1006F000771A41C1833631F0833779F0833509F0B9
:1007000058C021C0560172E0A70EB11CF6018081CD
:10071000898301E010E0640114C05601F2E0AF0EDD
:10072000B11CF601C080D18026FF03C0612F70E0AC
:1007300002C06FEF7FEFC6012B8B0E946C1A8C01F9
:100740002B892F7715C05601F2E0AF0EB11CF601D0
:10075000C080D18026FF03C0612F70E002C06FEF20
:100760007FEFC6012B8B0E94611A8C012B892068B8
:10077000722E23FD1AC0852D90E008171907A8F4E2
:10078000B70180E290E00E94771A5A94F4CFF60104
:1007900077FC859177FE81916F01B70190E00E940F
:1007A000771A51105A94015011090115110579F762
:1007B000E2C0843611F0893651F5560127FF09C091
:1007C000F4E0AF0EB11CF6016081718182819381EA
:1007D0000AC0F2E0AF0EB11CF6016081718188277A
:1007E00077FD8095982F022F0F7697FF08C0909580
:1007F0008095709561957F4F8F4F9F4F00682AE0DD
:1008000030E0A4010E94A91AC82EC8183EC0022FC9
:10081000853721F40F7E2AE030E01DC0097F8F3636
:1008200091F018F4883559F0B0C0803719F0883746
:1008300011F0ABC0006104FF09C0046007C024FFD1
:1008400008C0066006C028E030E005C020E130E0C6
:1008500002C020E132E0560107FF09C0F4E0AF0E0C
:10086000B11CF601608171818281938108C0F2E040
:10087000AF0EB11CF6016081718180E090E0A401AF
:100880000E94A91AC82EC8180F7706FF0BC0202F88
:100890002E7FC11650F404FF0AC002FD08C0202FAD
:1008A0002E7E05C0DC2C202F03C0DC2C01C0D12EF5
:1008B00024FF0DC0FE01EC0DF11D8081803311F489
:1008C000297E09C022FF06C0D394D39404C0822F8E
:1008D000867809F0D39423FD13C020FF06C01C2D99
:1008E000D51418F4150D1D19D52CD51468F4B701BD
:1008F00080E290E02B8B0E94771AD3942B89F5CF5E
:10090000D51410F45D1801C0512C24FF12C0B7019A
:1009100080E390E02B8B0E94771A2B8922FF17C06F
:1009200021FF03C088E590E002C088E790E0B701AE
:100930000CC0822F867859F021FD02C080E201C0F0
:100940008BE227FD8DE2B70190E00E94771AC11675
:1009500038F4B70180E390E00E94771A1150F7CF86
:10096000CA94F401EC0DF11D8081B70190E00E9462
:10097000771AC110F5CF552009F4C2CCB70180E237
:1009800090E00E94771A5A94F6CFF70186819781FA
:1009900002C08FEF9FEF63960FB6F894DEBF0FBED5
:1009A000CDBFDF91CF911F910F91FF90EF90DF901E
:1009B000CF90BF90AF909F908F907F906F905F90FF
:1009C0004F903F902F900895FB01218130E0322F0E
:1009D00022279081292B803171F4A9014E7F63E099
:1009E000440F551F6A95E1F796812CE030E0291BF2
:1009F0003109240F351F37FF05C031952195310985
:100A0000A1E001C0A0E0883211F0823269F4848153
:100A10008076803231F0803431F0811105C0287F3A
:100A200003C02C7F01C02E7FC90144E096958795B5
:100A30004A95E1F76AE0689FA001699F500D112473
:100A40002F70332760E872E0269FC001279F900D2A
:100A5000369F900D1124A11101C09E5F9C01232F90
:100A6000332726952695240F351FAA2319F0319593
:100A700021953109C9018A5D9D4F8930974018F051
:100A800080ED97E00895C9010895FF920F931F9399
:100A9000CF93DF93062FF72EBC018EEB0E946B08DD
:100AA000C02FDF2D19E00E94210889931150D9F73A
:100AB00069E070E0802F9F2D0E946307882311F06A
:100AC00083E001C080E0DF91CF911F910F91FF90F3
:100AD00008950F931F93CF93DF93EC018B01B8011F
:100AE00088810E942408888381508D3F48F4F80152
:100AF0008081883239F0803129F0823281F702C05A
:100B000081E001C080E0DF91CF911F910F910895A6
:100B1000CF93DF93EC010E94A907BE0184EB0E94F2
:100B20006B0881E00E94C607C82F0E94A90781E0D8
:100B3000C11101C080E0DF91CF9108951F93CF9341
:100B4000DF9300D0CDB7DEB7182F69837A830E9478
:100B5000A9070E947C0769817A81882351F084E487
:100B6000113019F00E946E0802C00E946B0880E0EC
:100B700001C082E00F900F90DF91CF911F910895F7
:100B800081E00E94C60791E0811190E0892F0895CD
:100B9000EF92FF920F931F93CF93DF93CDB7DEB702
:100BA00027970FB6F894DEBF0FBECDBF8B0147303D
:100BB00008F460C09C0129513C4F273F3A4208F09D
:100BC00059C097FF06C0919581959109EE24E39451
:100BD00001C0E12CF12C6AE070E00E94F81421E0E1
:100BE0002F0DE1E0F0E0EC0FFD1FEF0DF11DF7FC24
:100BF000FA95805D8083862F972F1816190614F4B6
:100C0000F22EE9CF822F992787FD9095E1E0F0E061
:100C1000EC0FFD1FE80FF91FEE2029F03DE23083B5
:100C200030E06EE21DC03BE2FACF41E0430F5FEFE0
:100C3000520FD801A80FB91FE1E0F0E0EC0FFD1F43
:100C4000E20FF11D27FDFA9520812C93511106C06A
:100C5000F801E40FF11D608342E0430F342F252F8C
:100C6000832F90E027FFE1CFF801E80FF91F1082F2
:100C700080E001C081E027960FB6F894DEBF0FBE7A
:100C8000CDBFDF91CF911F910F91FF90EF9008950D
:100C9000DF92EF92FF920F931F93CF93DF93CDB725
:100CA000DEB729970FB6F894DEBF0FBECDBF8C011B
:100CB0007B010E94A907BE016F5F7F4FC8010E94A0
:100CC0004505D82E81110AC0BE016F5F7F4FF80124
:100CD00080810E94E404F701918380838D2D299601
:100CE0000FB6F894DEBF0FBECDBFDF91CF911F913D
:100CF0000F91FF90EF90DF900895EF92FF920F9386
:100D00001F93CF93DF93CDB7DEB729970FB6F89433
:100D1000DEBF0FBECDBFE82E8B01BE016F5F7F4FE0
:100D200080E090E00E944505F82E811109C0BE01C7
:100D30006F5F7F4F8E2D0E94E404F80191838083C2
:100D40008F2D29960FB6F894DEBF0FBECDBFDF9171
:100D5000CF911F910F91FF90EF900895DF92EF9246
:100D6000FF920F931F93CF93DF93CDB7DEB72997F1
:100D70000FB6F894DEBF0FBECDBF7C018B010E9481
:100D8000A907BE016F5F7F4FC7010E944505D82E9E
:100D9000811159C0F70180814A8150E0542F4427C6
:100DA0009981492B803171F49A012E7FF3E0220F53
:100DB000331FFA95E1F79F814CE050E0491B510940
:100DC000420F531F57FF06C0519541955109FF240B
:100DD000F39401C0F12C883211F0823269F48D81D4
:100DE0008076803231F0803431F0811105C0487F47
:100DF00003C04C7F01C04E7F9A01E4E036952795F1
:100E0000EA95E1F7A0E1B7E20E942E154F70552751
:100E1000E1E7F2E04E9F90014F9F300D5E9F300D55
:100E20001124620F731F811D911DFF2039F09095D1
:100E30008095709561957F4F8F4F9F4FF80160832C
:100E40007183828393838D2D29960FB6F894DEBF2C
:100E50000FBECDBFDF91CF911F910F91FF90EF900B
:100E6000DF900895FF920F931F93CF93DF93EC01D0
:100E7000162FF42E022F0E94A9070E947C078823B8
:100E800099F0BE018EE40E946B08812F0E94CA0770
:100E90008F2D0E94CA079881983211F0923231F456
:100EA000802F0E94CA0702C081E001C080E0DF916C
:100EB000CF911F910F91FF900895262F2F6140E051
:100EC00060E00C943207FC01680F791F80E048E174
:100ED000E617F70781F0219198E0322F3827532F3A
:100EE000517030FD84278695513009F4806826952D
:100EF000915099F7EDCF089586B380780895C79AF9
:100F0000BF9A0895CF93DF93DFB7F894BF9A95E027
:100F10009A95F1F700008111BF9892E29A95F1F746
:100F200000C0C6B3CC0FCC0BC82382E78A95F1F77B
:100F300000C0BF9861110E947F07DFBF9AE19A95B8
:100F4000F1F700C08C2FDF91CF910895BF98C7981B
:100F50000895C798BF9A8FEB93E00197F1F700C00F
:100F600000009FB7F894BF98EAEAEA95F1F700C04D
:100F700086B39FBFEFE3F3E03197F1F700C00000C5
:100F8000B79B02C08078089581E0089560E0817089
:100F90000C948207CF93DF93C82FD8E08C2F8170F9
:100FA0000E94C607C6958111C068D150B9F78C2F31
:100FB000DF91CF910895CF93DF93C82FD8E08C2F86
:100FC0008170D13011F060E001C061E00E948207C1
:100FD000C6958111C068D15091F78C2FDF91CF91C8
:100FE0000895EF92FF920F931F93CF93DF93F82E04
:100FF000EB01E42E0E94A907209769F085E50E9485
:10100000CA078E01085F1F4F89910E94CA07C01747
:10101000D107D1F703C08CEC0E94CA078F2DEE20B8
:1010200041F0DF91CF911F910F91FF90EF900C94C1
:10103000DB07DF91CF911F910F91FF90EF900C9400
:10104000CA078FEF0C94CA07DF92EF92FF920F93BB
:101050001F93CF93DF93E82EEB010E94A907811124
:101060002FC080EF0E94CA07F12C10E488EFD82E21
:10107000D10E81E00E94C607082F81E00E94C607BA
:10108000882319F0002361F01DC0011109C01E154D
:1010900028F0888180FF04C0E11611F0F12E01E0F4
:1010A000802F0E94C60798819695011190689883B9
:1010B00011501D11DECF21961111D8CF8F2D03C0F5
:1010C0008FEF01C08EEFDF91CF911F910F91FF90B5
:1010D000EF90DF90089540E00C94F10741E00C940C
:1010E000F1074F925F926F927F92AF92BF92CF9231
:1010F000DF92EF92FF920F931F93CF93DF93CDB7C1
:10110000DEB728970FB6F894DEBF0FBECDBF6D8354
:101110007E838F83988729013A01E982FA820B83C3
:101120001C83A8019701C301B2010E94D81523E3D3
:1011300033E345E652E40E94A117F6016083718310
:1011400082839383A3019201C301B2010E94A1177C
:101150002B013C01A8019701C801B7010E94A1170A
:101160009B01AC01C301B2010E9465150E94541895
:101170009B01AC016D817E818F81988590580E9482
:10118000D81523E333E345E652E40E94A117F501A5
:10119000608371838283938328960FB6F894DEBFB1
:1011A0000FBECDBFDF91CF911F910F91FF90EF90B8
:1011B000DF90CF90BF90AF907F906F905F904F90F7
:1011C00008952F923F924F925F926F927F928F92EB
:1011D0009F92AF92BF92CF92DF92EF92FF920F93C6
:1011E0001F93CF93DF93CDB7DEB7CE54D1090FB69F
:1011F000F894DEBF0FBECDBF2F96BFAEAEAE2F9719
:101200002401FE01FD965F016083718382839383D5
:1012100025962CAF3DAF4EAF5FAF25972996ECAE2C
:10122000FDAE0EAF1FAF299784E2EEE0F1E0DE01E4
:10123000119601900D928A95E1F78CE0E2E3F1E0DE
:10124000DE01D19601900D928A95E1F78E010F5C37
:101250001F4F75011801F801219131914191519170
:101260008F01F70160817181828193810E946415F1
:10127000F70161937193819391937F010A151B0587
:1012800051F71DA21EA21FA218A619A61AA61BA6D8
:101290001CA61DA61EA61FA618AA8E010B5D1F4F19
:1012A000CE0101964C01F801F0812A96FFAF2A97F2
:1012B000F801F1812B96FFAF2B97F801F2812C9664
:1012C000FFAF2C97F801F3812D96FFAF2D973501D5
:1012D000E12CF12CF30161917191819191913F0188
:1012E000F401EE0DFF1D20813181428153810E9466
:1012F000A1179B01AC012A966FAD2A972B967FAD63
:101300002B972C968FAD2C972D969FAD2D970E94E5
:101310006515F4E0EF0EF11C2CE0E216F10469F023
:101320002A966FAF2A972B967FAF2B972C968FAF6D
:101330002C972D969FAF2D97CDCFF8016193719388
:10134000819391938F01FCE08F0E911C0215130580
:1013500009F0A9CF49A55AA56BA57CA58DA59EA589
:10136000AFA5B8A90DA11EA12FA138A5F601008334
:101370001183228333832F96EEADFFAD2F974083E9
:10138000518362837383F20180839183A283B38349
:10139000C25BDF4F0FB6F894DEBF0FBECDBFDF914B
:1013A000CF911F910F91FF90EF90DF90CF90BF9062
:1013B000AF909F908F907F906F905F904F903F90F5
:1013C0002F9008958EB58C608EBD87B7806187BFE2
:1013D0008FE190E09BBD8ABD789408951F920F9293
:1013E0000FB60F9211248F939F93AF93BF93809169
:1013F0003E0190913F01A0914001B09141010196C1
:10140000A11DB11D80933E0190933F01A093400127
:10141000B0934101BF91AF919F918F910F900FBEFB
:101420000F901F901895FC018FEF9FEF615090F087
:101430002191922748E09C01220F331F97FF06C09D
:10144000C90151E2852750E1952701C0C9014150EA
:1014500091F7ECCF08952F923F924F925F926F9247
:101460007F928F929F92AF92BF92CF92DF92EF9234
:10147000FF920F931F93CF93DF9300D0CDB7DEB7CA
:101480009A838983FB0140805180628073806FEF73
:10149000461A560A660A760A40825182628273822E
:1014A0001C01FC01408251826282738280913E0164
:1014B00090913F01A0914001B091410184839583B7
:1014C000A683B78351874087338722871587048790
:1014D000C686D786E08AF18A20E030E048EC52E404
:1014E000C501B4010E94A1170E949716F101628BF9
:1014F000738B848B958B20E030E040E251E46F8960
:10150000788D898D9A8D0E9465150E949716F1013C
:10151000778B668B8B8D9C8DAD8DBE8D805C9D4B4E
:10152000A04FBF4F808F918FA28FB38F6CE1CE0100
:1015300001960E94130AF101958F848F178E168EE3
:101540000F900F90DF91CF911F910F91FF90EF902F
:10155000DF90CF90BF90AF909F908F907F906F90D3
:101560005F904F903F902F900895CF92DF92EF922F
:10157000FF92CF936A017B0160E270E00E942D141C
:10158000C82FB701A6014F70552766277727452B2F
:10159000462B472BA1F40E946814C701B601E4E072
:1015A0009695879577956795EA95D1F7F9E0660F57
:1015B000771F881F991FFA95D1F70E94F2138C2F7D
:1015C000CF91FF90EF90DF90CF9008956EE10C9453
:1015D000BE14CF93DF931F92CDB7DEB719829E0161
:1015E0002F5F3F4F41E060E0809148010E9407116A
:1015F00081E09981953E09F080E00F90DF91CF91D5
:1016000008954BE061E3809148010C94DC1048E0C0
:101610006DE2809148010C94DC10809348010E9497
:10162000E90A882361F048E06CE2809148010E9459
:10163000DC100E94010B0E94070B81E0089580E0FE
:101640000895CF92DF92EF92FF920F931F93CF9363
:10165000DF9300D000D000D0CDB7DEB78C017B0186
:101660006A019E012F5F3F4F46E062E3809148018F
:101670000E9407112A8130E0322F22278981282BEE
:10168000F801318320838C8190E0982F88272B816B
:10169000822BF701918380838E8190E0982F882799
:1016A0002D81822BF6019183808326960FB6F894C4
:1016B000DEBF0FBECDBFDF91CF911F910F91FF9085
:1016C000EF90DF90CF900895CF92DF92EF92FF924C
:1016D0000F931F93CF93DF9300D000D000D0CDB7EE
:1016E000DEB76C017B018A01AE014F5F5F4FBE0127
:1016F0006D5F7F4FCE0105960E94210B6D817E812B
:10170000882777FD8095982F0E94C5162DEC3CEC1C
:101710004CE15DE30E94A117F6016083718382832F
:1017200093836B817C81882777FD8095982F0E9419
:10173000C5162DEC3CEC4CE15DE30E94A117F701CE
:10174000608371838283938369817A81882777FD9F
:101750008095982F0E94C5162DEC3CEC4CE15DE382
:101760000E94A117F8016083718382839383269678
:101770000FB6F894DEBF0FBECDBFDF91CF911F91A2
:101780000F91FF90EF90DF90CF900895462F682F34
:10179000809153010C94DC10CF93DF931F92CDB74F
:1017A000DEB79E012F5F3F4F41E0682F80915301CC
:1017B0000E94071189810F90DF91CF910895CF93F7
:1017C000DF9300D0CDB7DEB79E012F5F3F4F42E0E1
:1017D000682F809153010E940711898190E0982F12
:1017E00088272A81822B0F900F90DF91CF91089547
:1017F0000E94DF0B98278927982708950C94F80BEF
:10180000CF93DF9300D01F92CDB7DEB79E012F5F3D
:101810003F4F43E0682F809153010E940711698177
:10182000862F90E0A0E0B0E0BA2FA92F982F88274C
:101830002A81822B6627782F892F9A2F2B81622B62
:101840000F900F900F90DF91CF91089588E80E943C
:10185000F80B90934C0180934B018AE80E94F80B9F
:1018600090934E0180934D018CE80E94F80B909369
:101870005F0180935E018EE80E94F80B9093570100
:101880008093560180E90E94F80B90935001809359
:101890004F0182E90E94F80B9093590180935801FF
:1018A00084E90E94F80B909352018093510186E9DC
:1018B0000E94F80B909355018093540188E90E948F
:1018C000F80B90936101809360018AE90E94F80B04
:1018D00090934A01809349018CE90E94F80B909300
:1018E0005B0180935A018EE90E94F80B90935D0191
:1018F00080935C0108958093530180ED0E94CC0B8E
:10190000883559F40E94260C68E685EF0E94C60BC4
:1019100085EF0E94CC0B81E0089580E008958F92BE
:101920009F92AF92BF92CF92DF92EF92FF928AEF97
:101930000E94000C20914B0130914C016901E12C77
:10194000F12C872E982EA92EBB24A7FCBA948C18B4
:101950009D08AE08BF089B01AC0167E0559547950F
:10196000379527956A95D1F7D701C601880F991F3A
:10197000AA1FBB1F281B390B4A0B5B0BA0914D0103
:10198000B0914E010E9448156B017C01EBE0F5948B
:10199000E794D794C794EA95D1F7A5019401C501BE
:1019A000B4010E94E8149B01AC01FCE055954795F9
:1019B00037952795FA95D1F7A0915E01B0915F0117
:1019C0000E944815AEE09595879577956795AA95FD
:1019D000D1F7C60ED71EE81EF91EC0926201D09242
:1019E0006301E0926401F0926501A5E0B0E0A70117
:1019F00096010E943D1560587F4F8F4F9F4F672F74
:101A0000782F892F992787FD9A95FF90EF90DF9087
:101A1000CF90BF90AF909F908F9008952F923F925C
:101A20004F925F926F927F928F929F92AF92BF92EE
:101A3000CF92DF92EF92FF920F931F93CF93DF939A
:101A400000D000D0CDB7DEB70E948F0C87EF0E9488
:101A5000000C69837A838B839C83809062019090D1
:101A60006301A0906401B0906501B594A794979428
:101A700087948AEF981AA108B108C501B401F2E071
:101A80009595879577956795FA95D1F79B01AC0168
:101A90000E94E8146B017C01E0916001F09161010A
:101AA0002090540130905501009151011091520144
:101AB000A0915801B09159019B01AC018DE0559561
:101AC0004795379527958A95D1F70E9448152B01A0
:101AD0003C0193E075946794579447949A95D1F795
:101AE000A0914F01B0915001A50194010E944815A9
:101AF0009595879577956795460E571E681E791EB2
:101B000032E175946794579447943A95D1F780E8F9
:101B1000580E611C711CA0915601B0915701A30190
:101B200092010E943D152B013C014FE07594679492
:101B3000579447944A95D1F74114510461047104B4
:101B400009F4C0C0A70196016BE0559547953795FC
:101B500027956A95D1F7DF010E9448156B017C013A
:101B6000D101A50194010E944815660F771F881FB7
:101B7000991FC60ED71EE81EF91EF2E0F594E794F1
:101B8000D794C794FA95D1F789819A81AB81BC81AA
:101B900024E0B595A795979587952A95D1F72227A3
:101BA0003327A901281B390B4A0B5B0BC801AA2755
:101BB00097FDA095BA2FDC0199278827C80ED91E5A
:101BC000EA1EFB1E7CE0F594E794D794C7947A95BF
:101BD000D1F72C193D094E095F09A5E3BCE00E942D
:101BE0003D15805B9C4397FD0BC0660F771F881FD8
:101BF000991FA30192010E940C1549015A010AC0C4
:101C0000A30192010E940C1549015A01880C991CEC
:101C1000AA1CBB1CC501B40113E096958795779566
:101C200067951A95D1F7E0915C01F0915D019B01F8
:101C3000AC010E94E8149B01AC010DE0569547955C
:101C4000379527950A95D1F7DF010E9448156B015A
:101C50007C018CE0F594E794D794C7948A95D1F7EA
:101C6000A501940192E056954795379527959A9549
:101C7000D1F7A0915A01B0915B010E9448152DE067
:101C800095958795779567952A95D1F7C60ED71EB6
:101C9000E81EF91E8091490190914A01AA2797FDFB
:101CA000A095BA2FC80ED91EEA1EFB1E34E0F5948B
:101CB000E794D794C7943A95D1F7C80CD91CEA1C7D
:101CC000FB1C03C0C12CD12C7601C701B6010F90BB
:101CD0000F900F900F90DF91CF911F910F91FF9078
:101CE000EF90DF90CF90BF90AF909F908F907F90BC
:101CF0006F905F904F903F902F9008952F923F925A
:101D00004F925F926F927F928F929F92AF92BF920B
:101D1000CF92DF92EF92FF920F931F93CF93DF93B7
:101D2000CDB7DEB728970FB6F894DEBF0FBECDBF94
:101D30008C0178876F830E948F0CF8016083718318
:101D40008283938387EF0E94000C69837A838B835D
:101D50009C83609162017091630180916401909114
:101D600065010E94C51620E030E040E05FE30E947C
:101D7000A11720E030E04AE757E40E9464156B01A8
:101D80007C0100916001109161012090540130901C
:101D9000550120915101309152013E832D83609174
:101DA000580170915901882777FD8095982F0E94DE
:101DB000C516A70196010E94A117A70196010E94CE
:101DC000A11720E030E040E056E30E94A1174B014C
:101DD0005C0160914F0170915001882777FD8095DB
:101DE000982F0E94C516A70196010E94A1179B017A
:101DF000AC01C501B4010E94651520E030E040E06F
:101E000056E30E94A11720E030E040E058E30E9432
:101E1000A11720E030E040E85FE30E9465154B0128
:101E20005C01609156017091570180E090E00E9442
:101E3000C3169B01AC01C501B4010E94A1174B015F
:101E40005C0120E030E0A9010E942B16811107C03F
:101E5000EF81F8851082118212821382DAC0A70105
:101E60009601C701B6010E94A1172B013C01B801E0
:101E7000882777FD8095982F0E94C5169B01AC019D
:101E8000C301B2010E94A11720E030E040E058E316
:101E90000E94A1172B013C01B101882777FD809595
:101EA000982F0E94C5169B01AC01C701B6010E9484
:101EB000A1179B01AC010E9465159B01AC01C301F8
:101EC000B2010E94651520E030E040E85EE30E9428
:101ED000A1176B017C0169817A818B819C8154E01F
:101EE00095958795779567955A95D1F70E94C51670
:101EF0009B01AC0160E070E080E899E40E94641509
:101F00002B013C012D813E81B901882777FD809509
:101F1000982F0E94C51620E030E040E857E40E9468
:101F2000A1179B01AC01C701B6010E94651520E015
:101F300030E040E859E30E94A1179B01AC01C301C6
:101F4000B2010E94641520E030E543EC55E40E94A4
:101F5000A117A50194010E942F166B017C016091CD
:101F60005C0170915D01882777FD8095982F0E9414
:101F7000C516A70196010E94A117A70196010E940C
:101F8000A11720E030E040E050E30E94A1174B0190
:101F90005C0160915A0170915B01882777FD809503
:101FA000982F0E94C5169B01AC01C701B6010E9483
:101FB000A11720E030E040E058E30E94A1179B0108
:101FC000AC01C501B4010E9465154B015C01609133
:101FD000490170914A01882777FD8095982F0E94CA
:101FE000C5169B01AC01C501B4010E94651520E036
:101FF00030E040E85DE30E94A1179B01AC01C701FE
:10200000B6010E946515EF81F88560837183828334
:10201000938328960FB6F894DEBF0FBECDBFDF9135
:10202000CF911F910F91FF90EF90DF90CF90BF90D5
:10203000AF909F908F907F906F905F904F903F9068
:102040002F90089520E836EE45EC57E4FC016081BE
:102050007181828193810E942F1622E63BED42E43A
:102060005EE30E9404189B01AC0160E070E080E830
:102070009FE30E94641520E03AE24DE257E40E949B
:10208000A1170895EF92FF920F931F93CF93DF93C1
:102090007C01EB018A0165E584EF0E94C60B2FEFFE
:1020A00082E191E0215080409040E1F700C00000C3
:1020B000BE01C7010E947E0ECE010E942210F801CF
:1020C000608371838283938381E0DF91CF911F913D
:1020D0000F91FF90EF9008959A01AB01BC0180E051
:1020E00090E00E940C152051310941095109569583
:1020F0004795379527952093700010927100E4E77B
:10210000F0E08081846080830895E4E7F0E08081DE
:102110008B7F8083089584EA80937400809174009B
:1021200087FFFCCF089584E9809374008091740048
:1021300084FDFCCF08958093730084E8809374003D
:102140008091740087FFFCCF80917100887F883177
:1021500069F080917100887F883241F09091710020
:10216000987F81E0903419F080E0089581E008952F
:1021700020917400662311F0206401C02F7B20930E
:1021800074002091740020682093740020917400E2
:1021900027FFFCCF20917100287F283529F020915E
:1021A0007100287F203531F420917300FC012083D9
:1021B00081E0089580E00895CF93DF9300D01F92CF
:1021C000CDB7DEB74B836A8389830E948B108981E8
:1021D000880F0E949B106A81862F0E949B104B8162
:1021E000842F0E949B108FE19EE40197F1F700C0BD
:1021F00000000E949310EFEDFEE23197F1F700C06E
:1022000000000F900F900F90DF91CF910895EF9203
:10221000FF920F931F93CF93DF9300D0CDB7DEB71C
:10222000F82E042F122F3A8369830E948B10FF0C23
:102230008F2D0E949B106981862F0E949B100E9407
:102240008B1081E08F0D0E949B10E12E3A81F32EBE
:102250008E2D811B801740F461E0C7010E94B810E9
:102260008FEFE81AF80AF4CF0F900F90DF91CF911B
:102270001F910F91FF90EF9008958DE10C940D0B3D
:1022800008958F929F92AF92BF92CF92DF92EF927A
:10229000FF920F931F93CF93DF93CDB7DEB7CA554D
:1022A000D1090FB6F894DEBF0FBECDBF65961CAE48
:1022B0001DAE1EAE1FAE65971DAA1EAA1FAA18AEA0
:1022C00019AA1AAA1BAA1CAA0E94E20980E091E09E
:1022D000909371018093700180E895E20E949C14B4
:1022E00040EA56E861E070E080E092E10E946C1004
:1022F0000E943D110E94C2128111FCCF60E070E08B
:10230000CB010E94F21387E70E947B0C813009F019
:10231000D5C00E94A9078FEF89A380E08E01075FD7
:102320001F4F99A1992309F457C0811155C0BE01CF
:102330006F5F7F4FCE0181960E94690589A18E5FF4
:10234000823008F449C0FE013196A6E6B1E08191E1
:102350008D93E017F107D9F781E0E3CF89A49AA420
:10236000ABA4BCA4CDA4DEA4EFA4F8A867960EADE0
:102370001FAD679769962EAD3FAD69976B964EADD1
:102380005FAD6B978CA18F938BA18F938AA18F9355
:1023900089A18F9388A58F938FA18F938EA18F93FF
:1023A0008DA18F93BE016F5A7F4FCE0101960E947F
:1023B0002B0A65964CAD5DAD6EAD7FAD6597CE01D8
:1023C00001960E94B50ACE0101960E94E60A0FB658
:1023D000F894DEBF0FBECDBFAE014B5B5F4FBE01B9
:1023E000675B7F4FCE01835B9F4F0E94640BAE0102
:1023F0004B5A5F4FBE01695A7F4FCE01875A9F4F9C
:102400000E94210B2996ECACFDAC0EAD1FAD2997B7
:102410002D962CAD3DAD4EAD5FAD2D9761966CAD5B
:102420007DAD8EAD9FAD6197FE01F9964F0134965B
:102430005F0134966F010E94E108E9ACFAAC0BAD84
:102440001CAD21962CAD3DAD4EAD5FAD21972596CF
:102450006CAD7DAD8EAD9FAD2597FE01F1965F0110
:1024600034966F010E947108AE014B5D5F4FBE0153
:10247000675D7F4FCE018D960E94421080ED0E94D5
:10248000CC0B60E286E691E00E945D0766E671E0B3
:1024900081E00E949E05811161CFFFEB20E984E07D
:1024A000F15020408040E1F700C00000BE016F5DA8
:1024B0007F4F86E691E00E94AE0650CF80E090E02C
:1024C000C65ADF4F0FB6F894DEBF0FBECDBFDF9107
:1024D000CF911F910F91FF90EF90DF90CF90BF9021
:1024E000AF909F908F9008958FB9779BFECF8FB15B
:1024F00008958FEF0C947412FF920F931F93CF9354
:10250000DF93C82FD42F152F062FF72E87FF09C072
:1025100040E050E0BA0187E70E947C12823060F50B
:10252000CF77C09A0E947912C0980E9479128C2F9E
:102530000E9474128F2D0E947412802F0E947412B8
:10254000812F0E9474128D2F0E947412C03421F0CA
:10255000C83421F081E003C085E901C087E80E940A
:102560007412CC3411F40E947912CAE00E947912DC
:1025700087FF02C0C150D1F7DF91CF911F910F911A
:10258000FF900895CF92DF92EF92FF920F931F93E7
:10259000CF93DF9300D000D01F92CDB7DEB787B3C3
:1025A000876087BBC39A6C9A699A709A6E9AC09A30
:1025B0001AE00E9479121150E1F740E050E0BA01B0
:1025C00080E40E947C12813009F073C04AEA51E035
:1025D00060E070E088E40E947C128130B9F500E18F
:1025E00017E240E050E060E070E489EE0E947C1267
:1025F000882359F087EC90E00197F1F700C00000C4
:10260000015011090115110561F740E050E0BA01D0
:102610008AE70E947C1290E080239123892B09F0A5
:1026200056C0FE0131967F016E01F5E0CF0ED11C40
:102630000E947912F70181937F01EC15FD05C1F726
:10264000898186FD2AC024E0F22E29C040E050E0B6
:10265000BA0189EE0E947C12823020F432E0F32E1F
:1026600099EE03C0FF24F39491E400E117E240E007
:1026700050E0BA01892F9D830E947C129D8188239E
:1026800081F0E7ECF0E03197F1F700C00000015075
:1026900011090115110559F70CC09CE0F92E012B09
:1026A00041F040E052E060E070E080E50E947C1282
:1026B0008111F12CF0924701C09A0E947912FF20FB
:1026C00021F06998709880E005C081E003C084E043
:1026D000F82EE7CF0F900F900F900F900F90DF9193
:1026E000CF911F910F91FF90EF90DF90CF900895C1
:1026F000CF93DF9300D000D0CDB7DEB7AB01BC01E4
:102700008091470183FD07C0E9E0440F551F661F14
:10271000771FEA95D1F7109246011092450149833F
:102720005A836B837C830E94791249815A816B8121
:102730007C818F3FA1F782E50E947C1281110AC043
:102740000E947912982F8F3FD9F381E09E3F19F4B0
:1027500080E001C081E00F900F900F900F90DF910B
:10276000CF9108950F931F93CF93DF93EB018C01CB
:102770000E947912F80181938F01209145013091D7
:1027800046012F5F3F4F309346012093450121972B
:10279000209771F72115324041F40E9479128E3F43
:1027A000E1F7109246011092450180E0DF91CF9150
:1027B0001F910F910895CF9340E050E0BA018CE44F
:1027C0000E947C12811105C00E9479128F3FE1F7AF
:1027D00002C0C1E001C0C0E0C09A0E9479128C2FF3
:1027E000CF910895CF93DF9300D000D0CDB7DEB75F
:1027F000AB01BC011092440110924301809147014A
:1028000083FD07C0F9E0440F551F661F771FFA9537
:10281000D1F749835A836B837C830E947912498163
:102820005A816B817C818F3FA1F789E50E947C12E0
:1028300081110BC08FEF0E9474128FEF0E947412EF
:102840008CEF0E94741280E001C081E00F900F9025
:102850000F900F90DF91CF9108950F931F93CF9317
:10286000DF93EB018C01F80181918F010E947412BA
:1028700020914301309144012F5F3F4F3093440139
:10288000209343012197209771F721153240C1F41D
:102890008FEF0E9474128FEF0E9474120E947912BF
:1028A0008F3FE1F38F71853069F4109244011092EB
:1028B00043010E9479128F3FE1F78CEF0E9474125E
:1028C00080E001C081E0DF91CF911F910F910895C9
:1028D000CF93DF938091430190914401892B89F03C
:1028E000C0914301D0914401C23082E0D80748F43E
:1028F00080E00E9474122196D0934401C09343015A
:10290000EFCF0E9479128F3FE1F38F71853081F410
:102910000E9479128F3FE1F78DEF0E9474120E949E
:1029200079120E9479128F3FE1F7C09A80E001C0CE
:1029300081E0DF91CF9108959C0140E050E060E29A
:1029400071EA87E090E00E940C152150310941099D
:102950005109BB27A52F942F832F8093900029B96D
:1029600088E18AB986E08093950008955D9BFECF4B
:102970008CB908955F9BFECF8CB10895EF92FF92C2
:102980000F931F93CF93DF938C01EC01E62EF12C74
:10299000CE01801B910B8E159F0524F489910E9416
:1029A000B614F6CF5E9BFECFDF91CF911F910F91B2
:1029B000FF90EF900895CF93C82F8A3019F48DE0DF
:1029C0000E94DB148C2F0E94B61480E0CF910895F2
:1029D000DB018F939F930E943D15BF91AF91A29F02
:1029E000800D911DA39F900DB29F900D112408950D
:1029F00097FB072E16F4009407D077FD09D00E94AC
:102A0000501507FC05D03EF4909581959F4F089591
:102A1000709561957F4F0895A1E21A2EAA1BBB1BEA
:102A2000FD010DC0AA1FBB1FEE1FFF1FA217B3079A
:102A3000E407F50720F0A21BB30BE40BF50B661FB0
:102A4000771F881F991F1A9469F760957095809574
:102A500090959B01AC01BD01CF010895A29FB001EB
:102A6000B39FC001A39F700D811D1124911DB29FC2
:102A7000700D811D1124911D08950E942E15A59F92
:102A8000900DB49F900DA49F800D911D1124089569
:102A9000B7FF0C943D150E943D15821B930B0895C2
:102AA000AA1BBB1B51E107C0AA1FBB1FA617B70774
:102AB00010F0A61BB70B881F991F5A95A9F7809590
:102AC0009095BC01CD0108955058BB27AA270ED080
:102AD000F7C1E8D130F0EDD120F031F49F3F11F48F
:102AE0001EF4B8C10EF4E095E7FBAEC1E92FF9D1B1
:102AF00080F3BA17620773078407950718F071F41B
:102B00009EF511C20EF4E0950B2EBA2FA02D0B01ED
:102B1000B90190010C01CA01A0011124FF27591B22
:102B200099F0593F50F4503E68F11A16F040A22F28
:102B3000232F342F4427585FF3CF46953795279599
:102B4000A795F0405395C9F77EF41F16BA0B620B98
:102B5000730B840BBAF09150A1F0FF0FBB1F661FDF
:102B6000771F881FC2F70EC0BA0F621F731F841F22
:102B700048F4879577956795B795F7959E3F08F048
:102B8000B3CF9395880F08F09927EE0F9795879507
:102B9000089588D158F080E891E009F49EEF89D13A
:102BA00028F040E851E059F45EEF09C053C1BBC1C1
:102BB000E92FE07896D168F3092E052AC1F326178C
:102BC00037074807590738F00E2E07F8E02569F057
:102BD000E025E0640AC0EF6307F8009407FADB0120
:102BE000B9019D01DC01CA01AD01EF9347D068D165
:102BF0000AD05F91552331F02BED3FE049E450FDC1
:102C000049EC63CF0895DF93DD27B92FBF7740E804
:102C10005FE31616170648075B0710F4D92F8AD111
:102C20009F938F937F936F937DD2ECE8F0E015D163
:102C300047D12F913F914F915F918FD1DD2349F083
:102C40009058A2EA2AED3FE049EC5FE3D0785D2797
:102C50004DDFDF9135C1D4D008F481E008950CD068
:102C60002FC127D140F01ED130F021F45F3F19F081
:102C7000EBC0511159C1EEC034D198F39923C9F377
:102C80005523B1F3951B550BBB27AA276217730772
:102C9000840738F09F5F5F4F220F331F441FAA1F26
:102CA000A9F333D00E2E3AF0E0E830D091505040E6
:102CB000E695001CCAF729D0FE2F27D0660F771F94
:102CC000881FBB1F261737074807AB07B0E809F076
:102CD000BB0B802DBF01FF2793585F4F2AF09E3F0B
:102CE000510568F0B1C020C15F3FECF3983EDCF3C2
:102CF000869577956795B795F7959F5FC9F7880F84
:102D0000911D9695879597F90895E1E0660F771FD5
:102D1000881FBB1F621773078407BA0720F0621B66
:102D2000730B840BBA0BEE1F88F7E0950895E1D082
:102D300088F09F5790F0B92F9927B751A0F0D1F0A4
:102D4000660F771F881F991F1AF0BA95C9F712C02E
:102D5000B13081F0E8D0B1E00895E5C0672F782F59
:102D60008827B85F39F0B93FCCF38695779567959A
:102D7000B395D9F73EF490958095709561957F4F06
:102D80008F4F9F4F0895E89409C097FB3EF49095AC
:102D90008095709561957F4F8F4F9F4F9923A9F034
:102DA000F92F96E9BB279395F695879577956795C3
:102DB000B795F111F8CFFAF4BB0F11F460FF1BC007
:102DC0006F5F7F4F8F4F9F4F16C0882311F096E99A
:102DD00011C0772321F09EE8872F762F05C0662348
:102DE00071F096E8862F70E060E02AF09A95660F01
:102DF000771F881FDAF7880F9695879597F90895BA
:102E0000990F0008550FAA0BE0E8FEEF16161706FB
:102E1000E807F907C0F012161306E407F50798F063
:102E2000621B730B840B950B39F40A2661F0232B7C
:102E3000242B252B21F408950A2609F4A140A695F8
:102E40008FEF811D811D089597F99F6780E870E0DD
:102E500060E008959FEF80EC0895DF93CF931F9378
:102E60000F93FF92EF92DF927B018C01689405C073
:102E7000DA2EEF0172D0FE01E894A59125913591EB
:102E800045915591AEF3EF0131DEFE019701A801A6
:102E9000DA9479F7DF90EF90FF900F911F91CF9127
:102EA000DF91089500240A941616170618060906DD
:102EB000089500240A9412161306140605060895B0
:102EC000092E0394000C11F4882352F0BB0F40F438
:102ED000BF2B11F460FF04C06F5F7F4F8F4F9F4F78
:102EE000089557FD9058440F551F59F05F3F71F0FA
:102EF0004795880F97FB991F61F09F3F79F0879561
:102F00000895121613061406551FF2CF4695F1DFE9
:102F100008C0161617061806991FF1CF8695710579
:102F2000610508940895E894BB2766277727CB01AD
:102F300097F908959B01AC0160E070E080E89FE3A1
:102F40008ECE0BD0BDCFAEDF28F0B3DF18F09523C7
:102F500009F07ACF7FCF1124E7CFC3DFA0F3959F8D
:102F6000D1F3950F50E0551F629FF001729FBB2770
:102F7000F00DB11D639FAA27F00DB11DAA1F649F1C
:102F80006627B00DA11D661F829F2227B00DA11DCF
:102F9000621F739FB00DA11D621F839FA00D611D55
:102FA000221F749F3327A00D611D231F849F600D76
:102FB000211D822F762F6A2F11249F5750408AF0AF
:102FC000E1F088234AF0EE0FFF1FBB1F661F771F3B
:102FD000881F91505040A9F79E3F510570F034CFA3
:102FE000A3CF5F3FECF3983EDCF38695779567952A
:102FF000B795F795E7959F5FC1F7FE2B880F911D59
:103000009695879597F90895FA01EE0FFF1F309670
:103010002105310599F16115710561F48038BFE32F
:103020009B0749F168949038810561F08038BFEFC3
:103030009B0741F0992342F5FF3FE105310521054A
:1030400011F1E8940894E795D901AA2329F4AB2F4C
:10305000BE2FF85FD0F310C0FF5F70F4A695E0F7C5
:10306000F73950F019F0FF3A38F49F779F930CD05E
:103070000F9007FC905808953EF0ECCE60E070E0B1
:1030800080E89FE308954FE79F775F934F933F93C7
:103090002F93CCD02F913F914F915F9152DF4AC037
:1030A00011F40EF4D7CE72C024DFD0F39923D9F3F4
:1030B000CEF39F57550B87FF77D00024A0E640EA58
:1030C000900180585695979528F4805C660F771F7D
:1030D000881F20F026173707480730F4621B730B50
:1030E000840B202931294A2BA69517940794202573
:1030F00031254A2758F7660F771F881F20F02617BB
:103100003707480730F4620B730B840B200D311D19
:10311000411DA09581F7B901842F9158880F96958C
:10312000879508959B01AC010CCF19F40EF08CCE5D
:10313000FACE90CEDEDEC8F39638C0F707F80F92CD
:10314000E8942BE33AEA48EB5FE709DF0F920F922E
:103150000F924DB75EB70F92A9D0E9EBF0E07DDE9C
:103160004F915F91EF91FF91E595EE1FFF1F49F0A1
:10317000FE57E0684427EE0F441FFA95E1F74195AA
:10318000550B1BD00F9007FED5CE08959F3F31F011
:10319000915020F4879577956795B795880F911D85
:1031A0009695879597F9089591505040660F771F2F
:1031B000881FD2F7089548CEE9CF9BDEE8F3992324
:1031C000D9F3940F511DBBF39150504094F059F036
:1031D000882332F0660F771F881F91505040C1F747
:1031E0009E3F510544F7880F911D9695879597F955
:1031F00008955F3FACF0983E9CF0BB27869577958D
:103200006795B79508F4B1609395C1F7BB0F58F770
:1032100011F460FFE8CF6F5F7F4F8F4F9F4FE3CF79
:1032200083CE0EF0B3CF16CE68940ECE62DEC8F316
:103230009923D1F3C6F3DF93CF931F930F93FF929C
:10324000C92FDD2788232AF02197660F771F881F53
:10325000DAF720E030E040E85FEB9FE3883920F0C8
:10326000803E30F021968F7730DCE1EEF0E003C055
:103270002CDCEEE0F1E0F1DD8B01BE01EC01FB2E78
:103280006F5771097595771F880B990B7EDD28E1C3
:1032900032E741E35FE361DEAF2D9801AE01FF90BD
:1032A0000F911F91CF91DF9121DC0ACEFA01DC0151
:1032B000AA0FBB1F9B01AC01BF5728F4222733275D
:1032C000442750781FC0B75188F4AB2F002446958F
:1032D00037952795011CA395D2F3002069F0220FA2
:1032E000331F441FB395DAF30DD0EECB6130710577
:1032F000A0E88A07B94630F49B01AC01662777271E
:1033000088279078309621F020833183428353833D
:103310000895283008F027E03327DA01990F311D8E
:1033200087FD916000966105710539F432602E5F6A
:103330003D9330E32A95E1F708959F3F30F08038C0
:103340007105610509F03C5F3C5F3D93913008F0E9
:103350008068911DDF93CF931F930F93FF92EF929D
:10336000192F987F9695E92F96959695E90FFF2747
:10337000E256FE4F99273327EE24FF24A701E701E9
:1033800005900894079428F4360FE71EF81E491F8D
:10339000511D660F771F881F991F0694A1F705908E
:1033A000079428F4E70EF81E491F561FC11D770F1A
:1033B000881F991F661F0694A1F70590079428F4AB
:1033C000F80E491F561FC71FD11D880F991F661F72
:1033D000771F0694A1F70590079420F4490F561F14
:1033E000C71FD81F990F661F771F881F0694A9F75C
:1033F00084911095177041F0D695C79557954795CC
:10340000F794E7941A95C1F7E4E4F1E06894159015
:10341000159135916591959105907FE27395E1182D
:10342000F10A430B560BC90BD009C0F7E10CF11E92
:10343000431F561FC91FD01D7EF4703311F48A95A7
:10344000E6CFE894015030F0080F0AF40027021785
:1034500008F4202F2395022F7A3328F079E37D9307
:103460002A95E9F710C07D932A9589F606949795D9
:103470006795379517951794E118F10A430B560B8A
:10348000C90BD00998F023957E9173957A3308F093
:1034900070E37C932013B8F77E9170617D9330F0D8
:1034A000839571E37D9370E32A95E1F71124EF9002
:1034B000FF900F911F91CF91DF91992787FD9095F4
:1034C0000895FC010590615070400110D8F7809577
:1034D00090958E0F9F1F0895FC01615070400190E0
:1034E0000110D8F7809590958E0F9F1F08950F9328
:1034F0001F93CF93DF93182F092FEB018B8181FD51
:1035000003C08FEF9FEF20C082FF10C04E815F810C
:103510002C813D81421753077CF4E881F9819F019A
:103520002F5F3F4F39832883108306C0E885F985D4
:10353000812F0995892B29F72E813F812F5F3F4FDE
:103540003F832E83812F902FDF91CF911F910F9179
:103550000895FA01AA27283051F1203181F1E89429
:103560006F936E7F6E5F7F4F8F4F9F4FAF4FB1E076
:103570003ED0B4E03CD0670F781F891F9A1FA11D71
:10358000680F791F8A1F911DA11D6A0F711D811D72
:10359000911DA11D20D009F468943F912AE0269F37
:1035A00011243019305D3193DEF6CF010895462F96
:1035B0004770405D4193B3E00FD0C9F7F6CF462F77
:1035C0004F70405D4A3318F0495D31FD40524193E0
:1035D00002D0A9F7EACFB4E0A6959795879577959D
:1035E0006795BA95C9F700976105710508959B0124
:1035F000AC010A2E06945795479537952795BA95AD
:10360000C9F7620F731F841F951FA01D0895F894BA
:02361000FFCFEA
:103612000000000200000000DB14000000007F6ACE
:103622007C3FBC74133CA69B443C0AD7A3BBD7A3E4
:10363200803FA69BC4BB0AD7233C6F1283BA986E05
:0E364200823FF853E3BD000020BFDD2406BF29
:00000001FF
