:100000000C941F010C943E010C943E010C943E0193
:100010000C943E010C943E010C943E010C943E0164
:100020000C943E010C943E010C943E010C943E0154
:100030000C94190E0C943E010C943E010C943E015C
:100040000C943E010C943E010C943E010C943E0134
:100050000C943E010C943E010C943E010C943E0124
:100060000C943E010C943E010C943E010C943E0114
:100070000C943E010C943E010C943E010C943E0104
:100080000C943E010C943E010C943E01084AD73B6F
:100090003BCE016E84BCBFFDC12F3D6C74319ABD57
:1000A00056833DDA3D00C77F11BED9E4BB4C3E917B
:1000B0006BAAAABE000000803F07634236B79BD8F8
:1000C000A71A39685618AEBAAB558C1D3CB7CC5739
:1000D00063BD6DEDFD753EF6177231BF0000008007
:1000E0003F08000000BE922449123EABAAAA2ABED5
:1000F000CDCCCC4C3E00000080BEABAAAAAA3E00EC
:10010000000000BF000000803F0000000000084128
:1001100078D3BB4387D1133D190E3CC3BD4282AD9A
:100120002B3E68EC8276BED98FE1A93E4C80EFFF72
:10013000BE01C4FF7F3F00000000006E616E0069D9
:100140006E660000407A10F35A00A0724E18090043
:1001500010A5D4E80000E87648170000E40B54022C
:100160000000CA9A3B000000E1F505000080969867
:1001700000000040420F000000A0860100000010B7
:100180002700000000E803000000006400000000F9
:10019000000A00000000000100000000002C76D8DA
:1001A00088DC674F0823DFC1DFAE59E1B1B796E5C0
:1001B000E3E453C63AE651997696E8E6C28426EB24
:1001C000898C9B62ED407C6FFCEFBC9C9F40F2BA37
:1001D000A56FA5F490055A2AF75C936B6CF9676DCF
:1001E000C11BFCE0E40D47FEF520E6B500D0ED9024
:1001F0002E0300943577050080841E080000204EF1
:100200000A000000C80C333333330F986E12831189
:1002100041EF8D2114893BE65516CFFEE6DB18D160
:10022000844B381BF77C1D901DA4BBE42420328432
:10023000725E228100C9F124ECA1E53D2700112462
:100240001FBECFEFD0E1DEBFCDBF15E0A0E0B1E033
:10025000E2E5F8E400E00BBF02C007900D92A23582
:10026000B107D9F715E0A2E5B5E001C01D92A838A5
:10027000B107E1F70E949C160C94CF1D0C9400006E
:100280002F923F924F925F926F927F928F929F92A6
:10029000AF92BF92CF92DF92EF92FF920F931F9394
:1002A000DF93CF93CDB7DEB761970FB6F894DEBF7B
:1002B0000FBECDBF3C017F876E876A01FC011782AC
:1002C0001682838181FD03C06FEF7FEF6FC39E01B4
:1002D0002F5F3F4F398B288BF3012381EE85FF85FC
:1002E00023FD859123FF8191FF87EE87882309F401
:1002F0005AC3853251F4EE85FF8523FD859123FF96
:100300008191FF87EE87853229F490E0B3010E9446
:10031000C01EE2CF982F10E0882499241032B0F448
:100320009B3269F09C3228F4903251F0933271F490
:100330000BC09D3239F0903349F4116028C012602F
:10034000146025C0186023C0106121C017FD2AC0A9
:10035000892F80538A3078F416FF06C0FAE09F9EFA
:10036000902C1124980E13C03AE0839E802C112407
:10037000880E10620CC09E3221F416FD14C3106466
:1003800006C09C3611F4106802C0983659F4EE8508
:10039000FF8523FD959123FF9191FF87EE87992398
:1003A00009F0BCCF892F8554833020F4812F8061E0
:1003B000905E07C0892F8556833008F09FC1812F3A
:1003C0008F7E86FD02C076E0972E6FE3F62EF82230
:1003D000953619F4F0E4FF2A07C0963619F420E8A0
:1003E000F22A02C091109A94F7FE0AC03BE3391535
:1003F00018F45CE3B52E02C0B92CB39427E009C011
:1004000047E0491520F4BB2447E0942EF7CF292D6F
:10041000BB24C60104969D878C87F601608171819B
:1004200082819381AE014F5F5F4F0B2D0E94D21DE1
:100430006C010981202E332400FF04C003FD02C09B
:100440001DE209C0F1FE02C01BE205C0F2FC02C0C1
:1004500010E001C010E2C1018C709070892BB9F1DD
:10046000112311F483E001C084E0881510F0882482
:100470000AC0881AF3FC07C080E290E0B3010E9432
:10048000C01E8A94C9F7112329F0812F90E0B3018F
:100490000E94C01E23FE03C00BE311E00EC00FE359
:1004A00011E00BC0E114F10409F0805290E0B301B7
:1004B0000E94C01E0F5F1F4F05C0EF2CFF24F0E10C
:1004C000EF22FF24F8018491882361F714C1F7FE1D
:1004D00012C0BC0C24FE04C08A81813309F4BA9492
:1004E0001B141CF0BB24B3942DC0F8E0FB1550F591
:1004F00038E0B32E27C0F6FC25C0892D90E08C157E
:100500009D054CF02CEFC2162FEFD20624F030E8F8
:10051000F32A01C09A94992049F0E2E0F0E0EC0F50
:10052000FD1FE90DF11D80818033A1F3F7FE0AC0A4
:10053000B92CB394892D90E0C816D90614F09924EB
:1005400001C09C18F7FC03C025E030E009C01C1472
:100550001D041CF021E030E003C096012F5F3F4FE7
:10056000112311F02F5F3F4F992029F0892D90E042
:100570000196280F391F882D90E02817390714F0AD
:10058000882401C0821A4F2C5524C20189709070B2
:10059000892B39F008C080E290E0B3010E94C01EB0
:1005A0008A948820C1F7112329F0812F90E0B301AC
:1005B0000E94C01E43FE07C008C080E390E0B30164
:1005C0000E94C01E8A948820C1F7F7FE46C08601AB
:1005D000D7FE02C000E010E076010894E11CF11C97
:1005E000E01AF10A41E050E04C0F5D1FE40EF51EE9
:1005F00026014B185108892D90E0AA24BB24A81A83
:10060000B90A5FEF0F3F150729F48EE290E0B301BE
:100610000E94C01EC016D10634F0401651061CF4CC
:10062000F701808101C080E3015010400894E11C73
:10063000F11C0A151B052CF090E0B3010E94C01EAE
:10064000E0CF0C151D0539F49A81963318F49533D3
:1006500011F424FE81E390E04BC08A81813309F0DC
:100660000F7E90E0B3010E94C01E9920A1F08EE29F
:1006700090E0B3010E94C01E12E0E1E0F0E0EC0F58
:10068000FD1FE10FF11D1F5F808190E0B3010E940B
:10069000C01E9A9491F744FC03C085E690E002C026
:1006A00085E490E0B3010E94C01ED7FC05C0C114D0
:1006B000D10441F404FF06C0D094C194D108D3946E
:1006C0008DE201C08BE290E0B3010E94C01E80E386
:1006D00005C08F5F26EF3FEFC20ED31E3AE0C31670
:1006E000D104BCF790E0B3010E94C01EC601C096C1
:1006F000B3010E94C01ECC84DD8452C1933631F018
:10070000933799F0933509F059C023C0F6018081E1
:1007100089835E010894A11CB11C22E030E0C20E66
:10072000D31E21E0E22EF12C12C0F601A080B18090
:1007300016FD03C06FEF7FEF02C0692D70E022E06D
:1007400030E0C20ED31EC5010E94B51E7C011F778A
:1007500013C0F601A080B18016FD03C06FEF7FEFDC
:1007600002C0692D70E022E030E0C20ED31EC50148
:100770000E94AA1E7C01106813FF07C01BC080E204
:1007800090E0B3010E94C01E8A94882D90E0E81684
:10079000F906A8F30FC0F50117FD859117FF8191A8
:1007A0005F0190E0B3010E94C01E81108A940894FA
:1007B000E108F108E114F10471F7F2C0943611F088
:1007C000993689F517FF08C0F601208131814281F1
:1007D000538184E090E00AC0F601808191819C0100
:1007E000442737FD4095542F82E090E0C80ED91E73
:1007F0009FE6F92EF12257FF09C05095409530959C
:1008000021953F4F4F4F5F4F90E8F92ACA01B90138
:10081000AE014F5F5F4F2AE030E00E94331FE82EA9
:10082000E889EE1A41C0953721F41F7E2AE030E0B6
:100830001CC0197F9F3661F0903720F4983509F07D
:10084000B2C00FC0903739F0983709F0ACC004C07F
:1008500028E030E00AC0106114FD146020E130E0AF
:1008600004C014FD166020E132E017FF08C0F60155
:10087000608171818281938144E050E008C0F6017B
:1008800080819181BC0180E090E042E050E0C40EA4
:10089000D51EAE014F5F5F4F0E94331FE82E58896F
:1008A000E51A8FE7F82EF122F6FE0BC08EEFF82244
:1008B000E91438F4F4FE07C0F2FC05C09FEEF922FB
:1008C00002C01E2D01C0192DF4FE0DC0FE01EE0D5B
:1008D000F11D8081803319F4E9EEFE2208C01F5F0C
:1008E000F2FE05C003C08F2D867809F01F5F0F2D23
:1008F000F3FC14C0F0FE0FC0181510F09E2C0BC0B6
:100900009E2C980C911A182D06C080E290E0B3013D
:100910000E94C01E1F5F1815C0F304C0181510F404
:10092000811A01C0882404FF0FC080E390E0B30166
:100930000E94C01E02FF1DC001FD03C088E790E0B9
:100940000EC088E590E00BC0802F867891F001FF03
:1009500002C08BE201C080E2F7FC8DE290E0B301BF
:100960000E94C01E06C080E390E0B3010E94C01E3A
:100970009A94E914C0F3EA94E1E0F0E0EC0FFD1F73
:10098000EE0DF11D808190E0B3010E94C01EEE20AB
:1009900091F706C080E290E0B3010E94C01E8A94E5
:1009A0008820C1F799CCF30166817781CB016196EC
:1009B0000FB6F894DEBF0FBECDBFCF91DF911F9170
:1009C0000F91FF90EF90DF90CF90BF90AF909F90EE
:1009D0008F907F906F905F904F903F902F900895F1
:1009E000382FFB01918180E02081422F50E0482B7D
:1009F000592B303171F4CA018E7FA3E0880F991F03
:100A0000AA95E1F726814CE050E0421B5109480FBE
:100A1000591F57FD02C0A0E004C0509541955F4F9B
:100A2000A1E0383211F0323291F48481282F30E085
:100A3000207630702032310539F02034310531F024
:100A4000232B29F4487F03C04C7F01C04E7F9A01BD
:100A50002F70307080E892E0289FB001299F700DC0
:100A6000389F700D1124AA2311F460507E4F9A0113
:100A7000F4E036952795FA95E1F7AB01452F552718
:100A800046954695C90173E0880F991F7A95E1F75D
:100A9000220F331F820F931F480F591FAA2319F0EB
:100AA000509541955F4FCA018A5D9D4F895097408F
:100AB00010F040ED57E0CA010895FF920F931F9385
:100AC000CF93DF93EC01162F042FF22E0E94C50B5B
:100AD0000E94BC0B882311F481E013C08EE4BE0198
:100AE0000E949F0C812F0E94000C802F0E94000CFE
:100AF0006881683211F0623219F48F2D0E94000C67
:100B000080E0DF91CF911F910F91FF900895262FE4
:100B10002F6160E040E00E945D050895EF92FF9232
:100B20000F931F93CF93DF939C01062FF72EE42E94
:100B30008EEBB9010E949F0C202F3F2DC901EC01C3
:100B400010E004C00E94270C89931F5F1E15D0F38C
:100B5000802F9F2D69E070E00E949C0B811183E043
:100B6000DF91CF911F910F91FF90EF900895CF9259
:100B7000DF92EF92FF920F931F93DF93CF93CDB746
:100B8000DEB729970FB6F894DEBF0FBECDBF8C013C
:100B90006B010E94C50BC801BE016F5F7F4F49E02A
:100BA0000E948E05E82E882309F065C0F801308187
:100BB0009A8180E02981022F10E0082B192B303117
:100BC00071F4C8018E7F13E0880F991F1A95E1F721
:100BD0002F810CE010E0021B1109080F191F17FDEF
:100BE00002C0FF2405C0109501951F4FFF24F39408
:100BF000383211F0323289F48D8190E08076907035
:100C00008032910539F08034910531F0892B29F437
:100C1000087F03C00C7F01C00E7FB801B4E0769559
:100C20006795BA95E1F780E090E020E137E240E097
:100C300050E00E94BF230F70107021E732E0A9013D
:100C4000049F9001059F300D149F300D112440E04A
:100C500050E0260F371F481F591FFF2039F05095CD
:100C60004095309521953F4F4F4F5F4FF6012083C0
:100C70003183428353838E2D29960FB6F894DEBFBD
:100C80000FBECDBFCF91DF911F910F91FF90EF90DD
:100C9000DF90CF900895CF92DF92EF92FF920F9363
:100CA0001F93DF93CF93CDB7DEB729970FB6F89494
:100CB000DEBF0FBECDBF082F6B0180E090E07E014C
:100CC0000894E11CF11CB70149E00E948E05182F21
:100CD000882339F4802FB7010E94F004F601918334
:100CE0008083812F29960FB6F894DEBF0FBECDBF4B
:100CF000CF91DF911F910F91FF90EF90DF90CF90F8
:100D00000895AF92BF92CF92DF92FF920F931F93FD
:100D1000DF93CF93CDB7DEB729970FB6F894DEBF38
:100D20000FBECDBF8C015B010E94C50BC8016E01D7
:100D30000894C11CD11CB60149E00E948E05F82E12
:100D4000882341F4F8018081B6010E94F004F50186
:100D5000918380838F2D29960FB6F894DEBF0FBE46
:100D6000CDBFCF91DF911F910F91FF90DF90CF907A
:100D7000BF90AF900895CF92DF92EF92FF920F93C2
:100D80001F93DF93CF93CDB7DEB727970FB6F894B5
:100D9000DEBF0FBECDBF7B01473008F454C02CEF3F
:100DA000893192070CF44FC0E7E280319E070CF0C6
:100DB0004AC097FD02C000E004C0909581959F4F06
:100DC00001E06E010894C11CD11C10E06AE070E0E3
:100DD0000E94DE239B01805DF60181936F011F5FFE
:100DE000C9011216130694F3FE013196812F99273B
:100DF00087FD9095002351F0E80FF91F8DE2808365
:100E000090E09E012F5F3F4F4EE204C0E80FF91FB4
:100E10008BE2F5CFF701E90FF11DD901A10FB11D4B
:100E20008C9180839F5F115031F4F701E90FF11D20
:100E300040839F5FEFCF1F3F69F7E90EF11CF70179
:100E4000108280E001C081E027960FB6F894DEBFE3
:100E50000FBECDBFCF91DF911F910F91FF90EF900B
:100E6000DF90CF90089581E00E94FB0B90E08823F3
:100E700009F491E0892F08950F931F938C010E942C
:100E8000C50B84EBB8010E949F0C81E00E94FB0B14
:100E9000182F0E94C50B111111E0812F1F910F9186
:100EA00008951F93CF93DF93182FEB010E94C50B7A
:100EB0000E94BC0B882311F482E00CC0113029F091
:100EC00084E4BE010E94A30C04C084E4BE010E941D
:100ED0009F0C80E0DF91CF911F9108950F931F9396
:100EE000CF93DF938C01EB01F8018081BE010E945A
:100EF0002B0CF801808381508D3F10F081E008C0F9
:100F00008881883221F0803111F0823269F780E0E7
:100F1000DF91CF911F910F910895AF92BF92CF9221
:100F2000DF92EF92FF920F931F939C018130910506
:100F300059F40F2EF0E0AF2EF0E0BF2EF0E2CF2EEE
:100F4000F1E4DF2EF02D26C08230910559F40F2EEA
:100F5000F3E3AF2EF3E3BF2EFBE1CF2EF1E4DF2E60
:100F6000F02D18C08330910559F40F2EF6E6AF2E00
:100F7000F6E6BF2EF6EDCF2EF0E4DF2EF02D0AC000
:100F80000F2EF0E0AF2EF0E0BF2EF0EACF2EF0E40F
:100F9000DF2EF02DB901882777FD8095982F0E94CC
:100FA000282120E030E040EA5BE30E94B6227B018A
:100FB0008C0160E070E080EA90E4A80197010E9453
:100FC000911FA80197010E945C20A60195010E9433
:100FD000B6221F910F91FF90EF90DF90CF90BF90BE
:100FE000AF9008959C016C33710541F484319105F3
:100FF000E9F4E0E070E080E86FE33FC06C34710535
:1010000094F0B901882777FD8095982F0E942821B8
:1010100020EB33E047E65CEB0E94B62222E739EF93
:1010200047EC5FE326C06333710594F0B90188276C
:1010300077FD8095982F0E94282128E338EF42E41D
:101040005CEB0E94B62225EA3DEB49EA5FE311C062
:10105000B901882777FD8095982F0E94282125E5E2
:1010600031EC48E25CEB0E94B62223E23AE443E929
:101070005FE30E94921FE62F692F2E2F372F482FF4
:10108000562FB901CA010895BF92CF92DF92EF9215
:10109000FF920F931F93CF93DF93B82E0F2EF0E0A4
:1010A000EF2EF0E0FF2EF0E00F2FF0E01F2FF02DDD
:1010B000C0E0D0E088ECC82ED12C8B2D0E941C0AF9
:1010C0000E948D079B01AC01C801B7010E94921FCD
:1010D0007B018C0184EF91E0F6013197F1F70197E4
:1010E000D9F72196CA30D10541F7C801B70120E0F0
:1010F00030E040E251E40E945C20DF91CF911F91EB
:101100000F91FF90EF90DF90CF90BF90089583E014
:1011100090E00E94440886E696E6A6EDB0E480934F
:10112000EC049093ED04A093EE04B093EF040895C3
:1011300082E090E00E94440883E393E3ABE1B1E4F2
:101140008093E8049093E904A093EA04B093EB043D
:10115000089581E090E00E9444082BE63DE64DE0D2
:101160005FE30E945C206093E4047093E504809345
:10117000E6049093E704089580E090E00E9444081C
:101180002EEA37E44DE151E40E945C206093E004D4
:101190007093E1048093E2049093E304089580E166
:1011A00097E228EC30E0F9013197F1F70197D9F790
:1011B0000E94BC080E94A9080E9498080E94870803
:1011C0000895009769F480E090E00E94440820911F
:1011D000E0043091E1044091E2045091E30433C013
:1011E0008130910569F481E090E00E9444082091EB
:1011F000E4043091E5044091E6045091E70423C0F3
:101200008230910569F482E090E00E9444082091C8
:10121000E8043091E9044091EA045091EB0413C0D2
:10122000039729F0E0E070E080E060E010C083E028
:1012300090E00E9444082091EC043091ED0440912C
:10124000EE045091EF040E945C20E62F692F2E2FB0
:10125000372F482F562FB901CA0108958F929F92B8
:10126000AF92BF92CF92DF92EF92FF920F931F93B4
:101270004B015C0169017A01C8010E94E1080E94EA
:101280004322A70196010E94911FA50194010E948B
:101290005C200E94C9201F910F91FF90EF90DF907A
:1012A000CF90BF90AF909F908F9008950F931F9312
:1012B0006EE77CE889ED9EE325E236E041E65FEBF0
:1012C00003E010E00E942E090E94FA209B01AC016D
:1012D000CA011F910F9108950F931F9369ED7DE34C
:1012E00089ED9EE323E536E941E75FEB02E010E09C
:1012F0000E942E090E94FA209B01AC01CA011F9195
:101300000F9108950F931F936DE37AE087ED9EEBA5
:101310002FE832EC45EF5FE301E010E00E942E0978
:101320000E94FA209B01AC01CA011F910F91089500
:101330000F931F9361E674E582EF9EEB2CE437E395
:1013400045E450E400E010E00E942E090E94FA20DB
:101350009B01AC01CA011F910F9108950F931F9338
:101360006FE872EC85EF9EEB21EE3AE744E550E43E
:1013700000E010E00E942E090E94FA209B01AC01BF
:10138000CA011F910F9108950F931F936DE37AE0A7
:1013900087ED9EEB2CE53FE842E650E400E010E0EC
:1013A0000E942E090E94FA209B01AC01CA011F91E4
:1013B0000F9108950F931F936CE57FE882EC9EEBED
:1013C00024EA30E74DE450E400E010E00E942E09EA
:1013D0000E94FA209B01AC01CA011F910F91089550
:1013E0000F931F9366E676E686EE9EEB2DEC3CECC3
:1013F0004CE350E400E010E00E942E090E94FA2025
:101400009B01AC01CA011F910F910895806487B9B7
:101410008AE18A95F1F7369A349BFECF349A24B14B
:1014200035B1C901089580E487B986E886B910BC52
:1014300080E00E94060A08950E94060A0895AF926D
:10144000BF92CF92DF92EF92FF920F931F93790199
:101450008A010E9428215B016C01C801B7010E942A
:1014600028219B01AC01C601B5010E945C207B01D3
:101470008C012AE534E64BE150E40E945820882391
:10148000FCF4C801B70127EC3BE447EB5EE30E94A4
:10149000FD211816ACF4C801B7012EED37E341E386
:1014A00050EC0E9419239B01AC01CA01B90122E44E
:1014B00034E349EE52E40E94B622E62F692F04C0BD
:1014C000E0E070E080E060E02E2F372F482F562FAD
:1014D000B901CA011F910F91FF90EF90DF90CF905B
:1014E000BF90AF900895AF92BF92CF92DF92EF92EC
:1014F000FF920F931F935B016C0162E474E389EE2A
:1015000092E40E945C200E9443222EED37E341E3E7
:1015100050EC0E945C200E94C9207B018C01C60116
:10152000B5010E942821A80197010E94B6220E94BD
:10153000F5209B01AC01CA011F910F91FF90EF9024
:10154000DF90CF90BF90AF900895AF92BF92CF92AF
:10155000DF92EF92FF920F931F937C016FEF73E086
:10156000681B790B882777FD8095982F0E9428218A
:1015700020E030E040EA50E40E94B6225B016C01BA
:101580000027F7FC0095102FC801B7010E94282101
:101590009B01AC01C601B5010E945C201F910F9117
:1015A000FF90EF90DF90CF90BF90AF9008950F9392
:1015B0001F938A010E944322F801248135814681CC
:1015C00057810E94911FF8012085318542855385FE
:1015D0000E945C20F80120813181428153810E9468
:1015E000921F9B01AC0160E070E080E291E40E94F8
:1015F00019239B01AC01CA01B9010E94F520CB015E
:101600001F910F9108954115510519F440EF54E0D1
:1016100008C04130510519F020E030E005C04CEF22
:1016200054E00E94D70A9C01C9010895CF92DF922D
:10163000EF92FF920F931F93CF93DF93C0E0D0E020
:101640000F2EF0E0EF2EF0E0FF2EF0E00F2FF0E095
:101650001F2FF02D88ECC82ED12C80E00E941C0A90
:101660000E94A50A9B01AC01C801B7010E94921F0C
:101670007B018C0184EF91E0F6013197F1F701973E
:10168000D9F72196CA30D10541F7C801B70120E04A
:1016900030E040E251E40E945C20DF91CF911F9145
:1016A0000F91FF90EF90DF90CF900895CF92DF924F
:1016B000EF92FF920F931F93CF93DF93C0E0D0E0A0
:1016C0000F2EF0E0EF2EF0E0FF2EF0E00F2FF0E015
:1016D0001F2FF02D98ECC92ED12C80E00E941C0AFF
:1016E0000E94A50A9B01AC01C801B7010E94921F8C
:1016F0007B018C0188E893E1F6013197F1F70197BE
:10170000D9F72196C233D10541F7C801B70120E0CE
:1017100030E048E452E40E945C202EEA37E44DE1D8
:1017200051E40E945C20DF91CF911F910F91FF90B7
:10173000EF90DF90CF900895DC0120E040E050E092
:1017400098E115C0FD01E40FF51FE08138E08E2F10
:101750008227F82FF17080FD29272695F13009F4B2
:101760002068315011F0E695F2CF4F5F5F4F46177A
:10177000570741F7822F089586B380780895C79A56
:10178000BF9A0895BF98C7980895C798BF9A80ECEC
:1017900093E00197F1F78FB7F894BF989AEA9A957A
:1017A000F1F726B38FBF80E493E00197F1F7B79983
:1017B00002C081E00895822F80780895282F3FB7D6
:1017C000F894BF9A95E09A95F1F78111BF9892E24B
:1017D0009A95F1F786B3880F880B822392E79A9542
:1017E000F1F7BF98662311F0C79ABF9A3FBF9AE1FD
:1017F0009A95F1F70895817060E00E94DE0B0895DC
:101800000F931F93182F08E0812F81700E94FB0B0C
:101810001695811110680150B9F7812F1F910F9112
:1018200008950F931F93182F08E0812F81700130C6
:1018300011F060E001C061E00E94DE0B169581119D
:101840001068015091F7812F1F910F9108958FEF2C
:101850000E94000C0895DF92EF92FF920F931F9366
:10186000CF93DF93E82EEB010E94C50B8823A1F5EF
:1018700080EF0E94000C80E4FF24182F98EFD92EEF
:10188000D80E81E00E94FB0B082F81E00E94FB0B29
:10189000882329F0002371F08EEFF82E1FC000235B
:1018A00049F41E1528F0888180FF04C0E11611F06C
:1018B000F12E01E0802F0E94FB0B888186958883A2
:1018C000002311F08068888311501D15D1F6112373
:1018D00029F02196812FD1CFFF24FA948F2DDF910B
:1018E000CF911F910F91FF90EF90DF900895FF929D
:1018F0000F931F93CF93DF93082FEB01F42E0E94D9
:10190000C50B209751F085E50E94000C18E08991E5
:101910000E94000C1150D9F703C08CEC0E94000CFF
:10192000FF2021F0802F0E94110C03C0802F0E9405
:10193000000CDF91CF911F910F91FF90089540E02F
:101940000E94770C089541E00E94770C08952F9231
:101950003F924F925F926F927F928F929F92AF923F
:10196000BF92CF92DF92EF92FF920F931F93DF937C
:10197000CF93CDB7DEB7CC54D0400FB6F894DEBFCE
:101980000FBECDBF16012B96BFAEAEAE2B972D96D8
:101990009FAE8EAE2D9769837A838B839C832D8334
:1019A0003E834F835887E986FA860B871C87DE01C2
:1019B0009596EEE2F5E084E201900D928150E1F718
:1019C000DE011D96E2E2F5E08CE001900D9281507F
:1019D000E1F769817A818B819C812D853E854F85D8
:1019E00058890E94911F69837A838B839C836D81C0
:1019F0007E818F81988529893A894B895C890E94EB
:101A0000911F6D837E838F83988769857A858B8507
:101A10009C852D893E894F89588D0E94911F3B01DD
:101A20004C0169877A878B879C87DE015996E6E1AE
:101A3000F5E08CE001900D928150E1F799E1A92E3B
:101A4000B12CAC0EBD1E85E2C82ED12CCC0EDD1EF5
:101A50002601F601608171818281938129813A8119
:101A60004B815C810E94B622F50120813181428147
:101A700053810E94921F7B018C01F6016481758164
:101A8000868197812D813E814F8158850E94B622A3
:101A90009B01AC01C801B7010E94921F7B018C0120
:101AA000C401B301F60120853185428553850E942A
:101AB000B6229B01AC01C801B7010E94921FF5013B
:101AC00061937193819391935F018CE090E0C80ED4
:101AD000D91EE415F50509F0BCCF8D8D9E8DAF8D17
:101AE000B8A1E9A0FAA00BA11CA1298D3A8D4B8DBC
:101AF0005C8DF10120833183428353832B96EEADBD
:101B0000FFAD2B9780839183A283B3832D96EEAD97
:101B1000FFAD2D97E082F18202831383C45BDF4F18
:101B20000FB6F894DEBF0FBECDBFCF91DF911F91EE
:101B30000F91FF90EF90DF90CF90BF90AF909F906C
:101B40008F907F906F905F904F903F902F9008956F
:101B50002F923F924F925F926F927F928F929F92BD
:101B6000AF92BF92CF92DF92EF92FF920F931F93AB
:101B7000CF93DF931B012C0139014A01E501CA0112
:101B8000B901A80197010E94052023E333E345E64C
:101B900052E40E94B622F6016083718382839383AC
:101BA000C401B301A40193010E94B6225B016C0140
:101BB000C801B701A80197010E94B6229B01AC01A0
:101BC000C601B5010E94921F0E9469239B01AC01CE
:101BD00057FA509457F85094C201B1010E94052061
:101BE00023E333E345E652E40E94B6226883798317
:101BF0008A839B83DF91CF911F910F91FF90EF908C
:101C0000DF90CF90BF90AF909F908F907F906F901C
:101C10005F904F903F902F9008958EB58C608EBD51
:101C200087B7806187BF8FE190E09BBD8ABD7894C4
:101C300008951F920F920FB60F9211248F939F93C6
:101C4000AF93BF938091520590915305A091540595
:101C5000B09155050196A11DB11D80935205909339
:101C60005305A0935405B0935505BF91AF919F9133
:101C70008F910F900FBE0F901F901895FC012FEFC2
:101C80003FEFA1E2B0E114C0908180E0282739271E
:101C900070E0A901440F551F37FF04C09A012A279D
:101CA0003B2701C09A017F5F783099F731966150E8
:101CB000662351F7C90108952F923F924F925F9288
:101CC0006F927F928F929F92AF92BF92CF92DF924C
:101CD000EF92FF920F931F93DF93CF9300D0CDB776
:101CE000DEB73C019A838983FB01C501B4012B8CCB
:101CF0003C8C4D8C5E8C80809180A280B380089457
:101D0000811C911CA11CB11C80829182A282B38291
:101D1000D3018D929D92AD92BC9213978090520503
:101D200090905305A0905405B0905505F30184821E
:101D30009582A682B782518740873387228715878D
:101D400004871E96CD92DD92ED92FC92519720E091
:101D500030E048EC52E40E94B6220E94FA20F301DF
:101D6000628B738B848B958B6F89788D898D9A8D1F
:101D700020E030E040E251E40E94921F0E94FA20ED
:101D8000D30157967C936E93569780E492E4AFE02C
:101D9000B0E0280E391E4A1E5B1ED30158962D92C4
:101DA0003D924D925C925B978F8D98A15D969C932E
:101DB0008E935C9789A19AA15F969C938E935E9770
:101DC0008BA19CA191969C938E9390978DA19EA19F
:101DD00093969C938E9392978FA198A595969C939A
:101DE0008E93949789A59AA597969C938E93969790
:101DF0008BA59CA599969C938E9398978DA59EA54F
:101E00009B969C938E939A97CE0101966AE20E94CC
:101E10003E0EF30195A784A7E981FA8117A616A6BD
:101E20000F900F90CF91DF911F910F91FF90EF9046
:101E3000DF90CF90BF90AF909F908F907F906F90EA
:101E40005F904F903F902F9008956CE20E94AF1DDD
:101E50000895DF92EF92FF920F931F937A018B0107
:101E60006EE270E00E94101DD82ED801C7018F705D
:101E70009070A070B0700097A105B105A1F40E9408
:101E8000521D24E016950795F794E7942A95D1F70B
:101E900099E0EE0CFF1C001F111F9A95D1F7C801A5
:101EA000B7010E94DF1C8D2D1F910F91FF90EF90C5
:101EB000DF900895CF92DF92EF92FF920F931F93DE
:101EC000DF93CF9300D000D000D0CDB7DEB78C0128
:101ED0007B016A0180915C0562E346E09E012F5F11
:101EE0003F4F0E9409169A8180E0298130E0822BC1
:101EF000932BF801918380839C8180E02B8130E0DB
:101F0000822B932BF701918380839E8180E02D812A
:101F100030E0822B932BF6019183808326960FB6B7
:101F2000F894DEBF0FBECDBFCF91DF911F910F910F
:101F3000FF90EF90DF90CF900895CF92DF92EF92D5
:101F4000FF920F931F93DF93CF9300D000D000D068
:101F5000CDB7DEB78C017B016A01CE010196BE01CF
:101F60006D5F7F4FAE014B5F5F4F0E945A0F6981DB
:101F70007A81882777FD8095982F0E9428212DEC63
:101F80003CEC4CE15DE30E94B622F8016083718372
:101F9000828393836B817C81882777FD8095982F3E
:101FA0000E9428212DEC3CEC4CE15DE30E94B6221E
:101FB000F70160837183828393836D817E8188279B
:101FC00077FD8095982F0E9428212DEC3CEC4CE168
:101FD0005DE30E94B622F60160837183828393835E
:101FE00026960FB6F894DEBF0FBECDBFCF91DF911E
:101FF0001F910F91FF90EF90DF90CF900895DF93A6
:10200000CF930F92CDB7DEB7198280915C0560E067
:1020100041E09E012F5F3F4F0E94091690E08981A9
:10202000853E09F491E0892F0F90CF91DF910895BB
:1020300080915C056DE248E00E94E1150895809171
:102040005C0561E34BE00E94E115089580935C0517
:102050000E94FF0F882399F080915C056CE248E0B4
:102060000E94E11580915C0561E34BE00E94E1155F
:1020700080915C056DE248E00E94E11581E00895E1
:10208000FC01608171818281938120E836EE45EC0C
:1020900057E40E945C2022E63BED42E45EE30E94AE
:1020A00019239B01AC0160E070E080E89FE30E948F
:1020B000911F20E03AE24DE257E40E94B6220895D3
:1020C000DF93CF9300D00F92CDB7DEB7682F80910A
:1020D000670543E09E012F5F3F4F0E94091629814B
:1020E00030E040E050E0542F432F322F22278A81E6
:1020F00090E0A0E0B0E0282B392B4A2B5B2B542F2B
:10210000432F322F22278B8190E0A0E0B0E0282BD4
:10211000392B4A2B5B2BB901CA010F900F900F90FE
:10212000CF91DF9108956F927F928F929F92AF929D
:10213000BF92CF92DF92EF92FF920F931F938AEF9D
:102140000E9460107B018C0160905F0570906005BB
:1021500088249924552717FD5A95412F302F2F2D6C
:102160002619370948095909CA01B9010E94BF2334
:102170002CE095958795779567952A95D1F72091CD
:10218000720530917305442737FD4095542F0E9406
:10219000BF235B016C01BEE0D594C794B794A794AC
:1021A000BA95D1F7A7E015950795F794E794AA9506
:1021B000D1F7660C771C881C991CE618F7080809EB
:1021C00019092091610530916205442737FD40953A
:1021D000542FC801B7010E94BF23EBE09595879566
:1021E00077956795EA95D1F7A60EB71EC81ED91E3A
:1021F000A0927605B0927705C0927805D0927905C5
:10220000A601950172E0220F331F441F551F7A95D6
:10221000D1F72A0D3B1D4C1D5D1D20583F4F4F4FE0
:102220005F4F232F342F452F552747FD5A95B9016E
:10223000CA011F910F91FF90EF90DF90CF90BF9058
:10224000AF909F908F907F906F9008952F923F92C4
:102250004F925F926F927F928F929F92AF92BF92B6
:10226000CF92DF92EF92FF920F931F93DF93CF9362
:10227000CDB7DEB728970FB6F894DEBF0FBECDBF3F
:102280008C017E836D830E949310F80160837183BB
:102290008283938387EF0E946010A62ED72EC82ECC
:1022A000B92E6091760570917705809178059091AF
:1022B00079050E94282120E030E040E05FE30E94A1
:1022C000B62220E030E04AE757E40E94911F3B012C
:1022D0004C01209174053091750538872F838091CA
:1022E0006805909169059C838B83E0916505F09169
:1022F0006605FA83E98360916C0570916D05882706
:1023000077FD8095982F0E942821A40193010E94B7
:10231000B622A40193010E94B62220E030E040E002
:1023200056E30E94B6227B018C0160916305709197
:102330006405882777FD8095982F0E942821A401A5
:1023400093010E94B6229B01AC01C801B7010E9413
:10235000921F20E030E040E056E30E94B62220E0E9
:1023600030E040E058E30E94B62220E030E040E850
:102370005FE30E94921F7B018C0160916A0570915E
:102380006B0580E090E00E9426219B01AC01C80112
:10239000B7010E94B6221B012C0120E030E040E092
:1023A00050E00E945820882359F480E090E0A0E09B
:1023B000B0E0ED81FE8180839183A283B383E0C08E
:1023C000EA2CFD2C0C2D1B2DC401B301A40193019B
:1023D0000E94B6225B016C012F813885B9018827E4
:1023E00077FD8095982F0E9428219B01AC01C601A2
:1023F000B5010E94B62220E030E040E058E30E94A0
:10240000B6225B016C01EB81FC81BF01882777FD5F
:102410008095982F0E9428219B01AC01C401B30133
:102420000E94B6229B01AC010E94921F9B01AC014D
:10243000C601B5010E94921F20E030E040E85EE353
:102440000E94B6225B016C0144E015950795F79454
:10245000E7944A95D1F7C801B7010E9428219B0152
:10246000AC0160E070E080E899E40E94911F7B017C
:102470008C0129813A81B901882777FD8095982FB1
:102480000E94282120E030E040E857E40E94B62274
:102490009B01AC01C601B5010E94921F20E030E013
:1024A00040E859EB0E94B6229B01AC01C801B7017C
:1024B0000E94921F20E030E543EC55E40E94B622D2
:1024C000A20191010E945C205B016C01609170058A
:1024D00070917105882777FD8095982F0E9428219B
:1024E000A60195010E94B622A60195010E94B6227E
:1024F00020E030E040E050E30E94B6227B018C01F6
:1025000060916E0570916F05882777FD8095982FF3
:102510000E9428219B01AC01C601B5010E94B62290
:1025200020E030E040E058E30E94B6229B01AC017D
:10253000C801B7010E94921F7B018C0160915D056B
:1025400070915E05882777FD8095982F0E9428213D
:102550009B01AC01C801B7010E94921F20E030E04E
:1025600040E85DE30E94B6229B01AC01C601B501C3
:102570000E94921FED81FE81608371838283938329
:1025800028960FB6F894DEBF0FBECDBFCF91DF9176
:102590001F910F91FF90EF90DF90CF90BF90AF9081
:1025A0009F908F907F906F905F904F903F902F9073
:1025B00008952F923F924F925F926F927F928F92E7
:1025C0009F92AF92BF92CF92DF92EF92FF920F93C2
:1025D0001F93DF93CF93CDB7DEB72A970FB6F8944A
:1025E000DEBF0FBECDBF0E94931087EF0E94601028
:1025F0006D837E838F8398876090760570907705D2
:102600008090780590907905959487947794679455
:1026100080E096E0AFEFBFEF680E791E8A1E9B1E2A
:10262000A401930162E055954795379527956A95E2
:10263000D1F7CA01B9010E94BF235B016C01A091CF
:102640007405B0917505BA87A987E0916805F09186
:102650006905FC83EB8320916505309166053A831B
:1026600029834DE095958795779567954A95D1F79C
:1026700020916C0530916D05442737FD4095542F0E
:102680000E94BF237B018C0133E015950795F794D9
:10269000E7943A95D1F7209163053091640544277A
:1026A00037FD4095542FC401B3010E94BF23959577
:1026B000879577956795E60EF71E081F191FB2E1FB
:1026C00015950795F794E794BA95D1F780E090E8CF
:1026D000A0E0B0E0E80EF91E0A1F1B1F20916A055A
:1026E00030916B0540E050E0C801B7010E94BF2364
:1026F0001B012C01AFE05594479437942794AA9579
:10270000D1F7211431044104510421F4AA24BB243B
:102710006501DFC0ED80FE800F811885C601B5011F
:10272000FBE09595879577956795FA95D1F7A985FB
:10273000BA859D01442737FD4095542F0E94BF2341
:102740005B016C01EB81FC819F01442737FD4095C3
:10275000542FC401B3010E94BF23660F771F881F47
:10276000991FA60EB71EC81ED91E62E0D594C79445
:10277000B794A7946A95D1F754E015950795F79407
:10278000E7945A95D1F710950095F094E094E11CE8
:10279000F11C011D111D29813A81C901AA2797FD4C
:1027A000A095BA2FDC0199278827A80EB91ECA1E4A
:1027B000DB1E3CE0D594C794B794A7943A95D1F723
:1027C000EA18FB080C091D09C801B70125E33CE024
:1027D00040E050E00E94BF2360507040804B9C431B
:1027E00097FD0DC0660F771F881F991FA2019101E9
:1027F0000E94F123C901DA013C014D010CC0A20184
:1028000091010E94F123C901DA013C014D01660CDE
:10281000771C881C991C8401730183E01695079529
:10282000F794E7948A95D1F7C401B301B2E0969585
:10283000879577956795BA95D1F720916E05309178
:102840006F05442737FD4095542F0E94BF235B013D
:102850006C01ADE0D594C794B794A794AA95D1F72D
:1028600080915D0590915E05AA2797FDA095BA2FEE
:10287000A80EB91ECA1EDB1EC801B701A801970128
:102880000E94BF23FDE09695879577956795FA9509
:10289000D1F72091700530917105442737FD40959F
:1028A000542F0E94BF23ECE0959587957795679507
:1028B000EA95D1F7A60EB71EC81ED91E54E0D594CE
:1028C000C794B794A7945A95D1F7A60CB71CC81C07
:1028D000D91CB501C6012A960FB6F894DEBF0FBE0B
:1028E000CDBFCF91DF911F910F91FF90EF90DF90BF
:1028F000CF90BF90AF909F908F907F906F905F90A0
:102900004F903F902F900895DF93CF9300D0CDB795
:10291000DEB7682F8091670542E09E012F5F3F4F31
:102920000E940916998180E02A8130E0282B392BFA
:10293000C9010F900F90CF91DF9108950E948414E8
:10294000282F892F922F08950E949E14089588E8B9
:102950000E949E149093600580935F058AE80E9410
:102960009E1490936205809361058CE80E949E14EA
:1029700090937305809372058EE80E949E14909345
:102980006B0580936A0580E90E949E14909364050C
:102990008093630582E90E949E1490936D05809355
:1029A0006C0584E90E949E149093660580936505EA
:1029B00086E90E949E14909369058093680588E9D2
:1029C0000E949E1490937505809374058AE90E9475
:1029D0009E1490935E0580935D058CE90E949E1481
:1029E00090936F0580936E058EE90E949E149093DC
:1029F0007105809370050895DF93CF930F92CDB743
:102A0000DEB7682F8091670541E09E012F5F3F4F41
:102A10000E94091689810F90CF91DF910895982F18
:102A2000462F80916705692F0E94E1150895EF9266
:102A3000FF920F931F93CF93DF938C01EB017A01E9
:102A40008091670564EF45E50E94E11588EB91E010
:102A500028EC30E0F9013197F1F70197D9F7C80177
:102A6000BE010E942611CE010E944010F701608332
:102A700071838283938381E0DF91CF911F910F91C6
:102A8000FF90EF9008950F931F93DF93CF930F92D2
:102A9000CDB7DEB78093670560ED41E08E010F5F33
:102AA0001F4F98010E9409168981883511F080E036
:102AB00010C00E94A7148091670565EF48E60E9448
:102AC000E1158091670565EF41E098010E940916C4
:102AD00081E00F90CF91DF911F910F9108959A019E
:102AE000AB01A0E0B0E0BC01CD010E94F123205178
:102AF0003040404050405695479537952795209354
:102B0000700010927100E4E7F0E0808184608083BF
:102B10000895E4E7F0E080818B7F8083089584EA64
:102B2000809374008091740087FFFCCF089584E93E
:102B3000809374008091740084FDFCCF089580938D
:102B4000730084E8809374008091740087FFFCCF49
:102B500080917100887F883159F080917100887F61
:102B6000883231F08091710090E0887F803409F4E0
:102B700091E0892F0895FC01662321F08091740073
:102B8000806403C0809174008F7B80937400809177
:102B900074008068809374008091740087FFFCCF7C
:102BA00080917100887F883539F080917100887F2D
:102BB000803511F080E0089580917300808381E07A
:102BC00008950F931F93982F162F042F84EA809354
:102BD00074008091740087FFFCCF892F880F0E94BA
:102BE0009F15812F0E949F15802F0E949F1580E2C4
:102BF0009EE40197F1F784E980937400809174005A
:102C000084FDFCCF80EE9EE20197F1F71F910F91BA
:102C10000895DF92EF92FF920F931F93CF93DF936C
:102C2000982F062FD42E790184EA80937400809126
:102C3000740087FFFCCF192F110F812F0E949F1561
:102C4000802F0E949F1584EA809374008091740005
:102C500087FFFCCF812F8F5F0E949F15E70105C082
:102C6000CE0161E00E94BB1521969E012E192D1503
:102C7000B8F3DF91CF911F910F91FF90EF90DF900C
:102C80000895CF93DF93DC018DB79EB742970FB6BF
:102C9000F8949EBF0FBE8DBFEDB7FEB7319680E0B2
:102CA00091E0CDB7DEB79A8389838C9182831382BA
:102CB00011968C9111978483158212968C9112979C
:102CC0008683178213968C911397808711861496AA
:102CD0008C9114978287138615968C91159784870B
:102CE000158616968C9116978687178617968C915F
:102CF000808B118A0E94EC1E8DB79EB742960FB64C
:102D0000F8949EBF0FBE8DBFDF91CF9108958DE1E6
:102D10000E942610813021F400D089E291E003C0A6
:102D200000D086E391E0EDB7FEB7928381830E94E5
:102D3000EC1E0F900F9008952F923F924F925F924A
:102D40006F927F928F929F92AF92BF92CF92DF92BB
:102D5000EF92FF920F931F93DF93CF93CDB7DEB720
:102D6000C75AD0400FB6F894DEBF0FBECDBF18864D
:102D700019861A861B8680E090E0A0E0B0E08CA364
:102D80009DA3AEA3BFA388A799A7AAA7BBA70E948C
:102D90000D0E88E095E0909385058093840580E88A
:102DA00095E20E948D1D80E092E140EA56E861E0E4
:102DB00070E00E946F150E9487160E94130A87E434
:102DC00091E00E94FE1E0E94CF088FE491E00E94D5
:102DD000FE1E00D000D000D08CE591E0ADB7BEB7AC
:102DE00012969C938E9311978091E8049091E90438
:102DF000A091EA04B091EB04EDB7FEB7838394830E
:102E0000A583B6830E94EC1E2DB73EB72A5F3F4FC5
:102E10000FB6F8943EBF0FBE2DBF0E94B71B88238C
:102E2000E1F785E691E00E94FE1E60E070E080E040
:102E300090E00E94DF1C82E791E00E94FE1E87E77F
:102E40000E944315813009F05CC083E891E00E9444
:102E5000FE1E88E991E00E94FE1E84EB91E00E9434
:102E6000FE1E80EE91E00E94FE1E0E94C50B8FEFB9
:102E7000898310E0FCE3EF2EF12CEC0EFD1E6E01B9
:102E80000894C11CD11C21C0C601B7010E946E0765
:102E900089818F3F19F489EF91E004C08E3F29F4B6
:102EA00089E092E00E94FE1E16C020E030E0F901A9
:102EB000E658FA4FD701A20FB31F8C9180832F5F82
:102EC0003F4F11E02830310591F78981882319F0AF
:102ED0001123D1F211E000D000D0EDB7FEB731964A
:102EE00083E192E0ADB7BEB712969C938E93119793
:102EF000128313820E94EC1E0F900F900F900F9080
:102F000020C084E392E00E94FE1E80E090E0C9555C
:102F1000DF4F0FB6F894DEBF0FBECDBFCF91DF916C
:102F20001F910F91FF90EF90DF90CF90BF90AF90E7
:102F30009F908F907F906F905F904F903F902F90D9
:102F400008958DE492E00E94FE1ECE010C96BE0113
:102F5000605F7F4FAE014C5E5F4F0E949D0FCE01C0
:102F60000296BE016C5F7F4FAE014A5F5F4F0E94C9
:102F70005A0F8C859D85AE85BF85C056DF4F8883EF
:102F80009983AA83BB83C05AD040BC01CD019B0169
:102F9000AC010E94B6221B012C0188899989AA895B
:102FA000BB89C456DF4F88839983AA83BB83CC59DE
:102FB000D040BC01CD019B01AC010E94B6223B0177
:102FC0004C01EC88FD880E891F89C801B701A80152
:102FD00097010E94B6225B016C01C201B101A401FC
:102FE00093010E94921FA60195010E94921F0E94C8
:102FF0006923C057DF4F688379838A839B83C059D5
:10300000D040C056DF4F688179818A819B81C05A48
:10301000D040C456DF4F288139814A815B81CC5929
:10302000D040E8E1CE2ED12CCC0EDD1EBCE1AB2E83
:10303000B12CAC0EBD1EA0E28A2E912C8C0E9D1ED2
:103040000E94A70C888D998DAA8DBB8DC856DF4F25
:1030500088839983AA83BB83C859D040BC01CD0122
:103060009B01AC010E94B6221B012C018C8D9D8D11
:10307000AE8DBF8DCC56DF4F88839983AA83BB83E7
:10308000C459D040BC01CD019B01AC010E94B622C5
:103090003B014C01E8A0F9A00AA11BA1C801B7019E
:1030A000A80197010E94B6225B016C01C201B10127
:1030B000A40193010E94921FA60195010E94921FF4
:1030C0000E9469233B014C01C856DF4F688179811A
:1030D0008A819B81C859D040CC56DF4F28813981E5
:1030E0004A815B81C459D040F4E2CF2ED12CCC0E62
:1030F000DD1EE8E2AE2EB12CAC0EBD1E0E94A80D66
:10310000ADB7BEB752970FB6F894BEBF0FBEADBFF6
:10311000EDB7FEB7319623E832E012963C932E933A
:1031200011978C859D85AE85BF8582839383A4830B
:10313000B58388899989AA89BB8986839783A08763
:10314000B1878C899D89AE89BF8982879387A4873F
:10315000B587C057DF4F88819981AA81BB81C0594B
:10316000D04086879787A08BB18B0E94EC1EADB7AD
:10317000BEB71A960FB6F894BEBF0FBEADBFEDB77F
:10318000FEB7319620EB32E012963C932E931197C6
:103190008A819B81938382838C819D8195838483A3
:1031A0008E819F81978386830E94EC1E8DB79EB788
:1031B0000A970FB6F8949EBF0FBE8DBFEDB7FEB74E
:1031C000319625ED32E0ADB7BEB712963C932E9303
:1031D0001197888D998DAA8DBB8D82839383A4834B
:1031E000B5838C8D9D8DAE8DBF8D86839783A08793
:1031F000B18788A199A1AAA1BBA182879387A4873F
:10320000B58766867786808A918A0E94EC1E8DB784
:103210009EB708960FB6F8949EBF0FBE8DBFEDB750
:10322000FEB731962FEF32E0ADB7BEB712963C93A2
:103230002E9311978CA19DA1AEA1BFA182839383F0
:10324000A483B58388A599A5AAA5BBA586839783E2
:10325000A087B1870E94EC1E8DB79EB70A960FB665
:10326000F8949EBF0FBE8DBF87E193E00E94FE1EC3
:10327000CE018C96BE01605D7F4FAE014C5C5F4F0E
:103280000E941715813099F5ADB7BEB71E970FB6DE
:10329000F894BEBF0FBEADBFEDB7FEB7319629E4BF
:1032A00033E012963C932E9311978CA59DA5AEA565
:1032B000BFA582839383A483B58388A999A9AAA96A
:1032C000BBA986839783A087B1878CA99DA9AEA946
:1032D000BFA982879387A487B5870E94EC1E8DB70C
:1032E0009EB70E960FB6F8949EBF0FBE8DBF80EDB1
:1032F0000E94FC1400D000D0EDB7FEB731962FE647
:1033000033E0ADB7BEB712963C932E9311978283EC
:1033100013820E94EC1E0F900F900F900F908CE77D
:1033200093E00E94FE1E8AE795E00E9441168AE71C
:1033300095E060E20E94870581E06AE775E00E94FF
:103340005107882309F03EC08EE497E028EC30E076
:10335000F9013197F1F70197D9F78AE795E0BE01B6
:10336000685C7F4F0E94B705882361F500D000D0CC
:1033700000D00DB71EB70F5F1F4FEEEAF3E0ADB7F9
:10338000BEB71296FC93EE93119768AD79AD8AADF6
:103390009BAD0E94282127E137EB41ED58E30E94C5
:1033A000B622D80112966D937D938D939C931597B9
:1033B0000E94EC1EEDB7FEB736960FB6F894FEBF2E
:1033C0000FBEEDBF82EC93E00E94FE1E0E94F0094A
:1033D000C457DF4F688379838A839B83CC58D0405E
:1033E0000E94DA09C857DF4F688379838A839B83F9
:1033F000C858D0400E94C409CC57DF4F68837983F6
:103400008A839B83C458D0400E94AE09C058DF4FC6
:10341000688379838A839B83C058D0400E9498092F
:10342000C458DF4F688379838A839B83CC57D0400D
:103430000E948209EC966CAF7DAF8EAF9FAFEC9788
:1034400084E190E00E946C09E8966CAF7DAF8EAF8E
:103450009FAFE89784E190E00E9456092B013C0160
:1034600082E090E00E9444087B018C0183E090E0C0
:103470000E9444085B016C0100D000D000D0E4EF52
:10348000F3E0ADB7BEB71296FC93EE931197E896B2
:103490008CAD9DADAEADBFADE897EDB7FEB7838304
:1034A0009483A583B6830E94EC1EE5E0F4E0ADB7FB
:1034B000BEB71296FC93EE93119713964D925D92C0
:1034C0006D927C9216970E94EC1E26E134E0EDB7D7
:1034D000FEB732832183ADB7BEB71396ED92FD924E
:1034E0000D931C9316970E94EC1E2AE234E0EDB770
:1034F000FEB732832183ADB7BEB71396AD92BD92AE
:10350000CD92DC9216970E94EC1E2EE334E0EDB7CC
:10351000FEB7328321838091520590915305A0918B
:103520005405B091550583839483A583B6830E9487
:10353000EC1E2DB73EB7225130400FB6F8943EBF77
:103540000FBE2DBF6DB77EB76F5F7F4F4A815B8126
:103550002C813D810E811F81CCA4DDA4EEA4FFA4AB
:1035600088A899A8AAA8BBA88CA99DA9AEA9BFA9FB
:10357000EDB7FEB781839283A383B48388AD99AD01
:10358000AAADBBADFB0184839583A683B783C457E3
:10359000DF4F88819981CC58D04091878087C85768
:1035A000DF4FA881B981C858D040B387A287CC57D4
:1035B000DF4F88819981C458D04095878487C0584F
:1035C000DF4FA881B981C058D040B787A687EE9653
:1035D0008EAD9FADEE97918B808BEA96AEADBFAD71
:1035E000EA97B38BA28BE6968EAD9FADE697958B4F
:1035F000848B578A468ACE018C5B9F4FBE01685FE1
:103600007F4F0E945C0EADB7BEB752960FB6F894CE
:10361000BEBF0FBEADBFECE4F4E01296FC93EE9398
:10362000119788859985AA85BB85EDB7FEB78383F9
:103630009483A583B6830E94EC1E2DB73EB72A5F04
:103640003F4F0FB6F8943EBF0FBE2DBF488559853A
:103650006A857B85CE018C5B9F4F0E94290F882352
:1036600019F48EE594E002C089E694E00E94FE1E03
:103670008BE794E00E94FE1ECE018C5B9F4F0E9460
:10368000250F8DEA94E00E94FE1E80E197E228EC6F
:1036900030E0F9013197F1F70197D9F752CCDF9279
:1036A000EF92FF920F931F93D82E7A018B0187FF21
:1036B0000CC087E740E050E060E070E00E944F1BE4
:1036C000823008F04EC08FE7D822C09A8FEF8FB9B2
:1036D000779BFECF8FB1C0988FEF8FB9779BFECFCE
:1036E0008FB1DFB8779BFECF8FB1812F9927AA27A3
:1036F000BB278FB9779BFECF8FB1C801AA27BB2705
:103700008FB9779BFECF8FB1BB27A12F902F8F2D25
:103710008FB9779BFECF8FB1EFB8779BFECF8FB17C
:1037200080E4D81611F485E906C088E4D81611F4AF
:1037300087E801C081E08FB9779BFECF8FB18CE421
:10374000D81629F48FEF8FB9779BFECF8FB19AE00F
:103750002FEF2FB9779BFECF8FB187FF02C091501B
:10376000C1F71F910F91FF90EF90DF900895CF92D6
:10377000DF92EF92FF920F931F93DF93CF9300D0CE
:1037800000D0CDB7DEB787B3876087BBC39A6C9A8A
:10379000699A709A6E9AC09A8AE09FEF9FB9779B58
:1037A000FECF2FB18150D1F780E440E050E060E0DF
:1037B00070E00E944F1B813009F073C088E44AEA30
:1037C00051E060E070E00E944F1B8130B1F500E1F4
:1037D00017E2A8ECEA2EF12C06C0C7010197F1F719
:1037E0000150104049F089EE40E050E060E070E4A4
:1037F0000E944F1B882389F78AE740E050E060E091
:1038000070E00E944F1B90E080239123892B09F0E8
:1038100065C0FE0131969FEF9E012B5F3F4F9FB920
:10382000779BFECF8FB18193E217F307C1F78981B0
:1038300086FF2BC0FCE0FF2E2AC089EE40E050E05E
:1038400060E070E00E944F1B823028F0E1E4EE2E31
:10385000FF24F39404C079EEE72E62E0F62E00E137
:1038600017E258ECC52ED12C06C0C6010197F1F71E
:1038700001501040B1F08E2D40E050E060E070E06B
:103880000E944F1B882389F704C044E0F42E012BCB
:1038900041F080E540E052E060E070E00E944F1BA4
:1038A0008111FF24F0925705C09A8FEF8FB9779B53
:1038B000FECF8FB1FF2011F481E003C069987098AA
:1038C00080E00F900F900F900F90CF91DF911F919C
:1038D0000F91FF90EF90DF90CF90089534E0F32E9A
:1038E000D8CFAB01BC018091570583FD07C0B9E07B
:1038F000440F551F661F771FBA95D1F710925905CF
:10390000109258059FEF9FB9779BFECF8FB18F3FE5
:10391000D1F782E50E944F1B882311F081E00895C2
:103920008FEF8FB9779BFECF9FB19F3FD1F380E0A0
:103930009E3F09F081E00895FC01409158055091A7
:1039400059059B019FEF9FB9779BFECF8FB1808375
:103950002150304011F03196F6CFCB01840F951FE6
:1039600090935905809358058050924059F49FEFE9
:103970009FB9779BFECF8FB18E3FD1F7109259053B
:103980001092580580E008958CE440E050E060E03B
:1039900070E00E944F1B882311F091E008C09FEF58
:1039A0009FB9779BFECF8FB18F3FD1F790E0C09A40
:1039B0008FEF8FB9779BFECF8FB1892F08951F931B
:1039C000AB01BC0110925B0510925A05809157051E
:1039D00083FD07C019E0440F551F661F771F1A9516
:1039E000D1F78FEF8FB9779BFECF1FB11F3FD1F774
:1039F00089E50E944F1B882311F081E00FC01FB999
:103A0000779BFECF8FB18FEF8FB9779BFECF8FB1B2
:103A10008CEF8FB9779BFECF8FB180E01F91089517
:103A2000FC0140915A0550915B059B0181918FB932
:103A3000779BFECF8FB121503040C1F7CB01840F6F
:103A4000951F90935B0580935A058050924011F02A
:103A500080E008958FEF8FB9779BFECF8FB18FEF06
:103A60008FB9779BFECF8FB19FEF9FB9779BFECF2A
:103A70008FB18F3FD1F38F71853011F081E00895C0
:103A800010925B0510925A059FEF9FB9779BFECF6E
:103A90008FB18F3FD1F78CEF8FB9779BFECF8FB16E
:103AA00080E0089580915A0590915B05009731F46C
:103AB0000DC01FB8779BFECF2FB1019622E0823058
:103AC0009207B8F390935B0580935A059FEF9FB9D7
:103AD000779BFECF8FB18F3FD1F38F71853011F07F
:103AE00081E008959FEF9FB9779BFECF8FB18F3F05
:103AF000D1F78DEF8FB9779BFECF8FB18FEF8FB955
:103B0000779BFECF8FB19FEF9FB9779BFECF8FB191
:103B10008F3FD1F7C09A80E008959C0140E050E0CB
:103B200060E271EA87E090E00E94F123215030408A
:103B300040405040BB27A52F942F832F80939000A7
:103B400029B988E18AB986E08093950008955D9B44
:103B5000FECF8CB908955F9BFECF8CB1089520E015
:103B600030E070E009C0FC01E20FF31FE0815D9BD3
:103B7000FECFECB92F5F3F4F26173707A4F35E9BAC
:103B8000FECF08951F93182F8A3019F48DE00E94FC
:103B9000C21D5D9BFECF1CB980E01F910895F89473
:103BA0000C942724283008F027E03327DA01990FF6
:103BB000311D87FD916000966105710539F4326011
:103BC0002E5F3D9330E32A95E1F708959F3F30F053
:103BD00080387105610509F03C5F3C5F3D93913091
:103BE00008F08068911DDF93CF931F930F93FF928E
:103BF000EF92192F987F9695E92F96959695E90F54
:103C0000FF27E356FE4F99273327EE24FF24A70111
:103C1000E70105900894079428F4360FE71EF81E74
:103C2000491F511D660F771F881F991F0694A1F722
:103C30000590079428F4E70EF81E491F561FC11D72
:103C4000770F881F991F661F0694A1F705900794A8
:103C500028F4F80E491F561FC71FD11D880F991F42
:103C6000661F771F0694A1F70590079420F4490F6B
:103C7000561FC71FD81F990F661F771F881F0694EE
:103C8000A9F784911095177041F0D695C79557956F
:103C90004795F794E7941A95C1F7E3E4F1E0689447
:103CA0001590159135916591959105907FE27395E9
:103CB000E118F10A430B560BC90BD009C0F7E10C10
:103CC000F11E431F561FC91FD01D7EF4703311F41F
:103CD0008A95E6CFE894015030F0080F0AF40027E7
:103CE000021708F4202F2395022F7A3328F079E366
:103CF0007D932A95E9F710C07D932A9589F606945D
:103D000097956795379517951794E118F10A430B26
:103D1000560BC90BD00998F023957E9173957A3391
:103D200008F070E37C932013B8F77E9170617D9367
:103D300030F0839571E37D9370E32A95E1F71124C8
:103D4000EF90FF900F911F91CF91DF91992787FD01
:103D500090950895FC010590615070400110D8F7CE
:103D6000809590958E0F9F1F0895FC0161507040C3
:103D700001900110D8F7809590958E0F9F1F0895A0
:103D80000F931F93CF93DF938C01EB018B8181FF06
:103D90001BC082FF0DC02E813F818C819D81281721
:103DA000390764F4E881F9810193F983E88306C057
:103DB000E885F985802F0995892B31F48E819F81C3
:103DC00001969F838E8302C00FEF1FEFC801DF9122
:103DD000CF911F910F910895DF93CF93CDB7DEB7A9
:103DE000FE013596619171918091840590918505D0
:103DF000AF010E944001CF91DF9108950F931F936F
:103E0000CF93DF938C01E0918405F0918505838148
:103E100081FF21C0C0E0D0E00DC0E0918405F091A9
:103E2000850520853185BF01F9010995892B11F0A0
:103E3000CFEFDFEFF80181918F01882371F7E091D7
:103E40008405F0918505208531858AE0BF01F9015F
:103E50000995892B11F0CFEFDFEFCE01DF91CF91E4
:103E60001F910F910895FA01AA27283051F12031AE
:103E700081F1E8946F936E7F6E5F7F4F8F4F9F4FFE
:103E8000AF4FB1E03ED0B4E03CD0670F781F891F40
:103E90009A1FA11D680F791F8A1F911DA11D6A0F0E
:103EA000711D811D911DA11D20D009F468943F91C1
:103EB0002AE0269F11243019305D3193DEF6CF01C0
:103EC0000895462F4770405D4193B3E00FD0C9F786
:103ED000F6CF462F4F70405D4A3318F0495D31FDF3
:103EE0004052419302D0A9F7EACFB4E0A695979546
:103EF000879577956795BA95C9F70097610571051C
:103F000008959B01AC010A2E069457954795379565
:103F10002795BA95C9F7620F731F841F951FA01DBF
:103F200008955058BB27AA270ED02DC21ED230F0BC
:103F300023D220F031F49F3F11F41EF4EEC10EF4B1
:103F4000E095E7FBE4C1E92F2FD280F3BA176207AF
:103F500073078407950718F071F49EF547C20EF4B5
:103F6000E0950B2EBA2FA02D0B01B90190010C0189
:103F7000CA01A0011124FF27591B99F0593F50F4A1
:103F8000503E68F11A16F040A22F232F342F4427F9
:103F9000585FF3CF469537952795A795F0405395F1
:103FA000C9F77EF41F16BA0B620B730B840BBAF0C1
:103FB0009150A1F0FF0FBB1F661F771F881FC2F72C
:103FC0000EC0BA0F621F731F841F48F48795779540
:103FD0006795B795F7959E3F08F0B3CF9395880FF7
:103FE00008F09927EE0F979587950895BED158F060
:103FF00080E891E009F49EEFBFD128F040E851E05D
:1040000059F45EEF09C089C1F1C1E92FE078CCD144
:1040100068F3092E052AC1F3261737074807590701
:1040200038F00E2E07F8E02569F0E025E0640AC0BC
:10403000EF6307F8009407FADB01B9019D01DC0189
:10404000CA01AD01EF9347D09ED10AD05F915523AD
:1040500031F02BED3FE049E450FD49EC63CF08958A
:10406000DF93DD27B92FBF7740E85FE31616170609
:1040700048075B0710F4D92FC4D19F938F937F9388
:104080006F9365D3ECE8F0E04BD17DD12F913F9158
:104090004F915F9177D2DD2349F09058A2EA2AED43
:1040A0003FE049EC5FE3D0785D274DDFDF916BC1E6
:1040B0000AD108F481E008950CD065C15DD140F0CB
:1040C00054D130F021F45F3F19F021C151118FC15B
:1040D00024C16AD198F39923C9F35523B1F3951BF1
:1040E000550BBB27AA2762177307840738F09F5F19
:1040F0005F4F220F331F441FAA1FA9F333D00E2E88
:104100003AF0E0E830D091505040E695001CCAF7F4
:1041100029D0FE2F27D0660F771F881FBB1F2617B9
:1041200037074807AB07B0E809F0BB0B802DBF018C
:10413000FF2793585F4F2AF09E3F510568F0E7C074
:1041400056C15F3FECF3983EDCF386957795679513
:10415000B795F7959F5FC9F7880F911D969587953D
:1041600097F90895E1E0660F771F881FBB1F62175C
:1041700073078407BA0720F0621B730B840BBA0B1A
:10418000EE1F88F7E095089519F40EF0C0C02EC117
:10419000C4C012D1C8F39638C0F707F80F92E8945C
:1041A0002BE33AEA48EB5FE7EFD10F920F920F92C1
:1041B0004DB75EB70F92A7D1E9EBF0E0B1D04F91C8
:1041C0005F91EF91FF91E595EE1FFF1F49F0FE57BC
:1041D000E0684427EE0F441FFA95E1F74195550B2F
:1041E00019D10F9007FE0DC1089504D06894B11144
:1041F000FEC00895E1D088F09F5790F0B92F99271D
:10420000B751A0F0D1F0660F771F881F991F1AF0E1
:10421000BA95C9F712C0B13081F0E8D0B1E0089585
:10422000E5C0672F782F8827B85F39F0B93FCCF306
:10423000869577956795B395D9F73EF490958095D7
:10424000709561957F4F8F4F9F4F0895E89409C0F7
:1042500097FB3EF490958095709561957F4F8F4FB9
:104260009F4F9923A9F0F92F96E9BB279395F695CF
:10427000879577956795B795F111F8CFFAF4BB0F4D
:1042800011F460FF1BC06F5F7F4F8F4F9F4F16C0B1
:10429000882311F096E911C0772321F09EE8872F3B
:1042A000762F05C0662371F096E8862F70E060E0F7
:1042B0002AF09A95660F771F881FDAF7880F969570
:1042C000879597F90895990F0008550FAA0BE0E814
:1042D000FEEF16161706E807F907C0F012161306C8
:1042E000E407F50798F0621B730B840B950B39F408
:1042F0000A2661F0232B242B252B21F408950A266E
:1043000009F4A140A6958FEF811D811D089597F9AD
:104310009F6780E870E060E008959FEF80EC08956B
:10432000DF93CF931F930F93FF92EF92DF927B0166
:104330008C01689405C0DA2EEF0124D1FE01E894C7
:10434000A5912591359145915591AEF3EF01FBDD96
:10435000FE019701A801DA9479F7DF90EF90FF90C2
:104360000F911F91CF91DF91089500240A941616A2
:10437000170618060906089500240A941216130653
:10438000140605060895092E0394000C11F48823E1
:1043900052F0BB0F40F4BF2B11F460FF04C06F5FFD
:1043A0007F4F8F4F9F4F089557FD9058440F551FD3
:1043B00059F05F3F71F04795880F97FB991F61F0A7
:1043C0009F3F79F087950895121613061406551F1E
:1043D000F2CF4695F1DF08C0161617061806991F8A
:1043E000F1CF86957105610508940895E894BB277F
:1043F00066277727CB0197F9089565DF08F48FEFDB
:1044000008959B01AC0160E070E080E89FE354CE2A
:104410007ECFA0C1D1DFE8F39923D9F3940F511DCA
:10442000BBF39150504094F059F0882332F0660F5E
:10443000771F881F91505040C1F79E3F510544F7A8
:10444000880F911D9695879597F908955F3FACF079
:10445000983E9CF0BB27869577956795B79508F4AD
:10446000B1609395C1F7BB0F58F711F460FFE8CF27
:104470006F5F7F4F8F4F9F4FE3CFB9CF0EF06AC171
:104480004CCF689444CF98DFC8F39923D1F3C6F397
:10449000DF93CF931F930F93FF92C92FDD278823BC
:1044A0002AF02197660F771F881FDAF720E030E0A7
:1044B00040E85FEB9FE3883920F0803E30F02196A2
:1044C0008F7730DDE1EEF0E003C02CDDEEE0F1E0CF
:1044D00027DF8B01BE01EC01FB2E6F57710975952B
:1044E000771F880B990BB4DE28E132E741E35FE3E5
:1044F00049D0AF2D9801AE01FF900F911F91CF9140
:10450000DF9121DD40CFFA01DC01AA0FBB1F9B0127
:10451000AC01BF5728F422273327442750781FC007
:10452000B75188F4AB2F0024469537952795011C89
:10453000A395D2F3002069F0220F331F441FB395D7
:10454000DAF30DD0EECC61307105A0E88A07B946E8
:1045500030F49B01AC016627772788279078309646
:1045600021F0208331834283538308950BD00BCFF6
:10457000FCDE28F001DF18F0952309F0C8CECDCE7F
:10458000112435CF11DFA0F3959FD1F3950F50E0A3
:10459000551F629FF001729FBB27F00DB11D639FF5
:1045A000AA27F00DB11DAA1F649F6627B00DA11D9B
:1045B000661F829F2227B00DA11D621F739FB00D41
:1045C000A11D621F839FA00D611D221F749F3327B1
:1045D000A00D611D231F849F600D211D822F762F4A
:1045E0006A2F11249F5750408AF0E1F088234AF047
:1045F000EE0FFF1FBB1F661F771F881F9150504093
:10460000A9F79E3F510570F082CEF1CE5F3FECF3EB
:10461000983EDCF3869577956795B795F795E7957E
:104620009F5FC1F7FE2B880F911D9695879597F98F
:104630000895FA01EE0FFF1F30962105310599F11B
:104640006115710561F48038BFE39B0749F16894F7
:104650009038810561F08038BFEF9B0741F09923C6
:1046600042F5FF3FE1053105210511F1E894089479
:10467000E795D901AA2329F4AB2FBE2FF85FD0F319
:1046800010C0FF5F70F4A695E0F7F73950F019F00D
:10469000FF3A38F49F779F930CD00F9007FC905807
:1046A00008953EF03ACE60E070E080E89FE3089520
:1046B0004FE79F775F934F933F932F93E4DE2F91C4
:1046C0003F914F915F9152DF64CD11F40EF425CEEE
:1046D00041C072DED0F39923D9F3CEF39F57550B27
:1046E00087FF46D00024A0E640EA90018058569506
:1046F000979528F4805C660F771F881F20F0261797
:104700003707480730F4621B730B840B20293129CB
:104710004A2BA69517940794202531254A2758F748
:10472000660F771F881F20F026173707480730F4D9
:10473000620B730B840B200D311D411DA09581F779
:10474000B901842F9158880F9695879508959B01FC
:10475000AC010CCF9F3F31F0915020F487957795B5
:104760006795B795880F911D9695879597F9089548
:1047700091505040660F771F881FD2F70895629FAF
:10478000D001739FF001829FE00DF11D649FE00D49
:10479000F11D929FF00D839FF00D749FF00D659FAA
:1047A000F00D9927729FB00DE11DF91F639FB00DA9
:1047B000E11DF91FBD01CF011124089597FB092EBA
:1047C00007260AD077FD04D02ED006D000201AF498
:1047D000709561957F4F0895F6F7909581959F4F5D
:1047E0000895A1E21A2EAA1BBB1BFD010DC0AA1F32
:1047F000BB1FEE1FFF1FA217B307E407F50720F04A
:10480000A21BB30BE40BF50B661F771F881F991FC4
:104810001A9469F760957095809590959B01AC010D
:10482000BD01CF010895AA1BBB1B51E107C0AA1F00
:10483000BB1FA617B70710F0A61BB70B881F991F41
:104840005A95A9F780959095BC01CD010895F894EB
:02485000FFCF98
:10485200252E325820252E325820252E325820253A
:104862002E325820252E325820252E325820252E21
:10487200325820252E32580A004144584C20494EC5
:104882004954204F4B004144584C20494E49542032
:104892004E4F54204F4B00486561742E2E2E00431C
:1048A200616C6962726174652E2E2E00526F203D1A
:1048B2002025660A00496E6974206469736B204F73
:1048C2004B000A424D503238302049324320446571
:1048D2006D6F00424D5032383020636F6E6E6563EB
:1048E20074696F6E204F4B000A445331385832308E
:1048F20020312D576972652D5265616465722044BD
:10490200656D6F002D2D2D2D2D2D2D2D2D2D2D2D48
:104912002D2D2D2D2D2D2D2D2D2D2D2D2D2D2D2DC5
:104922002D2D2D2D2D2D2D2D2D2D2D2D2D2D2D00E2
:104932005363616E6E696E672042757320666F7293
:104942002044533138583230004E6F2053656E7315
:104952006F7220666F756E640042757320457272C5
:104962006F72002569204453313858323020536524
:104972006E736F7228732920617661696C61626C53
:10498200653A0A00424D5032383020636F6E6E65D0
:104992006374696F6E206E6F74204F4B002D2D2D46
:1049A2002D2D2D2D2D2D2D2D2D2D2D2D2D2D2D4121
:1049B2004343454C45524F4D455445523A2D2D2DBA
:1049C2002D2D2D2D2D2D2D2D2D2D2D2D2D2D2D2D15
:1049D2002D2D00526177202020646174613A207885
:1049E2003A20252E366620793A20252E3666207A00
:1049F2003A20252E366620673A20252E36660A0092
:104A0200526177202020646174612028696E7429C4
:104A12003A20783A20256420793A202564207A3A8F
:104A22002025640A0043616C696272617465643AAC
:104A320020783A252E366620793A252E3666207A57
:104A42003A252E366620673A20252E36660A00520F
:104A52006F6C6C3A20252E36662050697463683A72
:104A620020252E36660A002D2D2D2D2D2D2D2D2D96
:104A72002D2D2D2D2D2D2D2D2D2D50524553535590
:104A820052452D2D2D2D2D2D2D2D2D2D2D2D2D2D17
:104A92002D2D2D2D2D2D2D2D0074656D70203D2079
:104AA200256C640A207072657373203D20252E34B4
:104AB200660A20616C74203D20252E34660A00634C
:104AC200686964203D20252E32580A002D2D2D2D97
:104AD2002D2D2D2D2D2D2D2D2D2D2D2D2D54454DA5
:104AE20050455241545552452D2D2D2D2D2D2D2DF4
:104AF2002D2D2D2D2D2D2D2D2D2D2D2D2D00746592
:104B02006D705F6D6178524573203D20252E3466AD
:104B12000A002D2D2D2D2D2D2D2D2D2D2D2D2D2D13
:104B22002D2D2D47617353656E736F72732D2D2D6D
:104B32002D2D2D2D2D2D2D2D2D2D2D2D2D2D2D2DA3
:104B42002D2D2D004F7A6F6E654C3A20256C752005
:104B52007070620A004F7A6F6E65483A20256C7554
:104B62002070706D0A004F7A6F6E654C2052733A56
:104B7200202566204B4F686D0A004F7A6F6E65489C
:104B82002052733A202566204B4F686D0A007469E3
:104B92006D65206D733A20256C750A005061636B58
:104BA200616765204E756D3A20256C690A0057527F
:104BB2004954494E47204F4B0057524954494E479A
:104BC200205354482057524F4E47002D2D2D2D2D46
:104BD2002D2D2D2D2D2D2D2D2D2D2D2D2D2D2D54DC
:104BE20052414E534D49542D2D2D2D2D2D2D2D2D10
:104BF2002D2D2D2D2D2D2D2D2D2D2D2D000A2D2D33
:104C02002D2D2D2D2D2D2D2D2D2D2D2D2D2D2D2DD2
:104C12002D5452414E534D495445442D2D2D2D2D89
:104C22002D2D2D2D2D2D2D2D2D2D2D2D2D2D2D00DF
:104C32000000803F0000803F0000803F0000803F76
:104C420033331340CDCC4C3E6666E6BE333313405D
:104C520014AE073FF628DCBE000000020000000090
:104C6200C21D000000000000000000000000000063
:104C72000000F853E3BD000020BFDD2406BF7F6AB9
:104C82007C3FBC74133CA69B443C0AD7A3BBD7A36E
:104C9200803FA69BC4BB0AD7233C6F1283BA986E8F
:024CA200823F4F
:00000001FF
