:100000000C949E000C94BD000C94BD000C94BD009B
:100010000C94BD000C94BD000C94BD000C94BD006C
:100020000C94BD000C94BD000C94BD000C94BD005C
:100030000C9482080C94BD000C94BD000C94BD007F
:100040000C94BD000C94BD000C94BD000C94BD003C
:100050000C94BD000C94BD000C94BD000C94BD002C
:100060000C94BD000C94BD000C94BD000C94BD001C
:100070000C94BD000C94BD000C94BD000C94BD000C
:100080000C94BD000C94BD000C94BD00084AD73BF5
:100090003BCE016E84BCBFFDC12F3D6C74319ABD57
:1000A00056833DDA3D00C77F11BED9E4BB4C3E917B
:1000B0006BAAAABE000000803F07634236B79BD8F8
:1000C000A71A39685618AEBAAB558C1D3CB7CC5739
:1000D00063BD6DEDFD753EF6177231BF0000008007
:1000E0003F08000000BE922449123EABAAAA2ABED5
:1000F000CDCCCC4C3E00000080BEABAAAAAA3E00EC
:10010000000000BF000000803F0000000000084128
:1001100078D3BB4387D1133D190E3CC3BD4282AD9A
:100120002B3E68EC8276BED98FE1A93E4C80EFFF72
:10013000BE01C4FF7F3F00000000000011241FBE6D
:10014000CFEFD0E1DEBFCDBF11E0A0E0B1E0E8E647
:10015000F2E300E00BBF02C007900D92AA34B10792
:10016000D9F711E0AAE4B1E001C01D92A038B107AF
:10017000E1F70E947F100C94BF000C940000F894EB
:100180000C9432192F923F924F925F926F927F920E
:100190008F929F92AF92BF92CF92DF92EF92FF9297
:1001A0000F931F93DF93CF93CDB7DEB72B970FB687
:1001B000F894DEBF0FBECDBF3C012B015A01FC01FC
:1001C00017821682838181FD03C06FEF7FEFC6C166
:1001D0009AE0892E1E010894211C311CF301238111
:1001E000F20123FD859123FF81912F01882309F4DA
:1001F000B2C1853239F423FD859123FF81912F010E
:10020000853229F490E0B3010E94DE02E7CF982FF7
:10021000FF24EE249924FFE1FF15D0F09B3269F012
:100220009C3228F4903259F0933291F40EC09D32F2
:1002300049F0903369F441E024C052E0F52A84E0AB
:10024000F82A28C098E0F92A25C0E0E1FE2A22C059
:10025000F7FC29C0892F80538A3070F4F6FE05C060
:10026000989C902C1124980E15C0E89CE02C112429
:10027000E80EF0E2FF2A0EC09E3229F4F6FC6BC1B4
:1002800040E4F42A07C09C3619F450E8F52A02C06D
:10029000983649F4F20123FD959123FF91912F01A6
:1002A000992309F0B8CF892F8554833018F08052F4
:1002B000833038F444E050E0A40EB51E5FE3598368
:1002C0000FC0933631F0933779F0933509F056C06B
:1002D00020C0F5018081898342E050E0A40EB51E64
:1002E000610101E010E012C0F501C080D180F6FC90
:1002F00003C06FEF7FEF02C0692D70E042E050E075
:10030000A40EB51EC6010E94D3028C015FE7F52240
:1003100014C0F501C080D180F6FC03C06FEF7FEF01
:1003200002C0692D70E042E050E0A40EB51EC60187
:100330000E94C8028C0150E8F52AF3FE07C01AC0DB
:1003400080E290E0B3010E94DE02EA948E2D90E0FC
:1003500008171907A8F30EC0F601F7FC8591F7FE00
:1003600081916F0190E0B3010E94DE02E110EA94F6
:10037000015010400115110579F7EAC0943611F0CB
:10038000993669F5F7FE08C0F50120813181428177
:10039000538184E090E00AC0F501808191819C0145
:1003A000442737FD4095542F82E090E0A80EB91EF7
:1003B0009FE6F92257FF09C0509540953095219549
:1003C0003F4F4F4F5F4FE0E8FE2ACA01B901A1013C
:1003D0002AE030E00E940A03D82ED21840C0953798
:1003E00029F41F2D1F7E2AE030E01DC01F2D197F2C
:1003F0009F3661F0903720F4983509F0ACC00FC0FB
:10040000903739F0983709F0A6C004C028E030E0F2
:100410000AC0106114FD146020E130E004C014FD36
:10042000166020E132E017FF08C0F501608171819C
:100430008281938144E050E008C0F5018081918180
:10044000BC0180E090E042E050E0A40EB51EA101A6
:100450000E940A03D82ED2188FE7F82EF122F6FE5A
:100460000BC05EEFF522D91438F4F4FE07C0F2FC9D
:1004700005C08FEEF82202C01D2D01C0192DF4FE1B
:100480000DC0FE01ED0DF11D8081803319F499EE50
:10049000F92208C01F5FF2FE05C003C08F2D8678C9
:1004A00009F01F5F0F2DF3FC14C0F0FE0FC01E15E6
:1004B00010F09D2C0BC09D2C9E0C911A1E2D06C079
:1004C00080E290E0B3010E94DE021F5F1E15C0F3C0
:1004D00004C01E1510F4E11A01C0EE2404FF0FC081
:1004E00080E390E0B3010E94DE0202FF1DC001FD27
:1004F00003C088E790E00EC088E590E00BC0802F35
:10050000867891F001FF02C08BE201C080E2F7FC27
:100510008DE290E0B3010E94DE0206C080E390E02D
:10052000B3010E94DE029A94D914C0F3DA94F10167
:10053000ED0DF11D808190E0B3010E94DE02DD200F
:10054000A9F706C080E290E0B3010E94DE02EA94BF
:10055000EE20C1F743CEF30166817781CB012B9664
:100560000FB6F894DEBF0FBECDBFCF91DF911F91C4
:100570000F91FF90EF90DF90CF90BF90AF909F9042
:100580008F907F906F905F904F903F902F90089545
:10059000FC010590615070400110D8F7809590954E
:1005A0008E0F9F1F0895FC01615070400190011053
:1005B000D8F7809590958E0F9F1F08950F931F93E6
:1005C000CF93DF938C01EB018B8181FF1BC082FFF6
:1005D0000DC02E813F818C819D812817390764F4DD
:1005E000E881F9810193F983E88306C0E885F985FC
:1005F000802F0995892B31F48E819F8101969F83ED
:100600008E8302C00FEF1FEFC801DF91CF911F91C2
:100610000F910895FA01AA27283051F1203181F174
:10062000E8946F936E7F6E5F7F4F8F4F9F4FAF4FFA
:10063000B1E03ED0B4E03CD0670F781F891F9A1F0D
:10064000A11D680F791F8A1F911DA11D6A0F711DC1
:10065000811D911DA11D20D009F468943F912AE0CD
:10066000269F11243019305D3193DEF6CF010895B5
:10067000462F4770405D4193B3E00FD0C9F7F6CFE6
:10068000462F4F70405D4A3318F0495D31FD4052AE
:10069000419302D0A9F7EACFB4E0A6959795879544
:1006A00077956795BA95C9F7009761057105089523
:1006B0009B01AC010A2E06945795479537952795CF
:1006C000BA95C9F7620F731F841F951FA01D089567
:1006D000382FFB01918180E02081422F50E0482B90
:1006E000592B303171F4CA018E7FA3E0880F991F16
:1006F000AA95E1F726814CE050E0421B5109480FD2
:10070000591F57FD02C0A0E004C0509541955F4FAE
:10071000A1E0383211F0323291F48481282F30E098
:10072000207630702032310539F02034310531F037
:10073000232B29F4487F03C04C7F01C04E7F9A01D0
:100740002F70307080E892E0289FB001299F700DD3
:10075000389F700D1124AA2311F460507E4F9A0126
:10076000F4E036952795FA95E1F7AB01452F55272B
:1007700046954695C90173E0880F991F7A95E1F770
:10078000220F331F820F931F480F591FAA2319F0FE
:10079000509541955F4FCA018A5D9D4F89509740A2
:1007A00010F040ED57E0CA010895FF920F931F9398
:1007B000CF93DF93EC01162F042FF22E0E942E060A
:1007C0000E942506882311F481E013C08EE4BE0147
:1007D0000E940807812F0E946906802F0E946906E7
:1007E0006881683211F0623219F48F2D0E94690617
:1007F00080E0DF91CF911F910F91FF900895262FF8
:100800002F6160E040E00E94D5030895EF92FF92CF
:100810000F931F93CF93DF939C01062FF72EE42EA7
:100820008EEBB9010E940807202F3F2DC901EC0172
:1008300010E004C00E94900689931F5F1E15D0F33C
:10084000802F9F2D69E070E00E940506811183E0F2
:10085000DF91CF911F910F91FF90EF900895CF926C
:10086000DF92EF92FF920F931F93DF93CF93CDB759
:10087000DEB729970FB6F894DEBF0FBECDBF8C014F
:100880006B010E942E06C801BE016F5F7F4F49E0D9
:100890000E940604E82E882309F065C0F801308123
:1008A0009A8180E02981022F10E0082B192B30312A
:1008B00071F4C8018E7F13E0880F991F1A95E1F734
:1008C0002F810CE010E0021B1109080F191F17FD02
:1008D00002C0FF2405C0109501951F4FFF24F3941B
:1008E000383211F0323289F48D8190E08076907048
:1008F0008032910539F08034910531F0892B29F44B
:10090000087F03C00C7F01C00E7FB801B4E076956C
:100910006795BA95E1F780E090E020E137E240E0AA
:1009200050E00E94CA180F70107021E732E0A90150
:10093000049F9001059F300D149F300D112440E05D
:1009400050E0260F371F481F591FFF2039F05095E0
:100950004095309521953F4F4F4F5F4FF6012083D3
:100960003183428353838E2D29960FB6F894DEBFD0
:100970000FBECDBFCF91DF911F910F91FF90EF90F0
:10098000DF90CF900895CF92DF92EF92FF920F9376
:100990001F93DF93CF93CDB7DEB729970FB6F894A7
:1009A000DEBF0FBECDBF082F6B0180E090E07E015F
:1009B0000894E11CF11CB70149E00E940604182FBD
:1009C000882339F4802FB7010E946803F6019183D0
:1009D0008083812F29960FB6F894DEBF0FBECDBF5E
:1009E000CF91DF911F910F91FF90EF90DF90CF900B
:1009F0000895AF92BF92CF92DF92FF920F931F9311
:100A0000DF93CF93CDB7DEB729970FB6F894DEBF4B
:100A10000FBECDBF8C015B010E942E06C8016E0186
:100A20000894C11CD11CB60149E00E940604F82EAE
:100A3000882341F4F8018081B6010E946803F50122
:100A4000918380838F2D29960FB6F894DEBF0FBE59
:100A5000CDBFCF91DF911F910F91FF90DF90CF908D
:100A6000BF90AF900895CF92DF92EF92FF920F93D5
:100A70001F93DF93CF93CDB7DEB727970FB6F894C8
:100A8000DEBF0FBECDBF7B01473008F454C02CEF52
:100A9000893192070CF44FC0E7E280319E070CF0D9
:100AA0004AC097FD02C000E004C0909581959F4F19
:100AB00001E06E010894C11CD11C10E06AE070E0F6
:100AC0000E94E9189B01805DF60181936F011F5F11
:100AD000C9011216130694F3FE013196812F99274E
:100AE00087FD9095002351F0E80FF91F8DE2808378
:100AF00090E09E012F5F3F4F4EE204C0E80FF91FC8
:100B00008BE2F5CFF701E90FF11DD901A10FB11D5E
:100B10008C9180839F5F115031F4F701E90FF11D33
:100B200040839F5FEFCF1F3F69F7E90EF11CF7018C
:100B3000108280E001C081E027960FB6F894DEBFF6
:100B40000FBECDBFCF91DF911F910F91FF90EF901E
:100B5000DF90CF90089581E00E94640690E08823A2
:100B600009F491E0892F08950F931F938C010E943F
:100B70002E0684EBB8010E94080781E00E946406FB
:100B8000182F0E942E06111111E0812F1F910F9135
:100B900008951F93CF93DF93182FEB010E942E0629
:100BA0000E942506882311F482E00CC0113029F040
:100BB00084E4BE010E940C0704C084E4BE010E94CC
:100BC000080780E0DF91CF911F9108950F931F9345
:100BD000CF93DF938C01EB01F8018081BE010E946D
:100BE0009406F801808381508D3F10F081E008C0A9
:100BF0008881883221F0803111F0823269F780E0FB
:100C0000DF91CF911F910F910895DC0120E040E02A
:100C100050E098E115C0FD01E40FF51FE08138E0D8
:100C20008E2F8227F82FF17080FD29272695F1302D
:100C300009F42068315011F0E695F2CF4F5F5F4F15
:100C40004617570741F7822F089586B38078089595
:100C5000C79ABF9A0895BF98C7980895C798BF9A32
:100C600080EC93E00197F1F78FB7F894BF989AEA78
:100C70009A95F1F726B38FBF80E493E00197F1F7DF
:100C8000B79902C081E00895822F80780895282FB7
:100C90003FB7F894BF9A95E09A95F1F78111BF9804
:100CA00092E29A95F1F786B3880F880B822392E738
:100CB0009A95F1F7BF98662311F0C79ABF9A3FBF84
:100CC0009AE19A95F1F70895817060E00E944706D5
:100CD00008950F931F93182F08E0812F81700E94B1
:100CE00064061695811110680150B9F7812F1F9184
:100CF0000F9108950F931F93182F08E0812F817093
:100D0000013011F060E001C061E00E9447061695D5
:100D100081111068015091F7812F1F910F91089553
:100D20008FEF0E9469060895DF92EF92FF920F9372
:100D30001F93CF93DF93E82EEB010E942E068823AA
:100D4000A1F580EF0E94690680E4FF24182F98EF38
:100D5000D92ED80E81E00E946406082F81E00E94FF
:100D60006406882329F0002371F08EEFF82E1FC04F
:100D7000002349F41E1528F0888180FF04C0E11685
:100D800011F0F12E01E0802F0E9464068881869583
:100D90008883002311F08068888311501D15D1F6D7
:100DA000112329F02196812FD1CFFF24FA948F2D82
:100DB000DF91CF911F910F91FF90EF90DF900895F9
:100DC000FF920F931F93CF93DF93082FEB01F42E25
:100DD0000E942E06209751F085E50E94690618E0D2
:100DE00089910E9469061150D9F703C08CEC0E94CA
:100DF0006906FF2021F0802F0E947A0603C0802F11
:100E00000E946906DF91CF911F910F91FF90089585
:100E100040E00E94E006089541E00E94E006089547
:100E20002F923F924F925F926F927F928F929F92FA
:100E3000AF92BF92CF92DF92EF92FF920F931F93E8
:100E4000DF93CF93CDB7DEB7CC54D0400FB6F89434
:100E5000DEBF0FBECDBF16012B96BFAEAEAE2B9739
:100E60002D969FAE8EAE2D9769837A838B839C835C
:100E70002D833E834F835887E986FA860B871C872C
:100E8000DE019596E6E2F1E084E201900D92815058
:100E9000E1F7DE011D96EAE1F1E08CE001900D92B0
:100EA0008150E1F769817A818B819C812D853E8516
:100EB0004F8558890E94A51469837A838B839C830C
:100EC0006D817E818F81988529893A894B895C89DA
:100ED0000E94A5146D837E838F83988769857A85A8
:100EE0008B859C852D893E894F89588D0E94A5143C
:100EF0003B014C0169877A878B879C87DE01599675
:100F0000EEE0F1E08CE001900D928150E1F799E183
:100F1000A92EB12CAC0EBD1E85E2C82ED12CCC0E54
:100F2000DD1E2601F6016081718182819381298114
:100F30003A814B815C810E94E216F501208131816A
:100F4000428153810E94A6147B018C01F6016481C9
:100F50007581868197812D813E814F8158850E94C0
:100F6000E2169B01AC01C801B7010E94A6147B01E7
:100F70008C01C401B301F60120853185428553857A
:100F80000E94E2169B01AC01C801B7010E94A614A1
:100F9000F50161937193819391935F018CE090E0EF
:100FA000C80ED91EE415F50509F0BCCF8D8D9E8DB8
:100FB000AF8DB8A1E9A0FAA00BA11CA1298D3A8D93
:100FC0004B8D5C8DF10120833183428353832B96BB
:100FD000EEADFFAD2B9780839183A283B3832D96D3
:100FE000EEADFFAD2D97E082F18202831383C45BE7
:100FF000DF4F0FB6F894DEBF0FBECDBFCF91DF91AC
:101000001F910F91FF90EF90DF90CF90BF90AF9026
:101010009F908F907F906F905F904F903F902F9018
:1010200008952F923F924F925F926F927F928F928C
:101030009F92AF92BF92CF92DF92EF92FF920F9367
:101040001F93CF93DF931B012C0139014A01E50166
:10105000CA01B901A80197010E94191523E333E3DE
:1010600045E652E40E94E216F601608371838283B2
:101070009383C401B301A40193010E94E2165B01B2
:101080006C01C801B701A80197010E94E2169B01FB
:10109000AC01C601B5010E94A6140E9495179B01E0
:1010A000AC0157FA509457F85094C201B1010E9414
:1010B000191523E333E345E652E40E94E216688300
:1010C00079838A839B83DF91CF911F910F91FF904A
:1010D000EF90DF90CF90BF90AF909F908F907F90D8
:1010E0006F905F904F903F902F9008958EB58C60D9
:1010F0008EBD87B7806187BF8FE190E09BBD8ABDC1
:10110000789408951F920F920FB60F9211248F9327
:101110009F93AF93BF9380914A0190914B01A0910F
:101120004C01B0914D010196A11DB11D80934A0162
:1011300090934B01A0934C01B0934D01BF91AF919F
:101140009F918F910F900FBE0F901F901895FC01EB
:101150002FEF3FEFA1E2B0E114C0908180E028279B
:10116000392770E0A901440F551F37FF04C09A01C9
:101170002A273B2701C09A017F5F783099F7319683
:101180006150662351F7C90108952F923F924F9203
:101190005F926F927F928F929F92AF92BF92CF9207
:1011A000DF92EF92FF920F931F93DF93CF9300D0C4
:1011B000CDB7DEB73C019A838983FB01C501B40139
:1011C0002B8C3C8C4D8C5E8C80809180A280B38077
:1011D0000894811C911CA11CB11C80829182A28266
:1011E000B382D3018D929D92AD92BC921397809061
:1011F0004A0190904B01A0904C01B0904D01F30139
:1012000084829582A682B78251874087338722875E
:10121000158704871E96CD92DD92ED92FC92519730
:1012200020E030E048EC52E40E94E2160E94D8151B
:10123000F301628B738B848B958B6F89788D898D8D
:101240009A8D20E030E040E251E40E94A6140E9412
:10125000D815D30157967C936E93569780E492E409
:10126000AFE0B0E0280E391E4A1E5B1ED30158962F
:101270002D923D924D925C925B97CE0101966CE16E
:101280000E94A708F301958F848FE981FA81178E58
:10129000168E0F900F90CF91DF911F910F91FF90BD
:1012A000EF90DF90CF90BF90AF909F908F907F9006
:1012B0006F905F904F903F902F9008956EE10E9445
:1012C00085140895DF92EF92FF920F931F937A0196
:1012D0008B0160E270E00E94E613D82ED801C701AE
:1012E0008F709070A070B0700097A105B105A1F447
:1012F0000E94281424E016950795F794E7942A9500
:10130000D1F799E0EE0CFF1C001F111F9A95D1F741
:10131000C801B7010E94B5138D2D1F910F91FF9049
:10132000EF90DF900895CF92DF92EF92FF920F93AC
:101330001F93DF93CF9300D000D000D0CDB7DEB79E
:101340008C017B016A018091540162E346E09E01B9
:101350002F5F3F4F0E9442109A8180E0298130E048
:10136000822B932BF801918380839C8180E02B81D9
:1013700030E0822B932BF701918380839E8180E064
:101380002D8130E0822B932BF6019183808326966A
:101390000FB6F894DEBF0FBECDBFCF91DF911F9186
:1013A0000F91FF90EF90DF90CF900895CF92DF9252
:1013B000EF92FF920F931F93DF93CF9300D000D053
:1013C00000D0CDB7DEB78C017B016A01CE0101965A
:1013D000BE016D5F7F4FAE014B5F5F4F0E9493096F
:1013E00069817A81882777FD8095982F0E9406165B
:1013F0002DEC3CEC4CE15DE30E94E216F8016083C9
:101400007183828393836B817C81882777FD8095AC
:10141000982F0E9406162DEC3CEC4CE15DE30E94F7
:10142000E216F70160837183828393836D817E81ED
:10143000882777FD8095982F0E9406162DEC3CECAE
:101440004CE15DE30E94E216F601608371838283C2
:10145000938326960FB6F894DEBF0FBECDBFCF9113
:10146000DF911F910F91FF90EF90DF90CF90089543
:10147000DF93CF930F92CDB7DEB7198280915401DD
:1014800060E041E09E012F5F3F4F0E94421090E0DC
:101490008981853E09F491E0892F0F90CF91DF91EA
:1014A0000895809154016DE248E00E941A10089559
:1014B0008091540161E34BE00E941A1008958093DB
:1014C00054010E94380A882399F0809154016CE2FB
:1014D00048E00E941A108091540161E34BE00E94A1
:1014E0001A10809154016DE248E00E941A1081E0C8
:1014F0000895FC01608171818281938120E836EE3C
:1015000045EC57E40E94701522E63BED42E45EE3B1
:101510000E9445179B01AC0160E070E080E89FE30A
:101520000E94A51420E03AE24DE257E40E94E21640
:101530000895DF93CF9300D00F92CDB7DEB7682F19
:1015400080915F0143E09E012F5F3F4F0E94421058
:10155000298130E040E050E0542F432F322F2227E2
:101560008A8190E0A0E0B0E0282B392B4A2B5B2B3E
:10157000542F432F322F22278B8190E0A0E0B0E040
:10158000282B392B4A2B5B2BB901CA010F900F90E6
:101590000F90CF91DF9108956F927F928F929F92DB
:1015A000AF92BF92CF92DF92EF92FF920F931F9371
:1015B0008AEF0E94990A7B018C016090570170901C
:1015C000580188249924552717FD5A95412F302F0B
:1015D0002F2D2619370948095909CA01B9010E9456
:1015E000CA182CE095958795779567952A95D1F738
:1015F00020916A0130916B01442737FD4095542FAB
:101600000E94CA185B016C01BEE0D594C794B794E0
:10161000A794BA95D1F7A7E015950795F794E794A5
:10162000AA95D1F7660C771C881C991CE618F70858
:10163000080919092091590130915A01442737FDB1
:101640004095542FC801B7010E94CA18EBE0959548
:10165000879577956795EA95D1F7A60EB71EC81EB0
:10166000D91EA0926E01B0926F01C0927001D0920B
:101670007101A601950172E0220F331F441F551F0F
:101680007A95D1F72A0D3B1D4C1D5D1D20583F4F0B
:101690004F4F5F4F232F342F452F552747FD5A9526
:1016A000B901CA011F910F91FF90EF90DF90CF9089
:1016B000BF90AF909F908F907F906F9008952F92E2
:1016C0003F924F925F926F927F928F929F92AF92D2
:1016D000BF92CF92DF92EF92FF920F931F93DF930F
:1016E000CF93CDB7DEB728970FB6F894DEBF0FBE05
:1016F000CDBF8C017E836D830E94CC0AF80160838C
:1017000071838283938387EF0E94990AA62ED72E36
:10171000C82EB92E60916E0170916F018091700199
:10172000909171010E94061620E030E040E05FE3F6
:101730000E94E21620E030E04AE757E40E94A51438
:101740003B014C0120916C0130916D0138872F8352
:1017500080916001909161019C838B83E0915D0198
:10176000F0915E01FA83E9836091640170916501F3
:10177000882777FD8095982F0E940616A401930173
:101780000E94E216A40193010E94E21620E030E0DC
:1017900040E056E30E94E2167B018C0160915B0100
:1017A00070915C01882777FD8095982F0E9406161E
:1017B000A40193010E94E2169B01AC01C801B7018C
:1017C0000E94A61420E030E040E056E30E94E216BA
:1017D00020E030E040E058E30E94E21620E030E0F4
:1017E00040E85FE30E94A6147B018C0160916201D6
:1017F0007091630180E090E00E9404169B01AC01AF
:10180000C801B7010E94E2161B012C0120E030E064
:1018100040E050E00E946C15882359F480E090E08D
:10182000A0E0B0E0ED81FE8180839183A283B38349
:10183000E0C0EA2CFD2C0C2D1B2DC401B301A4012A
:1018400093010E94E2165B016C012F813885B9017A
:10185000882777FD8095982F0E9406169B01AC0182
:10186000C601B5010E94E21620E030E040E058E3F6
:101870000E94E2165B016C01EB81FC81BF018827AD
:1018800077FD8095982F0E9406169B01AC01C4013C
:10189000B3010E94E2169B01AC010E94A6149B01B9
:1018A000AC01C601B5010E94A61420E030E040E87A
:1018B0005EE30E94E2165B016C0144E0159507951A
:1018C000F794E7944A95D1F7C801B7010E9406162C
:1018D0009B01AC0160E070E080E899E40E94A514EF
:1018E0007B018C0129813A81B901882777FD809598
:1018F000982F0E94061620E030E040E857E40E944E
:10190000E2169B01AC01C601B5010E94A61420E0BD
:1019100030E040E859EB0E94E2169B01AC01C8019F
:10192000B7010E94A61420E030E543EC55E40E9484
:10193000E216A20191010E9470155B016C01609199
:10194000680170916901882777FD8095982F0E9422
:101950000616A60195010E94E216A60195010E94B5
:10196000E21620E030E040E050E30E94E2167B0106
:101970008C016091660170916701882777FD8095E1
:10198000982F0E9406169B01AC01C601B5010E946A
:10199000E21620E030E040E058E30E94E2169B01AE
:1019A000AC01C801B7010E94A6147B018C016091B3
:1019B000550170915601882777FD8095982F0E94D8
:1019C00006169B01AC01C801B7010E94A61420E0D5
:1019D00030E040E85DE30E94E2169B01AC01C601E5
:1019E000B5010E94A614ED81FE816083718382831C
:1019F000938328960FB6F894DEBF0FBECDBFCF916C
:101A0000DF911F910F91FF90EF90DF90CF90BF90EB
:101A1000AF909F908F907F906F905F904F903F908E
:101A20002F9008952F923F924F925F926F927F92E4
:101A30008F929F92AF92BF92CF92DF92EF92FF92DE
:101A40000F931F93DF93CF93CDB7DEB72A970FB6CF
:101A5000F894DEBF0FBECDBF0E94CC0A87EF0E9474
:101A6000990A6D837E838F83988760906E01709052
:101A70006F01809070019090710195948794779494
:101A8000679480E096E0AFEFBFEF680E791E8A1E84
:101A90009B1EA401930162E05595479537952795C4
:101AA0006A95D1F7CA01B9010E94CA185B016C019D
:101AB000A0916C01B0916D01BA87A987E091600196
:101AC000F0916101FC83EB8320915D0130915E0117
:101AD0003A8329834DE095958795779567954A9543
:101AE000D1F72091640130916501442737FD40957D
:101AF000542F0E94CA187B018C0133E0159507957D
:101B0000F794E7943A95D1F720915B0130915C010D
:101B1000442737FD4095542FC401B3010E94CA18D1
:101B20009595879577956795E60EF71E081F191FFF
:101B3000B2E115950795F794E794BA95D1F780E04F
:101B400090E8A0E0B0E0E80EF91E0A1F1B1F2091EC
:101B500062013091630140E050E0C801B7010E948A
:101B6000CA181B012C01AFE0559447943794279471
:101B7000AA95D1F7211431044104510421F4AA2477
:101B8000BB246501DFC0ED80FE800F811885C60192
:101B9000B501FBE09595879577956795FA95D1F70F
:101BA000A985BA859D01442737FD4095542F0E9491
:101BB000CA185B016C01EB81FC819F01442737FD52
:101BC0004095542FC401B3010E94CA18660F771FB5
:101BD000881F991FA60EB71EC81ED91E62E0D59495
:101BE000C794B794A7946A95D1F754E015950795D3
:101BF000F794E7945A95D1F710950095F094E094F6
:101C0000E11CF11C011D111D29813A81C901AA277E
:101C100097FDA095BA2FDC0199278827A80EB91E39
:101C2000CA1EDB1E3CE0D594C794B794A7943A959E
:101C3000D1F7EA18FB080C091D09C801B70125E313
:101C40003CE040E050E00E94CA1860507040804B79
:101C50009C4397FD0DC0660F771F881F991FA20137
:101C600091010E94FC18C901DA013C014D010CC030
:101C7000A20191010E94FC18C901DA013C014D0149
:101C8000660C771C881C991C8401730183E01695EF
:101C90000795F794E7948A95D1F7C401B301B2E0B0
:101CA0009695879577956795BA95D1F720916601B6
:101CB00030916701442737FD4095542F0E94CA1880
:101CC0005B016C01ADE0D594C794B794A794AA9535
:101CD000D1F78091550190915601AA2797FDA095C3
:101CE000BA2FA80EB91ECA1EDB1EC801B701A80173
:101CF00097010E94CA18FDE096958795779567959C
:101D0000FA95D1F72091680130916901442737FD98
:101D10004095542F0E94CA18ECE0959587957795C9
:101D20006795EA95D1F7A60EB71EC81ED91E54E0D6
:101D3000D594C794B794A7945A95D1F7A60CB71C1D
:101D4000C81CD91CB501C6012A960FB6F894DEBF8F
:101D50000FBECDBFCF91DF911F910F91FF90EF90FC
:101D6000DF90CF90BF90AF909F908F907F906F90BB
:101D70005F904F903F902F900895DF93CF9300D0C6
:101D8000CDB7DEB7682F80915F0142E09E012F5FE3
:101D90003F4F0E944210998180E02A8130E0282B39
:101DA000392BC9010F900F90CF91DF9108950E94B8
:101DB000BD0E282F892F922F08950E94D70E0895C7
:101DC00088E80E94D70E90935801809357018AE8C3
:101DD0000E94D70E90935A01809359018CE80E947B
:101DE000D70E90936B0180936A018EE80E94D70E04
:101DF000909363018093620180E90E94D70E9093D3
:101E00005C0180935B0182E90E94D70E909365018B
:101E10008093640184E90E94D70E90935E018093C1
:101E20005D0186E90E94D70E909361018093600165
:101E300088E90E94D70E90936D0180936C018AE926
:101E40000E94D70E90935601809355018CE90E9411
:101E5000D70E90936701809366018EE90E94D70E9A
:101E600090936901809368010895DF93CF930F9257
:101E7000CDB7DEB7682F80915F0141E09E012F5FF3
:101E80003F4F0E94421089810F90CF91DF910895BA
:101E9000982F462F80915F01692F0E941A10089594
:101EA000EF92FF920F931F93CF93DF938C01EB017F
:101EB0007A0180915F0164EF45E50E941A1088EB7A
:101EC00091E028EC30E0F9013197F1F70197D9F76B
:101ED000C801BE010E945F0BCE010E94790AF70182
:101EE000608371838283938381E0DF91CF911F911F
:101EF0000F91FF90EF9008950F931F93DF93CF936F
:101F00000F92CDB7DEB780935F0160ED41E08E01A7
:101F10000F5F1F4F98010E9442108981883511F090
:101F200080E010C00E94E00E80915F0165EF48E6FE
:101F30000E941A1080915F0165EF41E098010E94B4
:101F4000421081E00F90CF91DF911F910F91089582
:101F50009A01AB01A0E0B0E0BC01CD010E94FC18E9
:101F60002051304040405040569547953795279531
:101F70002093700010927100E4E7F0E080818460AB
:101F800080830895E4E7F0E080818B7F808308956B
:101F900084EA809374008091740087FFFCCF0895D9
:101FA00084E9809374008091740084FDFCCF0895CF
:101FB0008093730084E8809374008091740087FF9D
:101FC000FCCF80917100887F883159F08091710039
:101FD000887F883231F08091710090E0887F803472
:101FE00009F491E0892F0895FC01662321F0809186
:101FF0007400806403C0809174008F7B80937400B0
:10200000809174008068809374008091740087FFD1
:10201000FCCF80917100887F883539F08091710004
:10202000887F803511F080E008958091730080836F
:1020300081E008950F931F93982F162F042F84EAA1
:10204000809374008091740087FFFCCF892F880FE4
:102050000E94D80F812F0E94D80F802F0E94D80F86
:1020600080E29EE40197F1F784E980937400809107
:10207000740084FDFCCF80EE9EE20197F1F71F9182
:102080000F910895DF92EF92FF920F931F93CF93DA
:10209000DF93982F062FD42E790184EA8093740061
:1020A0008091740087FFFCCF192F110F812F0E94A0
:1020B000D80F802F0E94D80F84EA809374008091FB
:1020C000740087FFFCCF812F8F5F0E94D80FE7013C
:1020D00005C0CE0161E00E94F40F21969E012E19E9
:1020E0002D15B8F3DF91CF911F910F91FF90EF90D5
:1020F000DF90089508958DE10E945F0A08952F9260
:102100003F924F925F926F927F928F929F92AF9287
:10211000BF92CF92DF92EF92FF920F931F93DF93C4
:10212000CF93CDB7DEB7C356D0400FB6F894DEBF1D
:102130000FBECDBF188619861A861B8680E090E0F8
:10214000A0E0B0E08CA39DA3AEA3BFA388A799A7EE
:10215000AAA7BBA70E94760880E091E090937D013A
:1021600080937C0180E895E20E94631480E092E114
:1021700040EA56E861E070E00E94A80F8DE10E94FD
:102180005F0A0E948D128823E1F760E070E080E032
:1021900090E00E94B51387E70E947C0F8130E1F048
:1021A00080E090E0CD59DF4F0FB6F894DEBF0FBE50
:1021B000CDBFCF91DF911F910F91FF90EF90DF90F6
:1021C000CF90BF90AF909F908F907F906F905F90D7
:1021D0004F903F902F9008950E942E068FEF898395
:1021E00090E08E01045C1F4F7E010894E11CF11CFD
:1021F00019C0C701B8010E94E60589818F3FB9F077
:102200008E3FA9F020E030E0F901EE58FE4FD801F2
:10221000A20FB31F8C9180832F5F3F4F91E0283036
:10222000310591F78981882311F0992311F3A4E4F2
:102230004A2E512C4C0E5D1EF8E02F2E312C2C0E08
:102240003D1ECE010C96BE01605F7F4FAE014C5E1D
:102250005F4F0E94D609CE010296BE016C5F7F4F90
:10226000AE014A5F5F4F0E9493092C853D854E85E4
:102270005F85CA01B9010E94E2163B014C01288921
:1022800039894A895B89CA01B9010E94E2165B015A
:102290006C012C893D894E895F89CA01B9010E9470
:1022A000E2167B018C01C401B301A60195010E94D5
:1022B000A614A80197010E94A6140E9495176C8588
:1022C0007D858E859F85288939894A895B89EC8837
:1022D000FD880E891F89E8E1CE2ED12CCC0EDD1EA3
:1022E000BCE1AB2EB12CAC0EBD1EA0E28A2E912C0F
:1022F0008C0E9D1E0E941007288D398D4A8D5B8D96
:10230000CA01B9010E94E2163B014C012C8D3D8DA2
:102310004E8D5F8DCA01B9010E94E2165B016C010E
:1023200028A139A14AA15BA1CA01B9010E94E21604
:102330007B018C01C401B301A60195010E94A61482
:10234000A80197010E94A6140E949517688D798DA7
:102350008A8D9B8D2C8D3D8D4E8D5F8DE8A0F9A0D3
:102360000AA11BA1F4E2CF2ED12CCC0EDD1EE8E297
:10237000AE2EB12CAC0EBD1E0E941108CE018C9663
:10238000BE01605D7F4FAE014C5C5F4F0E94500FFD
:1023900080ED0E94350F82E791E060E20E94FF032A
:1023A00081E062E771E00E94C905882379F48EE438
:1023B00097E0E8ECF0E03197F1F70197D1F782E789
:1023C00091E0BE01685C7F4F0E942F048DB79EB7DD
:1023D00008970FB6F8949EBF0FBE8DBF4A815B81F0
:1023E0002C813D810E811F81CCA4DDA4EEA4FFA42D
:1023F00088A899A8AAA8BBA88CA99DA9AEA9BFA97D
:10240000EDB7FEB781839283A383B48388AD99AD82
:10241000AAADBBAD85839683A783B087C201B10106
:102420000E94C5088DB79EB708960FB6F8949EBF58
:102430000FBE8DBF488559856A857B85C2010E9484
:102440006209C2010E945E09FCCEDF92EF92FF9208
:102450000F931F93D82E7A018B0187FF0CC087E75B
:1024600040E050E060E070E00E942512823008F009
:102470004EC08FE7D822C09A8FEF8FB9779BFECFDF
:102480008FB1C0988FEF8FB9779BFECF8FB1DFB838
:10249000779BFECF8FB1812F9927AA27BB278FB9B2
:1024A000779BFECF8FB1C801AA27BB278FB9779B37
:1024B000FECF8FB1BB27A12F902F8F2D8FB9779B88
:1024C000FECF8FB1EFB8779BFECF8FB180E4D816E7
:1024D00011F485E906C088E4D81611F487E801C034
:1024E00081E08FB9779BFECF8FB18CE4D81629F4A9
:1024F0008FEF8FB9779BFECF8FB19AE02FEF2FB977
:10250000779BFECF8FB187FF02C09150C1F71F911B
:102510000F91FF90EF90DF900895CF92DF92EF92AE
:10252000FF920F931F93DF93CF9300D000D0CDB7CE
:10253000DEB787B3876087BBC39A6C9A699A709A33
:102540006E9AC09A8AE09FEF9FB9779BFECF2FB11A
:102550008150D1F780E440E050E060E070E00E94FC
:102560002512813009F073C088E44AEA51E060E046
:1025700070E00E9425128130B1F500E117E2A8EC6D
:10258000EA2EF12C06C0C7010197F1F70150104067
:1025900049F089EE40E050E060E070E40E942512CE
:1025A000882389F78AE740E050E060E070E00E940D
:1025B000251290E080239123892B09F065C0FE014C
:1025C00031969FEF9E012B5F3F4F9FB9779BFECFC8
:1025D0008FB18193E217F307C1F7898186FF2BC082
:1025E000FCE0FF2E2AC089EE40E050E060E070E0A1
:1025F0000E942512823028F0E1E4EE2EFF24F394AD
:1026000004C079EEE72E62E0F62E00E117E258EC06
:10261000C52ED12C06C0C6010197F1F7015010401C
:10262000B1F08E2D40E050E060E070E00E94251295
:10263000882389F704C044E0F42E012B41F080E5A3
:1026400040E052E060E070E00E9425128111FF241A
:10265000F0924F01C09A8FEF8FB9779BFECF8FB169
:10266000FF2011F481E003C06998709880E00F901A
:102670000F900F900F90CF91DF911F910F91FF90CE
:10268000EF90DF90CF90089534E0F32ED8CFAB01D8
:10269000BC0180914F0183FD07C0B9E0440F551F75
:1026A000661F771FBA95D1F7109251011092500111
:1026B0009FEF9FB9779BFECF8FB18F3FD1F782E518
:1026C0000E942512882311F081E008958FEF8FB9C1
:1026D000779BFECF9FB19F3FD1F380E09E3F09F0F3
:1026E00081E00895FC0140915001509151019B01FE
:1026F0009FEF9FB9779BFECF8FB1808321503040F1
:1027000011F03196F6CFCB01840F951F90935101B4
:10271000809350018050924059F49FEF9FB9779B6E
:10272000FECF8FB18E3FD1F7109251011092500120
:1027300080E008958CE440E050E060E070E00E94AA
:102740002512882311F091E008C09FEF9FB9779B75
:10275000FECF8FB18F3FD1F790E0C09A8FEF8FB946
:10276000779BFECF8FB1892F08951F93AB01BC01DA
:10277000109253011092520180914F0183FD07C0C6
:1027800019E0440F551F661F771F1A95D1F78FEF79
:102790008FB9779BFECF1FB11F3FD1F789E50E940C
:1027A0002512882311F081E00FC01FB9779BFECF5F
:1027B0008FB18FEF8FB9779BFECF8FB18CEF8FB931
:1027C000779BFECF8FB180E01F910895FC0140916F
:1027D0005201509153019B0181918FB9779BFECF9C
:1027E0008FB121503040C1F7CB01840F951F9093DA
:1027F0005301809352018050924011F080E008957F
:102800008FEF8FB9779BFECF8FB18FEF8FB9779B0B
:10281000FECF8FB19FEF9FB9779BFECF8FB18F3FD8
:10282000D1F38F71853011F081E00895109253013A
:10283000109252019FEF9FB9779BFECF8FB18F3FD0
:10284000D1F78CEF8FB9779BFECF8FB180E00895E1
:102850008091520190915301009731F40DC01FB83F
:10286000779BFECF2FB1019622E082309207B8F31A
:1028700090935301809352019FEF9FB9779BFECFB6
:102880008FB18F3FD1F38F71853011F081E00895C2
:102890009FEF9FB9779BFECF8FB18F3FD1F78DEF21
:1028A0008FB9779BFECF8FB18FEF8FB9779BFECF1C
:1028B0008FB19FEF9FB9779BFECF8FB18F3FD1F73D
:1028C000C09A80E008959C0140E050E060E271EA27
:1028D00087E090E00E94FC1821503040404050407A
:1028E000BB27A52F942F832F8093900029B988E1CF
:1028F0008AB986E08093950008955D9BFECF8CB9E0
:1029000008955F9BFECF8CB1089520E030E070E029
:1029100009C0FC01E20FF31FE0815D9BFECFECB923
:102920002F5F3F4F26173707A4F35E9BFECF089516
:102930001F93182F8A3019F48DE00E9498145D9B24
:10294000FECF1CB980E01F9108955058BB27AA27DD
:102950000ED0F7C1E8D130F0EDD120F031F49F3F37
:1029600011F41EF4B8C10EF4E095E7FBAEC1E92FF7
:10297000F9D180F3BA17620773078407950718F037
:1029800071F49EF511C20EF4E0950B2EBA2FA02D16
:102990000B01B90190010C01CA01A0011124FF270C
:1029A000591B99F0593F50F4503E68F11A16F04007
:1029B000A22F232F342F4427585FF3CF4695379506
:1029C0002795A795F0405395C9F77EF41F16BA0BCB
:1029D000620B730B840BBAF09150A1F0FF0FBB1F79
:1029E000661F771F881FC2F70EC0BA0F621F731FC2
:1029F000841F48F4879577956795B795F7959E3F1F
:102A000008F0B3CF9395880F08F09927EE0F9795AC
:102A10008795089588D158F080E891E009F49EEFF9
:102A200089D128F040E851E059F45EEF09C053C164
:102A3000BBC1E92FE07896D168F3092E052AC1F3CE
:102A4000261737074807590738F00E2E07F8E025F4
:102A500069F0E025E0640AC0EF6307F8009407FA24
:102A6000DB01B9019D01DC01CA01AD01EF9347D043
:102A700068D10AD05F91552331F02BED3FE049E456
:102A800050FD49EC63CF0895DF93DD27B92FBF7761
:102A900040E85FE31616170648075B0710F4D92FC6
:102AA0008AD19F938F937F936F937DD2ECE8F0E070
:102AB00015D147D12F913F914F915F918FD1DD2358
:102AC00049F09058A2EA2AED3FE049EC5FE3D07864
:102AD0005D274DDFDF9135C1D4D008F481E0089542
:102AE0000CD02FC127D140F01ED130F021F45F3F30
:102AF00019F0EBC0511159C1EEC034D198F39923AC
:102B0000C9F35523B1F3951B550BBB27AA276217B1
:102B10007307840738F09F5F5F4F220F331F441FF6
:102B2000AA1FA9F333D00E2E3AF0E0E830D091502E
:102B30005040E695001CCAF729D0FE2F27D0660F1B
:102B4000771F881FBB1F261737074807AB07B0E85A
:102B500009F0BB0B802DBF01FF2793585F4F2AF070
:102B60009E3F510568F0B1C020C15F3FECF3983E35
:102B7000DCF3869577956795B795F7959F5FC9F7CD
:102B8000880F911D9695879597F90895E1E0660F56
:102B9000771F881FBB1F621773078407BA0720F0CF
:102BA000621B730B840BBA0BEE1F88F7E095089538
:102BB000E1D088F09F5790F0B92F9927B751A0F036
:102BC000D1F0660F771F881F991F1AF0BA95C9F7C1
:102BD00012C0B13081F0E8D0B1E00895E5C0672FB0
:102BE000782F8827B85F39F0B93FCCF38695779571
:102BF0006795B395D9F73EF490958095709561955A
:102C00007F4F8F4F9F4F0895E89409C097FB3EF484
:102C100090958095709561957F4F8F4F9F4F992329
:102C2000A9F0F92F96E9BB279395F69587957795A7
:102C30006795B795F111F8CFFAF4BB0F11F460FF67
:102C40001BC06F5F7F4F8F4F9F4F16C0882311F0BF
:102C500096E911C0772321F09EE8872F762F05C0D3
:102C6000662371F096E8862F70E060E02AF09A956E
:102C7000660F771F881FDAF7880F9695879597F963
:102C80000895990F0008550FAA0BE0E8FEEF1616FD
:102C90001706E807F907C0F012161306E407F50750
:102CA00098F0621B730B840B950B39F40A2661F0C4
:102CB000232B242B252B21F408950A2609F4A14067
:102CC000A6958FEF811D811D089597F99F6780E874
:102CD00070E060E008959FEF80EC0895DF93CF935C
:102CE0001F930F93FF92EF92DF927B018C01689408
:102CF00005C0DA2EEF0172D0FE01E894A59125916E
:102D0000359145915591AEF3EF0131DEFE0197010A
:102D1000A801DA9479F7DF90EF90FF900F911F915F
:102D2000CF91DF91089500240A941616170618060D
:102D30000906089500240A941216130614060506BF
:102D40000895092E0394000C11F4882352F0BB0F50
:102D500040F4BF2B11F460FF04C06F5F7F4F8F4FB3
:102D60009F4F089557FD9058440F551F59F05F3FEE
:102D700071F04795880F97FB991F61F09F3F79F09D
:102D800087950895121613061406551FF2CF46951F
:102D9000F1DF08C0161617061806991FF1CF8695A1
:102DA0007105610508940895E894BB276627772785
:102DB000CB0197F908959B01AC0160E070E080E8D9
:102DC0009FE38ECE0BD0BDCFAEDF28F0B3DF18F07F
:102DD000952309F07ACF7FCF1124E7CFC3DFA0F38B
:102DE000959FD1F3950F50E0551F629FF001729FA0
:102DF000BB27F00DB11D639FAA27F00DB11DAA1FBF
:102E0000649F6627B00DA11D661F829F2227B00D0B
:102E1000A11D621F739FB00DA11D621F839FA00D96
:102E2000611D221F749F3327A00D611D231F849FE6
:102E3000600D211D822F762F6A2F11249F5750403D
:102E40008AF0E1F088234AF0EE0FFF1FBB1F661FD8
:102E5000771F881F91505040A9F79E3F510570F091
:102E600034CFA3CF5F3FECF3983EDCF386957795A4
:102E70006795B795F795E7959F5FC1F7FE2B880F8C
:102E8000911D9695879597F90895FA01EE0FFF1F0A
:102E900030962105310599F16115710561F480388D
:102EA000BFE39B0749F168949038810561F0803851
:102EB000BFEF9B0741F0992342F5FF3FE105310544
:102EC000210511F1E8940894E795D901AA2329F482
:102ED000AB2FBE2FF85FD0F310C0FF5F70F4A69544
:102EE000E0F7F73950F019F0FF3A38F49F779F93E5
:102EF0000CD00F9007FC905808953EF0ECCE60E0A7
:102F000070E080E89FE308954FE79F775F934F93CA
:102F10003F932F93CCD02F913F914F915F9152DFF0
:102F20004AC011F40EF4D7CE72C024DFD0F3992337
:102F3000D9F3CEF39F57550B87FF77D00024A0E637
:102F400040EA900180585695979528F4805C660F6A
:102F5000771F881F20F026173707480730F4621BB9
:102F6000730B840B202931294A2BA69517940794BB
:102F7000202531254A2758F7660F771F881F20F034
:102F800026173707480730F4620B730B840B200DAC
:102F9000311D411DA09581F7B901842F9158880FEB
:102FA0009695879508959B01AC010CCF19F40EF00E
:102FB0008CCEFACE90CEDEDEC8F39638C0F707F896
:102FC0000F92E8942BE33AEA48EB5FE709DF0F92B0
:102FD0000F920F924DB75EB70F92A9D0E9EBF0E0D8
:102FE0007DDE4F915F91EF91FF91E595EE1FFF1F01
:102FF00049F0FE57E0684427EE0F441FFA95E1F7C9
:103000004195550B1BD00F9007FED5CE08959F3FDD
:1030100031F0915020F4879577956795B795880F93
:10302000911D9695879597F9089591505040660F98
:10303000771F881FD2F7089548CEE9CF9BDEE8F3CB
:103040009923D9F3940F511DBBF39150504094F044
:1030500059F0882332F0660F771F881F9150504037
:10306000C1F79E3F510544F7880F911D96958795AE
:1030700097F908955F3FACF0983E9CF0BB2786958A
:1030800077956795B79508F4B1609395C1F7BB0F35
:1030900058F711F460FFE8CF6F5F7F4F8F4F9F4F5E
:1030A000E3CF83CE0EF0B3CF16CE68940ECE62DEA1
:1030B000C8F39923D1F3C6F3DF93CF931F930F93F4
:1030C000FF92C92FDD2788232AF02197660F771FEB
:1030D000881FDAF720E030E040E85FEB9FE38839B3
:1030E00020F0803E30F021968F7730DCE1EEF0E08A
:1030F00003C02CDCEEE0F1E0F1DD8B01BE01EC0160
:10310000FB2E6F5771097595771F880B990B7EDD24
:1031100028E132E741E35FE361DEAF2D9801AE01C4
:10312000FF900F911F91CF91DF9121DC0ACEFA0120
:10313000DC01AA0FBB1F9B01AC01BF5728F422275B
:103140003327442750781FC0B75188F4AB2F002491
:10315000469537952795011CA395D2F3002069F079
:10316000220F331F441FB395DAF30DD0EECB61303D
:103170007105A0E88A07B94630F49B01AC016627C7
:10318000772788279078309621F0208331834283F7
:1031900053830895629FD001739FF001829FE00DD9
:1031A000F11D649FE00DF11D929FF00D839FF00DC6
:1031B000749FF00D659FF00D9927729FB00DE11D72
:1031C000F91F639FB00DE11DF91FBD01CF0111244F
:1031D000089597FB092E07260AD077FD04D02ED03C
:1031E00006D000201AF4709561957F4F0895F6F788
:1031F000909581959F4F0895A1E21A2EAA1BBB1BA3
:10320000FD010DC0AA1FBB1FEE1FFF1FA217B307B2
:10321000E407F50720F0A21BB30BE40BF50B661FC8
:10322000771F881F991F1A9469F76095709580958C
:1032300090959B01AC01BD01CF010895AA1BBB1B5A
:1032400051E107C0AA1FBB1FA617B70710F0A61BA6
:10325000B70B881F991F5A95A9F780959095BC01C7
:08326000CD010895F894FFCFA1
:1032680000000002000000009814000000000000A8
:1032780000000000000000000000F853E3BD00005B
:1032880020BFDD2406BF7F6A7C3FBC74133CA69B2D
:10329800443C0AD7A3BBD7A3803FA69BC4BB0AD78D
:0A32A800233C6F1283BA986E823F38
:00000001FF
