:100000000C9408010C9427010C9427010C942701EF
:100010000C9427010C9427010C9427010C942701C0
:100020000C9427010C9427010C9427010C942701B0
:100030000C9427010C9427010C9427010C942701A0
:100040000C9427010C9427010C9427010C94270190
:100050000C9427010C9427010C9427010C94270180
:100060000C9427010C9427010C9427010C94270170
:100070000C9427010C9427010C9427010C94270160
:100080000C9427010C9427010C9427010763423636
:10009000B79BD8A71A39685618AEBAAB558C1D3C19
:1000A000B7CC5763BD6DEDFD753EF6177231BF00DD
:1000B0000000803F08000000BE922449123EABAA17
:1000C000AA2ABECDCCCC4C3E00000080BEABAAAA72
:1000D000AA3E00000000BF000000803F00000000BA
:1000E00000084178D3BB4387D1133D190E3CC3BDF3
:1000F0004282AD2B3E68EC8276BED98FE1A93E4CA0
:1001000080EFFFBE01C4FF7F3F00000000006E6172
:100110006E00696E660000407A10F35A00A0724EBD
:1001200018090010A5D4E80000E87648170000E49C
:100130000B54020000CA9A3B000000E1F5050000E4
:1001400080969800000040420F000000A086010049
:100150000000102700000000E80300000000640019
:10016000000000000A000000000001000000000084
:100170002C76D888DC674F0823DFC1DFAE59E1B1A8
:10018000B796E5E3E453C63AE651997696E8E6C2B7
:100190008426EB898C9B62ED407C6FFCEFBC9C9FBE
:1001A00040F2BAA56FA5F490055A2AF75C936B6CE0
:1001B000F9676DC11BFCE0E40D47FEF520E6B500D4
:1001C000D0ED902E0300943577050080841E080042
:1001D00000204E0A000000C80C333333330F986EF2
:1001E00012831141EF8D2114893BE65516CFFEE6AF
:1001F000DB18D1844B381BF77C1D901DA4BBE42475
:10020000203284725E228100C9F124ECA1E53D27F1
:1002100011241FBECFEFD0E1DEBFCDBF13E0A0E0C1
:10022000B1E0E0ECFDE200E00BBF02C007900D92F0
:10023000A83BB107D9F723E0A8EBB3E001C01D92BA
:10024000A53EB207E1F70E94F10E0C94DE160C9465
:1002500000002F923F924F925F926F927F928F9207
:100260009F92AF92BF92CF92DF92EF92FF920F9345
:100270001F93CF93DF93CDB7DEB763970FB6F89494
:10028000DEBF0FBECDBF7C011B016A01FC011782DE
:100290001682838181FF66C3BE016F5F7F4F4B0172
:1002A000F7019381F10193FD859193FF81911F01E6
:1002B000882309F453C3853239F493FD859193FF64
:1002C00081911F01853239F4B70190E00E940F1629
:1002D00056016501E5CF10E0512C20E02032A0F45A
:1002E0008B3269F030F4803259F0833269F4206146
:1002F0002CC08D3239F0803339F4216026C0226061
:10030000246023C0286021C027FD27C030ED380FAE
:100310003A3078F426FF06C0FAE01F9F300D112412
:10032000132F13C06AE0569E300D1124532E206205
:100330000CC08E3221F426FD11C3206406C08C3619
:1003400011F4206802C0883641F4F10193FD8591D3
:1003500093FF81911F018111C1CF9BEB980F9330C7
:1003600018F42061805E06C09BE9980F933008F076
:10037000AAC12F7E26FF16E02F73722E853621F438
:10038000F22FF0647F2E08C0863621F4622F606859
:10039000762E02C01111115077FE07C01C3348F4AD
:1003A00044244394410E27E00BC0183030F4212F31
:1003B00006C027E04CE3442E03C027E017E0412CA1
:1003C000560174E0A70EB11CF60160817181828133
:1003D0009381042DA4010E9421156C01098100FF65
:1003E00002C003FF06C071FC07C072FC08C0612C8C
:1003F00008C03DE2632E05C02BE2622E02C090E2EF
:10040000692E802F8C7099F1662011F084E001C074
:1004100083E0851510F0512C0BC0581A73FC08C0EE
:10042000B70180E290E00E940F165A94C9F7F3CF0B
:10043000662029F0B701862D90E00E940F1603FD7B
:1004400003C002E111E002C00EE011E0F72DF071EF
:100450007F2EF8018491882309F476C271108052AE
:10046000B70190E00E940F160F5F1F4FF2CF77FE8B
:100470000FC04C0C04FF04C08A81813309F44A94F4
:10048000141474F5F8E0F41578F588E0482E2CC0C3
:1004900076FC2AC0812F90E08C159D059CF06CEFB6
:1004A000C6166FEFD60674F0772D7068772E0AC0E7
:1004B000E2E0F0E0EC0FFD1FE10FF11D80818033E1
:1004C00019F411501111F4CF77FE0EC04424439457
:1004D000410E812F90E0C816D9062CF41C1904C0D7
:1004E0004424439401C010E077FE07C01C141D048F
:1004F0003CF496012F5F3F4F05C025E030E002C07D
:1005000021E030E0662011F02F5F3F4F112331F0E2
:10051000412F50E04F5F5F4F240F351F452D50E0B6
:100520002417350714F4521A01C0512C872D8970F5
:1005300049F4552039F0B70180E290E00E940F168F
:100540005A94F7CF662029F0B701862D90E00E94DB
:100550000F1673FC09C0552039F0B70180E390E015
:100560000E940F165A94F7CF77FE5FC09C2D8D2DF9
:10057000D7FE02C090E080E0692E782E40E050E087
:10058000C601841991099D878C8796012619370920
:10059000280D391D812F90E0EE27FF27E81BF90B6E
:1005A000FF87EE87FFEF6F167F0669F4B7018EE2D3
:1005B00090E02B8B3A8B488B598B0E940F165989F0
:1005C00048893A892B89C614D70454F06C857D85F7
:1005D000661577052CF4F901E40FF51F818101C040
:1005E00080E371E0671A71084F5F5F4FEE85FF850A
:1005F0006E167F066CF0B70190E02B8B3A8B488B20
:10060000598B0E940F162B893A8948895989CACF7C
:100610006C147D0439F49A81963318F4953311F4EF
:1006200004FF81E3B70190E04BC08A81813309F078
:100630000F7EB70190E00E940F16111105C074FEE5
:1006400018C085E490E017C0B7018EE290E00E94E8
:100650000F1682E066246394680EF401E80FF11D22
:100660008081B70190E00E940F16115041F3862D52
:10067000F1CF85E690E0B7010E940F16D7FC05C0C8
:10068000C114D10439F404FF05C0D194C194D10838
:100690008DE201C08BE2B70190E00E940F1680E36B
:1006A0006AE0C616D1042CF08F5FFAE0CF1AD108A9
:1006B000F7CFB70190E00E940F16B701C601C096B0
:1006C0000E940F1641C1833631F0833779F08335AC
:1006D00009F058C021C0560172E0A70EB11CF60106
:1006E0008081898301E010E0640114C05601F2E0CA
:1006F000AF0EB11CF601C080D18026FF03C0612F70
:1007000070E002C06FEF7FEFC6012B8B0E940416D2
:100710008C012B892F7715C05601F2E0AF0EB11C6A
:10072000F601C080D18026FF03C0612F70E002C0B7
:100730006FEF7FEFC6012B8B0E94F9158C012B897F
:100740002068722E23FD1AC0852D90E00817190726
:10075000A8F4B70180E290E00E940F165A94F4CFFB
:10076000F60177FC859177FE81916F01B70190E0EA
:100770000E940F1651105A940150110901151105CC
:1007800079F7E2C0843611F0893651F5560127FF1A
:1007900009C0F4E0AF0EB11CF60160817181828165
:1007A00093810AC0F2E0AF0EB11CF6016081718145
:1007B000882777FD8095982F022F0F7697FF08C026
:1007C00090958095709561957F4F8F4F9F4F0068F2
:1007D0002AE030E0A4010E948016C82EC8183EC04E
:1007E000022F853721F40F7E2AE030E01DC0097FFB
:1007F0008F3691F018F4883559F0B0C0803719F071
:10080000883711F0ABC0006104FF09C0046007C065
:1008100024FF08C0066006C028E030E005C020E1E3
:1008200030E002C020E132E0560107FF09C0F4E0E9
:10083000AF0EB11CF601608171818281938108C085
:10084000F2E0AF0EB11CF6016081718180E090E0B2
:10085000A4010E948016C82EC8180F7706FF0BC08F
:10086000202F2E7FC11650F404FF0AC002FD08C0DD
:10087000202F2E7E05C0DC2C202F03C0DC2C01C0D5
:10088000D12E24FF0DC0FE01EC0DF11D80818033BF
:1008900011F4297E09C022FF06C0D394D39404C06A
:1008A000822F867809F0D39423FD13C020FF06C061
:1008B0001C2DD51418F4150D1D19D52CD51468F45C
:1008C000B70180E290E02B8B0E940F16D3942B8906
:1008D000F5CFD51410F45D1801C0512C24FF12C0BF
:1008E000B70180E390E02B8B0E940F162B8922FF2B
:1008F00017C021FF03C088E590E002C088E790E0C0
:10090000B7010CC0822F867859F021FD02C080E229
:1009100001C08BE227FD8DE2B70190E00E940F1627
:10092000C11638F4B70180E390E00E940F16115011
:10093000F7CFCA94F401EC0DF11D8081B70190E06E
:100940000E940F16C110F5CF552009F4C2CCB70193
:1009500080E290E00E940F165A94F6CFF70186814C
:10096000978102C08FEF9FEF63960FB6F894DEBFBA
:100970000FBECDBFDF91CF911F910F91FF90EF90F0
:10098000DF90CF90BF90AF909F908F907F906F90AF
:100990005F904F903F902F900895FB01218130E0B0
:1009A000322F22279081292B803171F4A9014E7FAB
:1009B00063E0440F551F6A95E1F796812CE030E023
:1009C000291B3109240F351F37FF05C031952195AB
:1009D0003109A1E001C0A0E0883211F0823269F44F
:1009E00084818076803231F0803431F0811105C00D
:1009F000287F03C02C7F01C02E7FC90144E096955B
:100A000087954A95E1F76AE0689FA001699F500DBC
:100A100011242F70332760E872E0269FC001279FC2
:100A2000900D369F900D1124A11101C09E5F9C0175
:100A3000232F332726952695240F351FAA2319F037
:100A4000319521953109C9018A5D9D4F89309740C3
:100A500018F080ED97E00895C9010895FF920F9373
:100A60001F93CF93DF93062FF72EBC018EEB0E94CE
:100A70005408C02FDF2D19E00E940A0889931150F5
:100A8000D9F769E070E0802F9F2D0E944C078823E2
:100A900011F083E001C080E0DF91CF911F910F91B1
:100AA000FF9008950F931F93CF93DF93EC018B0179
:100AB000B80188810E940D08888381508D3F48F4D9
:100AC000F8018081883239F0803129F0823281F753
:100AD00002C081E001C080E0DF91CF911F910F91B2
:100AE0000895CF93DF93EC010E949207BE0184EB3F
:100AF0000E94540881E00E94AF07C82F0E9492070D
:100B000081E0C11101C080E0DF91CF9108951F9372
:100B1000CF93DF9300D0CDB7DEB7182F69837A83E8
:100B20000E9492070E94650769817A81882351F0AB
:100B300084E4113019F00E94570802C00E94540842
:100B400080E001C082E00F900F90DF91CF911F9164
:100B5000089581E00E94AF0791E0811190E0892F14
:100B60000895EF92FF920F931F93CF93DF93CDB72A
:100B7000DEB727970FB6F894DEBF0FBECDBF8B014F
:100B8000473008F460C09C0129513C4F273F3A424E
:100B900008F059C097FF06C0919581959109EE2400
:100BA000E39401C0E12CF12C6AE070E00E94351161
:100BB00021E02F0DE1E0F0E0EC0FFD1FEF0DF11D46
:100BC000F7FCFA95805D8083862F972F18161906FB
:100BD00014F4F22EE9CF822F992787FD9095E1E05A
:100BE000F0E0EC0FFD1FE80FF91FEE2029F03DE2C9
:100BF000308330E06EE21DC03BE2FACF41E0430FAC
:100C00005FEF520FD801A80FB91FE1E0F0E0EC0F41
:100C1000FD1FE20FF11D27FDFA9520812C93511144
:100C200006C0F801E40FF11D608342E0430F342F4A
:100C3000252F832F90E027FFE1CFF801E80FF91F60
:100C4000108280E001C081E027960FB6F894DEBFE5
:100C50000FBECDBFDF91CF911F910F91FF90EF900D
:100C60000895DF92EF92FF920F931F93CF93DF933C
:100C7000CDB7DEB729970FB6F894DEBF0FBECDBF54
:100C80008C017B010E949207BE016F5F7F4FC801FC
:100C90000E942E05D82E81110AC0BE016F5F7F4FC2
:100CA000F80180810E94CD04F701918380838D2D0E
:100CB00029960FB6F894DEBF0FBECDBFDF91CF915E
:100CC0001F910F91FF90EF90DF900895EF92FF92A8
:100CD0000F931F93CF93DF93CDB7DEB729970FB64E
:100CE000F894DEBF0FBECDBFE82E8B01BE016F5F53
:100CF0007F4F80E090E00E942E05F82E811109C000
:100D0000BE016F5F7F4F8E2D0E94CD04F80191834D
:100D100080838F2D29960FB6F894DEBF0FBECDBF0E
:100D2000DF91CF911F910F91FF90EF900895DF9287
:100D3000EF92FF920F931F93CF93DF93CDB7DEB760
:100D400029970FB6F894DEBF0FBECDBF7C018B0193
:100D50000E949207BE016F5F7F4FC7010E942E0560
:100D6000D82E811159C0F70180814A8150E0542F5B
:100D700044279981492B803171F49A012E7FF3E049
:100D8000220F331FFA95E1F79F814CE050E0491B99
:100D90005109420F531F57FF06C051954195510904
:100DA000FF24F39401C0F12C883211F0823269F4EF
:100DB0008D818076803231F0803431F0811105C030
:100DC000487F03C04C7F01C04E7F9A01E4E0369516
:100DD0002795EA95E1F7A0E1B7E20E946B114F7009
:100DE0005527E1E7F2E04E9F90014F9F300D5E9F47
:100DF000300D1124620F731F811D911DFF2039F0EA
:100E000090958095709561957F4F8F4F9F4FF8011A
:100E100060837183828393838D2D29960FB6F89416
:100E2000DEBF0FBECDBFDF91CF911F910F91FF901D
:100E3000EF90DF900895FF920F931F93CF93DF936E
:100E4000EC01162FF42E022F0E9492070E946507D4
:100E5000882399F0BE018EE40E945408812F0E94DD
:100E6000B3078F2D0E94B3079881983211F0923208
:100E700031F4802F0E94B30702C081E001C080E0FE
:100E8000DF91CF911F910F91FF900895262F2F6131
:100E900040E060E00C941B07FC01680F791F80E0C4
:100EA00048E1E617F70781F0219198E0322F3827C3
:100EB000532F517030FD84278695513009F4806896
:100EC0002695915099F7EDCF089586B380780895CF
:100ED000C79ABF9A0895CF93DF93DFB7F894BF9A6C
:100EE00095E09A95F1F700008111BF9892E29A95EA
:100EF000F1F700C0C6B3CC0FCC0BC82382E78A95AC
:100F0000F1F700C0BF9861110E946807DFBF9AE146
:100F10009A95F1F700C08C2FDF91CF910895BF987B
:100F2000C7980895C798BF9A8FEB93E00197F1F7A0
:100F300000C000009FB7F894BF98EAEAEA95F1F77D
:100F400000C086B39FBFEFE3F3E03197F1F700C035
:100F50000000B79B02C08078089581E0089560E0AA
:100F600081700C946B07CF93DF93C82FD8E08C2F40
:100F700081700E94AF07C6958111C068D150B9F742
:100F80008C2FDF91CF910895CF93DF93C82FD8E0B6
:100F90008C2F8170D13011F060E001C061E00E94BF
:100FA0006B07C6958111C068D15091F78C2FDF91E6
:100FB000CF910895EF92FF920F931F93CF93DF93FA
:100FC000F82EEB01E42E0E949207209769F085E548
:100FD0000E94B3078E01085F1F4F89910E94B307DB
:100FE000C017D107D1F703C08CEC0E94B3078F2D37
:100FF000EE2041F0DF91CF911F910F91FF90EF9084
:101000000C94C407DF91CF911F910F91FF90EF9047
:101010000C94B3078FEF0C94B307DF92EF92FF921B
:101020000F931F93CF93DF93E82EEB010E9492075B
:1010300081112FC080EF0E94B307F12C10E488EFDC
:10104000D82ED10E81E00E94AF07082F81E00E94C8
:10105000AF07882319F0002361F01DC0011109C0FA
:101060001E1528F0888180FF04C0E11611F0F12ED2
:1010700001E0802F0E94AF0798819695011190683A
:10108000988311501D11DECF21961111D8CF8F2DCD
:1010900003C08FEF01C08EEFDF91CF911F910F91B1
:1010A000FF90EF90DF90089540E00C94DA0741E064
:1010B0000C94DA07CF93DF931F92CDB7DEB7198276
:1010C0009E012F5F3F4F41E060E08091B9030E9495
:1010D0006F0E81E09981953E09F080E00F90DF91DD
:1010E000CF9108954BE061E38091B9030C94440ED5
:1010F00048E06DE28091B9030C94440E8093B903EB
:101100000E945A08882361F048E06CE28091B9039C
:101110000E94440E0E9472080E94780881E008959F
:1011200080E00895CF92DF92EF92FF920F931F938A
:10113000CF93DF9300D000D000D0CDB7DEB78C01C5
:101140007B016A019E012F5F3F4F46E062E3809181
:10115000B9030E946F0E2A8130E0322F2227898145
:10116000282BF801318320838C8190E0982F8827E9
:101170002B81822BF701918380838E8190E0982FC1
:1011800088272D81822BF6019183808326960FB6C6
:10119000F894DEBF0FBECDBFDF91CF911F910F91AD
:1011A000FF90EF90DF90CF900895CF92DF92EF9273
:1011B000FF920F931F93CF93DF9300D000D000D006
:1011C000CDB7DEB76C017B018A01AE014F5F5F4F87
:1011D000BE016D5F7F4FCE0105960E9492086D8122
:1011E0007E81882777FD8095982F0E9460122DECD4
:1011F0003CEC4CE15DE30E941013F60160837183C7
:10120000828393836B817C81882777FD8095982FDB
:101210000E9460122DEC3CEC4CE15DE30E94101347
:10122000F701608371838283938369817A81882740
:1012300077FD8095982F0E9460122DEC3CEC4CE1DC
:101240005DE30E941013F8016083718382839383AE
:1012500026960FB6F894DEBF0FBECDBFDF91CF91BB
:101260001F910F91FF90EF90DF90CF900895462F40
:10127000682F8091C4030C94440ECF93DF931F9288
:10128000CDB7DEB79E012F5F3F4F41E0682F8091C1
:10129000C4030E946F0E89810F90DF91CF91089552
:1012A000CF93DF9300D0CDB7DEB79E012F5F3F4FC6
:1012B00042E0682F8091C4030E946F0E898190E004
:1012C000982F88272A81822B0F900F90DF91CF9142
:1012D00008950E94500998278927982708950C940B
:1012E0006909CF93DF9300D01F92CDB7DEB79E017F
:1012F0002F5F3F4F43E0682F8091C4030E946F0E21
:101300006981862F90E0A0E0B0E0BA2FA92F982F36
:1013100088272A81822B6627782F892F9A2F2B8165
:10132000622B0F900F900F90DF91CF91089588E876
:101330000E9469099093BD038093BC038AE80E94D0
:1013400069099093BF038093BE038CE80E946909EA
:101350009093D0038093CF038EE80E946909909305
:10136000C8038093C70380E90E9469099093C10371
:101370008093C00382E90E9469099093CA03809315
:10138000C90384E90E9469099093C3038093C2034F
:1013900086E90E9469099093C6038093C50388E992
:1013A0000E9469099093D2038093D1038AE90E9435
:1013B00069099093BB038093BA038CE90E94690981
:1013C0009093CC038093CB038EE90E94690990939C
:1013D000CE038093CD0308958093C40380ED0E94D3
:1013E0003D09883559F40E94970968E685EF0E9407
:1013F000370985EF0E943D0981E0089580E0089556
:101400008F929F92AF92BF92CF92DF92EF92FF9214
:101410008AEF0E9471092091BC033091BD036901DC
:10142000E12CF12C872E982EA92EBB24A7FCBA9470
:101430008C189D08AE08BF089B01AC0167E055956C
:101440004795379527956A95D1F7D701C601880F3B
:10145000991FAA1FBB1F281B390B4A0B5B0BA091BE
:10146000BE03B091BF030E9485116B017C01EBE0CC
:10147000F594E794D794C794EA95D1F7A501940120
:10148000C501B4010E9411119B01AC01FCE055950E
:10149000479537952795FA95D1F7A091CF03B0914D
:1014A000D0030E948511AEE0959587957795679555
:1014B000AA95D1F7C60ED71EE81EF91EC092D30317
:1014C000D092D403E092D503F092D603A5E0B0E029
:1014D000A70196010E947A1160587F4F8F4F9F4F4E
:1014E000672F782F892F992787FD9A95FF90EF9086
:1014F000DF90CF90BF90AF909F908F9008952F92E4
:101500003F924F925F926F927F928F929F92AF9293
:10151000BF92CF92DF92EF92FF920F931F93CF93E0
:10152000DF9300D000D0CDB7DEB70E94000A87EF6E
:101530000E94710969837A838B839C838090D30393
:101540009090D403A090D503B090D603B594A794FF
:10155000979487948AEF981AA108B108C501B4013D
:10156000F2E09595879577956795FA95D1F79B0168
:10157000AC010E9411116B017C01E091D103F0914B
:10158000D2032090C5033090C6030091C20310918E
:10159000C303A091C903B091CA039B01AC018DE0C4
:1015A00055954795379527958A95D1F70E948511CE
:1015B0002B013C0193E075946794579447949A9556
:1015C000D1F7A091C003B091C103A50194010E947D
:1015D00085119595879577956795460E571E681ED8
:1015E000791E32E175946794579447943A95D1F7F0
:1015F00080E8580E611C711CA091C703B091C8030C
:10160000A30192010E947A112B013C014FE07594D5
:101610006794579447944A95D1F741145104610453
:10162000710409F4C0C0A70196016BE05595479578
:10163000379527956A95D1F7DF010E9485116B01D7
:101640007C01D101A50194010E948511660F771FCD
:10165000881F991FC60ED71EE81EF91EF2E0F594EA
:10166000E794D794C794FA95D1F789819A81AB8191
:10167000BC8124E0B595A795979587952A95D1F7D4
:1016800022273327A901281B390B4A0B5B0BC80102
:10169000AA2797FDA095BA2FDC0199278827C80EA5
:1016A000D91EEA1EFB1E7CE0F594E794D794C794FC
:1016B0007A95D1F72C193D094E095F09A5E3BCE0E5
:1016C0000E947A11805B9C4397FD0BC0660F771FC9
:1016D000881F991FA30192010E94491149015A01D3
:1016E0000AC0A30192010E94491149015A01880CC4
:1016F000991CAA1CBB1CC501B40113E096958795E3
:10170000779567951A95D1F7E091CD03F091CE03C7
:101710009B01AC010E9411119B01AC010DE056959B
:101720004795379527950A95D1F7DF010E948511D6
:101730006B017C018CE0F594E794D794C7948A956B
:10174000D1F7A501940192E05695479537952795D5
:101750009A95D1F7A091CB03B091CC030E9485114B
:101760002DE095958795779567952A95D1F7C60EC3
:10177000D71EE81EF91E8091BA039091BB03AA27D9
:1017800097FDA095BA2FC80ED91EEA1EFB1E34E0A5
:10179000F594E794D794C7943A95D1F7C80CD91C1F
:1017A000EA1CFB1C03C0C12CD12C7601C701B60179
:1017B0000F900F900F900F90DF91CF911F910F918D
:1017C000FF90EF90DF90CF90BF90AF909F908F9061
:1017D0007F906F905F904F903F902F9008952F9241
:1017E0003F924F925F926F927F928F929F92AF92B1
:1017F000BF92CF92DF92EF92FF920F931F93CF93FE
:10180000DF93CDB7DEB728970FB6F894DEBF0FBED3
:10181000CDBF8C0178876F830E94000AF801608336
:1018200071838283938387EF0E94710969837A832E
:101830008B839C836091D3037091D4038091D503F3
:101840009091D6030E94601220E030E040E05FE318
:101850000E94101320E030E04AE757E40E948D1107
:101860006B017C010091D1031091D2032090C5033C
:101870003090C6032091C2033091C3033E832D8371
:101880006091C9037091CA03882777FD8095982FCE
:101890000E946012A70196010E941013A7019601F1
:1018A0000E94101320E030E040E056E30E94101345
:1018B0004B015C016091C0037091C103882777FDE3
:1018C0008095982F0E946012A70196010E94101324
:1018D0009B01AC01C501B4010E948E1120E030E0F3
:1018E00040E056E30E94101320E030E040E058E36F
:1018F0000E94101320E030E040E85FE30E948E1168
:101900004B015C016091C7037091C80380E090E0D7
:101910000E945E129B01AC01C501B4010E9410132C
:101920004B015C0120E030E0A9010E94F21181111D
:1019300007C0EF81F8851082118212821382DAC00B
:10194000A7019601C701B6010E9410132B013C01AB
:10195000B801882777FD8095982F0E9460129B011F
:10196000AC01C301B2010E94101320E030E040E05E
:1019700058E30E9410132B013C01B101882777FD29
:101980008095982F0E9460129B01AC01C701B6019F
:101990000E9410139B01AC010E948E119B01AC01AF
:1019A000C301B2010E948E1120E030E040E85EE306
:1019B0000E9410136B017C0169817A818B819C816B
:1019C00054E095958795779567955A95D1F70E943C
:1019D00060129B01AC0160E070E080E899E40E9435
:1019E0008D112B013C012D813E81B901882777FDA6
:1019F0008095982F0E94601220E030E040E857E484
:101A00000E9410139B01AC01C701B6010E948E1108
:101A100020E030E040E859E30E9410139B01AC0144
:101A2000C301B2010E948D1120E030E543EC55E482
:101A30000E941013A50194010E94F6116B017C0114
:101A40006091CD037091CE03882777FD8095982F04
:101A50000E946012A70196010E941013A70196012F
:101A60000E94101320E030E040E050E30E94101389
:101A70004B015C016091CB037091CC03882777FD0B
:101A80008095982F0E9460129B01AC01C701B6019E
:101A90000E94101320E030E040E058E30E94101351
:101AA0009B01AC01C501B4010E948E114B015C0188
:101AB0006091BA037091BB03882777FD8095982FBA
:101AC0000E9460129B01AC01C501B4010E948E11FD
:101AD00020E030E040E85DE30E9410139B01AC0180
:101AE000C701B6010E948E11EF81F8856083718372
:101AF0008283938328960FB6F894DEBF0FBECDBFC6
:101B0000DF91CF911F910F91FF90EF90DF90CF90D9
:101B1000BF90AF909F908F907F906F905F904F900D
:101B20003F902F90089520E836EE45EC57E4FC01F5
:101B300060817181828193810E94F61122E63BEDE2
:101B400042E45EE30E9473139B01AC0160E070E02D
:101B500080E89FE30E948D1120E03AE24DE257E4D5
:101B60000E9410130895EF92FF920F931F93CF934B
:101B7000DF937C01EB018A0165E584EF0E94370960
:101B80002FEF82E191E0215080409040E1F700C0CA
:101B90000000BE01C7010E94EF0BCE010E94930D11
:101BA000F801608371838283938381E0DF91CF9119
:101BB0001F910F91FF90EF9008950E9421116051A5
:101BC0007109769567956093700010927100E4E753
:101BD000F0E08081846080830895E4E7F0E0808114
:101BE0008B7F8083089584EA8093740080917400D1
:101BF00087FFFCCF089584E980937400809174007E
:101C000084FDFCCF08958093730084E88093740072
:101C10008091740087FFFCCF80917100887F8831AC
:101C200069F080917100887F883241F09091710055
:101C3000987F81E0903419F080E0089581E0089564
:101C400020917400662311F0206401C02F7B209343
:101C50007400209174002068209374002091740017
:101C600027FFFCCF20917100287F283529F0209193
:101C70007100287F203531F420917300FC0120830E
:101C800081E0089580E00895CF93DF9300D01F9204
:101C9000CDB7DEB74B836A8389830E94F30D8981B8
:101CA000880F0E94030E6A81862F0E94030E4B81CB
:101CB000842F0E94030E8FE19EE40197F1F700C08C
:101CC00000000E94FB0DEFEDFEE23197F1F700C03E
:101CD00000000F900F900F90DF91CF910895EF9239
:101CE000FF920F931F93CF93DF9300D0CDB7DEB752
:101CF000F82E042F122F3A8369830E94F30DFF0CF4
:101D00008F2D0E94030E6981862F0E94030E0E9470
:101D1000F30D81E08F0D0E94030EE12E3A81F32E28
:101D20008E2D811B801740F461E0C7010E94200EB8
:101D30008FEFE81AF80AF4CF0F900F90DF91CF9150
:101D40001F910F91FF90EF900895CF93C82F8A3085
:101D500019F48DE00E94A50E8C2F0E94EC1080E0FB
:101D6000CF91089560EA76E880E092E10E94DD0D6F
:101D70008DE10E947E08813019F48EE091E002C06E
:101D80008BE191E09F938F930E9441160F900F90EB
:101D90000895FC0187811F928F9386811F928F93F4
:101DA00085811F928F9384811F928F9383811F92CD
:101DB0008F9382811F928F9381811F928F93808155
:101DC0001F928F938CE291E09F938F930E94411614
:101DD0008DB79EB742960FB6F8949EBF0FBE8DBFCB
:101DE00008953F924F925F926F927F928F929F924F
:101DF000AF92BF92CF92DF92EF92FF920F931F9319
:101E0000CF93DF93CDB7DEB7A2970FB6F894DEBFBE
:101E10000FBECDBF80E895E20E94D21080E091E035
:101E20009093E2038093E1030E94B20E60EA76E8A9
:101E300080E092E10E94DD0D85E591E00E9453165D
:101E400087E70E94EC09813009F08EC186E691E0B7
:101E50000E9453168BE791E00E94531687E991E0A8
:101E60000E94531683EC91E00E9453160E94920741
:101E70008FEF8987312C8E01075F1F4F898588235B
:101E800019F131101FC0BE016F5F7F4FC8010E9462
:101E9000520589858F3F19F48CED91E004C08E3F87
:101EA00029F48CEE91E00E9453160EC0FE0131968B
:101EB000A7EDB3E081918D93E017F107D9F73324B3
:101EC0003394DCCF332433941F923F9286EF91E01A
:101ED0009F938F930E9441160F900F900F900F9039
:101EE00080E392E00E945316AE014B5E5F4FBE014D
:101EF000675E7F4FCE014D960E94D50888A18F93D3
:101F00008F8D8F938E8D8F938D8D8F93A6E6B2E0FC
:101F1000BF93AF930E9441168C8D8F938B8D8F93BF
:101F20008A8D8F93898D8F93A1E7B2E0BF93AF9392
:101F30000E944116888D8F938F898F938E898F93FE
:101F40008D898F93ACE7B2E0BF93AF930E944116A7
:101F50006D8D7E8D8F8D98A1898C9A8CAB8CBC8C6D
:101F6000CD88DE88EF88F88C9B01AC010E941013AD
:101F70002B013C01A5019401C501B4010E9410137D
:101F80009B01AC01C301B2010E948E114B015C01A7
:101F9000A7019601C701B6010E9410139B01AC0175
:101FA000C501B4010E948E110E94C3139F938F93A9
:101FB0007F936F93A7E8B2E0BF93AF930E9441165F
:101FC00089E992E00E945316A801BE01635F7F4F2A
:101FD000CE0141960E94B30D0FB6F894DEBF0FBE3E
:101FE000CDBF813021F58C858F938B858F938A852A
:101FF0008F9389858F9388898F938F858F938E8513
:102000008F938D858F938C898F938B898F938A89FA
:102010008F9389898F93ABECB2E0BF93AF930E940B
:1020200041160FB6F894DEBF0FBECDBF04C081EFDE
:1020300092E00E94531680ED0E943D091F928F93FB
:10204000ABE0B3E0BF93AF930E94411688E193E009
:102050000E9453160F900F900F900F90332009F4A9
:1020600079C01F9281E08F938AE493E09F938F93CE
:102070000E94411687ED93E00E94C90E60E687ED4D
:1020800093E00E94460767ED73E081E00E948705B8
:102090000F900F900F900F90811158C03FE78FE481
:1020A00092E1315080409040E1F700C00000BE0155
:1020B0006F5D7F4F87ED93E00E94310681110FC065
:1020C0008AA18F9389A18F9387E593E09F938F9344
:1020D0000E9441160F900F900F900F9008C082E65B
:1020E00093E09F938F930E9441160F900F90BE0133
:1020F0006F5F7F4F87ED93E00E94970681111DC0AF
:1021000069817A818B819C810E94601227E137EB83
:1021100041ED58E30E9410139F938F937F936F9329
:102120008FE793E09F938F930E9441160F900F903B
:102130000F900F900F900F900DC082E693E09F9349
:102140008F930E9441160F900F9004C083E993E093
:102150000E945316AFEFB9E628E1A150B0402040ED
:10216000E1F700C00000BCCE87E192E00E94531668
:1021700080E090E0A2960FB6F894DEBF0FBECDBF10
:10218000DF91CF911F910F91FF90EF90DF90CF9053
:10219000BF90AF909F908F907F906F905F904F9087
:1021A0003F9008959C0140E050E060E271EA87E0D2
:1021B00090E00E9449112150310941095109BB2782
:1021C000A52F942F832F8093900029B988E18AB995
:1021D00086E08093950008955D9BFECF8CB90895AD
:1021E0005F9BFECF8CB10895EF92FF920F931F93E8
:1021F000CF93DF938C01EC01E62EF12CCE01801BF6
:10220000910B8E159F0524F489910E94EC10F6CF56
:102210005E9BFECFDF91CF911F910F91FF90EF90CA
:102220000895DB018F939F930E947A11BF91AF9124
:10223000A29F800D911DA39F900DB29F900D112420
:102240000895AA1BBB1B51E107C0AA1FBB1FA617FD
:10225000B70710F0A61BB70B881F991F5A95A9F74F
:1022600080959095BC01CD01089597FB072E16F43B
:10227000009407D077FD09D00E94211107FC05D0FA
:102280003EF4909581959F4F0895709561957F4F8D
:102290000895A1E21A2EAA1BBB1BFD010DC0AA1FA7
:1022A000BB1FEE1FFF1FA217B307E407F50720F0BF
:1022B000A21BB30BE40BF50B661F771F881F991F3A
:1022C0001A9469F760957095809590959B01AC0183
:1022D000BD01CF010895A29FB001B39FC001A39F8C
:1022E000700D811D1124911DB29F700D811D11244F
:1022F000911D08950E946B11A59F900DB49F900DA4
:10230000A49F800D911D11240895B7FF0C947A119C
:102310000E947A11821B930B08955058BB27AA275D
:102320000ED044C135D130F03AD120F031F49F3F86
:1023300011F41EF42AC10EF4E095E7FB20C1E92F49
:1023400046D180F3BA17620773078407950718F020
:1023500071F49EF55EC10EF4E0950B2EBA2FA02D00
:102360000B01B90190010C01CA01A0011124FF2742
:10237000591B99F0593F50F4503E68F11A16F0403D
:10238000A22F232F342F4427585FF3CF469537953C
:102390002795A795F0405395C9F77EF41F16BA0B01
:1023A000620B730B840BBAF09150A1F0FF0FBB1FAF
:1023B000661F771F881FC2F70EC0BA0F621F731FF8
:1023C000841F48F4879577956795B795F7959E3F55
:1023D00008F0B3CF9395880F08F09927EE0F9795E3
:1023E00087950895A8D008F481E008950CD0DEC048
:1023F000D6D040F0CDD030F021F45F3F19F0BFC00F
:10240000511108C1C2C0E3D098F39923C9F35523F1
:10241000B1F3951B550BBB27AA27621773078407D7
:1024200038F09F5F5F4F220F331F441FAA1FA9F38D
:1024300033D00E2E3AF0E0E830D091505040E6957F
:10244000001CCAF729D0FE2F27D0660F771F881FE0
:10245000BB1F261737074807AB07B0E809F0BB0BCF
:10246000802DBF01FF2793585F4F2AF09E3F5105F3
:1024700068F085C0CFC05F3FECF3983EDCF38695F3
:1024800077956795B795F7959F5FC9F7880F911D69
:102490009695879597F90895E1E0660F771F881F55
:1024A000BB1F621773078407BA0720F0621B730B08
:1024B000840BBA0BEE1F88F7E0950895E89409C0E5
:1024C00097FB3EF490958095709561957F4F8F4F67
:1024D0009F4F9923A9F0F92F96E9BB279395F6957D
:1024E000879577956795B795F111F8CFFAF4BB0FFB
:1024F00011F460FF1BC06F5F7F4F8F4F9F4F16C05F
:10250000882311F096E911C0772321F09EE8872FE8
:10251000762F05C0662371F096E8862F70E060E0A4
:102520002AF09A95660F771F881FDAF7880F96951D
:10253000879597F90895990F0008550FAA0BE0E8C1
:10254000FEEF16161706E807F907C0F01216130675
:10255000E407F50798F0621B730B840B950B39F4B5
:102560000A2661F0232B242B252B21F408950A261B
:1025700009F4A140A6958FEF811D811D089597F95B
:102580009F6780E870E060E008959FEF80EC089519
:1025900000240A9416161706180609060895002442
:1025A0000A9412161306140605060895092E0394BC
:1025B000000C11F4882352F0BB0F40F4BF2B11F430
:1025C00060FF04C06F5F7F4F8F4F9F4F089557FD8F
:1025D0009058440F551F59F05F3F71F04795880F91
:1025E00097FB991F61F09F3F79F087950895121628
:1025F00013061406551FF2CF4695F1DF08C01616D4
:1026000017061806991FF1CF869571056105089484
:102610000895E894BB2766277727CB0197F908959B
:102620000BD0C4CFB5DF28F0BADF18F0952309F03E
:10263000A6CFABCF1124EECFCADFA0F3959FD1F385
:10264000950F50E0551F629FF001729FBB27F00D60
:10265000B11D639FAA27F00DB11DAA1F649F6627B5
:10266000B00DA11D661F829F2227B00DA11D621F04
:10267000739FB00DA11D621F839FA00D611D221FBE
:10268000749F3327A00D611D231F849F600D211DA2
:10269000822F762F6A2F11249F5750408AF0E1F045
:1026A00088234AF0EE0FFF1FBB1F661F771F881F8E
:1026B00091505040A9F79E3F510570F060CFAACFCE
:1026C0005F3FECF3983EDCF3869577956795B79579
:1026D000F795E7959F5FC1F7FE2B880F911D9695A3
:1026E000879597F90895FA01EE0FFF1F309621059F
:1026F000310599F16115710561F48038BFE39B07DD
:1027000049F168949038810561F08038BFEF9B07EC
:1027100041F0992342F5FF3FE1053105210511F113
:10272000E8940894E795D901AA2329F4AB2FBE2F8A
:10273000F85FD0F310C0FF5F70F4A695E0F7F739AB
:1027400050F019F0FF3A38F49F779F930CD00F9018
:1027500007FC905808953EF018CF60E070E080E8E4
:102760009FE308954FE79F775F934F933F932F9396
:10277000F5D02F913F914F915F9152DF47C011F4F7
:102780000EF403CF6FC02BDFD0F39923D9F3CEF330
:102790009F57550B87FF74D00024A0E640EA9001B4
:1027A00080585695979528F4805C660F771F881F90
:1027B00020F026173707480730F4621B730B840B91
:1027C000202931294A2BA6951794079420253125D5
:1027D0004A2758F7660F771F881F20F026173707FC
:1027E000480730F4620B730B840B200D311D411D23
:1027F000A09581F7B901842F9158880F96958795F8
:10280000089519F40EF0BBCE04CFBFCEE8DEC8F3B6
:102810009638C0F707F80F92E8942BE33AEA48EBB2
:102820005FE70CDF0F920F920F924DB75EB70F92DA
:10283000D5D0ECE8F0E02BD04F915F91EF91FF9174
:10284000E595EE1FFF1F49F0FE57E0684427EE0FA5
:10285000441FFA95E1F74195550B47D00F9007FEBD
:102860003BC008959F3F31F0915020F487957795B4
:102870006795B795880F911D9695879597F9089557
:1028800091505040660F771F881FD2F70895DF934D
:10289000CF931F930F93FF92EF92DF927B018C01F6
:1028A000689405C0DA2EEF01C7DEFE01E894A59119
:1028B0002591359145915591AEF3EF0140DDFE0133
:1028C0009701A801DA9479F7DF90EF90FF900F91CC
:1028D0001F91CF91DF9108959B01AC0160E070E002
:1028E00080E89FE383CD4BCEBDCF79DEE8F399231B
:1028F000D9F3940F511DBBF39150504094F059F00F
:10290000882332F0660F771F881F91505040C1F71F
:102910009E3F510544F7880F911D9695879597F92D
:1029200008955F3FACF0983E9CF0BB278695779565
:102930006795B79508F4B1609395C1F7BB0F58F749
:1029400011F460FFE8CF6F5F7F4F8F4F9F4FE3CF52
:1029500061CE0EF087CF19CE689411CE40DEC8F359
:102960009923D1F3C6F3DF93CF931F930F93FF9275
:10297000C92FDD2788232AF02197660F771F881F2C
:10298000DAF720E030E040E85FEB9FE3883920F0A1
:10299000803E30F021968F77C1DCE4EBF0E003C09D
:1029A000BDDCE1EEF0E073DF8B01BE01EC01FB2E3C
:1029B0006F5771097595771F880B990B81DD28E199
:1029C00032E741E35FE338DEAF2D9801AE01FF90BF
:1029D0000F911F91CF91DF91B2DCE8CDFA01DC01BC
:1029E000AA0FBB1F9B01AC01BF5728F42227332736
:1029F000442750781FC0B75188F4AB2F0024469568
:102A000037952795011CA395D2F3002069F0220F7A
:102A1000331F441FB395DAF30DD07FCC61307105BD
:102A2000A0E88A07B94630F49B01AC0166277727F6
:102A300088279078309621F0208331834283538316
:102A40000895283008F027E03327DA01990F311D67
:102A500087FD916000966105710539F432602E5F43
:102A60003D9330E32A95E1F708959F3F30F0803899
:102A70007105610509F03C5F3C5F3D93913008F0C2
:102A80008068911DDF93CF931F930F93FF92EF9276
:102A9000192F987F9695E92F96959695E90FFF2720
:102AA000E059FE4F99273327EE24FF24A701E701C1
:102AB00005900894079428F4360FE71EF81E491F66
:102AC000511D660F771F881F991F0694A1F7059067
:102AD000079428F4E70EF81E491F561FC11D770FF3
:102AE000881F991F661F0694A1F70590079428F484
:102AF000F80E491F561FC71FD11D880F991F661F4B
:102B0000771F0694A1F70590079420F4490F561FEC
:102B1000C71FD81F990F661F771F881F0694A9F734
:102B200084911095177041F0D695C79557954795A4
:102B3000F794E7941A95C1F7E6E1F1E068941590EF
:102B4000159135916591959105907FE27395E11806
:102B5000F10A430B560BC90BD009C0F7E10CF11E6B
:102B6000431F561FC91FD01D7EF4703311F48A9580
:102B7000E6CFE894015030F0080F0AF4002702175E
:102B800008F4202F2395022F7A3328F079E37D93E0
:102B90002A95E9F710C07D932A9589F606949795B2
:102BA0006795379517951794E118F10A430B560B63
:102BB000C90BD00998F023957E9173957A3308F06C
:102BC00070E37C932013B8F77E9170617D9330F0B1
:102BD000839571E37D9370E32A95E1F71124EF90DB
:102BE000FF900F911F91CF91DF91992787FD9095CD
:102BF0000895FC010590615070400110D8F7809550
:102C000090958E0F9F1F0895FC01615070400190B8
:102C10000110D8F7809590958E0F9F1F08950F9300
:102C20001F93CF93DF93182F092FEB018B8181FD29
:102C300003C08FEF9FEF20C082FF10C04E815F81E5
:102C40002C813D81421753077CF4E881F9819F0173
:102C50002F5F3F4F39832883108306C0E885F985AD
:102C6000812F0995892B29F72E813F812F5F3F4FB7
:102C70003F832E83812F902FDF91CF911F910F9152
:102C80000895CF93DF93CDB7DEB7FE0135966191FE
:102C90007191AF018091E1039091E2030E942901BB
:102CA000DF91CF9108950F931F93CF93DF93E0911E
:102CB000E103F091E203238121FF1BC0EC0100E05E
:102CC00010E089916091E1037091E203DB011896B5
:102CD000ED91FC911997882331F00995892B89F39F
:102CE0000FEF1FEFEECF8AE00995892B11F4C80191
:102CF00002C08FEF9FEFDF91CF911F910F91089549
:102D0000FA01AA27283051F1203181F1E8946F931C
:102D10006E7F6E5F7F4F8F4F9F4FAF4FB1E03ED0C2
:102D2000B4E03CD0670F781F891F9A1FA11D680F60
:102D3000791F8A1F911DA11D6A0F711D811D911D93
:102D4000A11D20D009F468943F912AE0269F112408
:102D50003019305D3193DEF6CF010895462F47706C
:102D6000405D4193B3E00FD0C9F7F6CF462F4F70C7
:102D7000405D4A3318F0495D31FD4052419302D025
:102D8000A9F7EACFB4E0A6959795879577956795CB
:102D9000BA95C9F700976105710508959B01AC01CB
:102DA0000A2E06945795479537952795BA95C9F7F2
:102DB000620F731F841F951FA01D0895F894FFCF05
:102DC0000000000200000000A50E000000004144C9
:102DD000584C20494E4954204F4B004144584C20F8
:102DE000494E4954204E4F54204F4B00252E325807
:102DF00020252E325820252E325820252E325820BC
:102E0000252E325820252E325820252E32582025A6
:102E10002E32580A000A424D50323830204932438F
:102E20002044656D6F00424D5032383020636F6E24
:102E30006E656374696F6E204F4B000A44533138DE
:102E400058323020312D576972652D5265616465A5
:102E5000722044656D6F002D2D2D2D2D2D2D2D2DC6
:102E60002D2D2D2D2D2D2D2D2D2D2D2D2D2D2D2D92
:102E70002D2D2D2D2D2D2D2D2D2D2D2D2D2D2D2D82
:102E80002D2D005363616E6E696E6720427573204D
:102E9000666F722044533138583230004E6F2053E1
:102EA000656E736F7220666F756E64004275732075
:102EB0004572726F720025692044533138583230A0
:102EC0002053656E736F7228732920617661696C77
:102ED00061626C653A0A00424D5032383020636FAF
:102EE0006E6E656374696F6E206E6F74204F4B0059
:102EF0002D2D2D2D2D2D2D2D2D2D2D2D2D2D2D2D02
:102F00002D2D414343454C45524F4D455445523A72
:102F10002D2D2D2D2D2D2D2D2D2D2D2D2D2D2D2DE1
:102F20002D2D2D2D2D0078203D20252E36660A20B2
:102F30000079203D20252E36660A20007A203D208B
:102F4000252E36660A20006D6F64756C655F6720FC
:102F50003D20252E36660A20002D2D2D2D2D2D2DC0
:102F60002D2D2D2D2D2D2D2D2D2D2D2D505245530B
:102F7000535552452D2D2D2D2D2D2D2D2D2D2D2DF6
:102F80002D2D2D2D2D2D2D2D2D2D0074656D7020A9
:102F90003D20256C640A207072657373203D2025E6
:102FA0002E34660A20616C74203D20252E34660A7A
:102FB00000424D50323830206D6561737572656D19
:102FC000656E74206E6F74204F4B006368696420D7
:102FD0003D20252E32580A002D2D2D2D2D2D2D2D45
:102FE0002D2D2D2D2D2D2D2D2D54454D504552413E
:102FF000545552452D2D2D2D2D2D2D2D2D2D2D2D75
:103000002D2D2D2D2D2D2D2D2D0053656E736F72B1
:1030100023202569200A0074656D70203D202569F4
:103020000A00435243204572726F7220286C6F73FE
:103030007420636F6E6E656374696F6E3F290074F0
:10304000656D705F6D6178524573203D20252E348B
:10305000660A005374617274206D6561732E206678
:1030600061696C6564202873686F7274206369728B
:08307000637569743F2900003B
:00000001FF
