:100000000C94C7000C94E6000C94E6000C94E600F7
:100010000C94E6000C94E6000C94E6000C94E600C8
:100020000C94E6000C94E6000C94E6000C94E600B8
:100030000C94E6000C94E6000C94E6000C94E600A8
:100040000C94E6000C94E6000C94E6000C94E60098
:100050000C94E6000C94E6000C94E6000C94E60088
:100060000C94E6000C94E6000C94E6000C94E60078
:100070000C94E6000C94E6000C94E6000C94E60068
:100080000C94E6000C94E6000C94E6006E616E00A1
:10009000696E660000407A10F35A00A0724E18098B
:1000A0000010A5D4E80000E87648170000E40B54DF
:1000B000020000CA9A3B000000E1F50500008096AE
:1000C0009800000040420F000000A08601000000E0
:1000D000102700000000E80300000000640000009A
:1000E00000000A00000000000100000000002C7663
:1000F000D888DC674F0823DFC1DFAE59E1B1B7967E
:10010000E5E3E453C63AE651997696E8E6C28426DA
:10011000EB898C9B62ED407C6FFCEFBC9C9F40F2B6
:10012000BAA56FA5F490055A2AF75C936B6CF96732
:100130006DC11BFCE0E40D47FEF520E6B500D0EDF7
:10014000902E0300943577050080841E080000205F
:100150004E0A000000C80C333333330F986E1283FD
:100160001141EF8D2114893BE65516CFFEE6DB18D1
:10017000D1844B381BF77C1D901DA4BBE424203296
:1001800084725E228100C9F124ECA1E53D2711248F
:100190001FBECFEFD0E1DEBFCDBF11E0A0E0B1E0E8
:1001A000E8E3F5E100E00BBF02C007900D92A03636
:1001B000B107D9F721E0A0E6B1E001C01D92A73652
:1001C000B207E1F70E9455060C949A0A0C940000BD
:1001D0002F923F924F925F926F927F928F929F9257
:1001E000AF92BF92CF92DF92EF92FF920F931F9345
:1001F000CF93DF93CDB7DEB763970FB6F894DEBF2A
:100200000FBECDBF7C011B016A01FC011782168263
:10021000838181FF66C3BE016F5F7F4F4B01F70192
:100220009381F10193FD859193FF81911F018823B3
:1002300009F453C3853239F493FD859193FF81917D
:100240001F01853239F4B70190E00E94F809560188
:100250006501E5CF10E0512C20E02032A0F48B3274
:1002600069F030F4803259F0833269F420612CC097
:100270008D3239F0803339F4216026C02260246049
:1002800023C0286021C027FD27C030ED380F3A3049
:1002900078F426FF06C0FAE01F9F300D1124132FBB
:1002A00013C06AE0569E300D1124532E20620CC0FC
:1002B0008E3221F426FD11C3206406C08C3611F461
:1002C000206802C0883641F4F10193FD859193FFC7
:1002D00081911F018111C1CF9BEB980F933018F4CE
:1002E0002061805E06C09BE9980F933008F0AAC198
:1002F0002F7E26FF16E02F73722E853621F4F22F03
:10030000F0647F2E08C0863621F4622F6068762E56
:1003100002C01111115077FE07C01C3348F4442469
:100320004394410E27E00BC0183030F4212F06C053
:1003300027E04CE3442E03C027E017E0412C560190
:1003400074E0A70EB11CF6016081718182819381F6
:10035000042DA4010E940A096C01098100FF02C05A
:1003600003FF06C071FC07C072FC08C0612C08C006
:100370003DE2632E05C02BE2622E02C090E2692EA0
:10038000802F8C7099F1662011F084E001C083E029
:10039000851510F0512C0BC0581A73FC08C0B7011A
:1003A00080E290E00E94F8095A94C9F7F3CF6620E2
:1003B00029F0B701862D90E00E94F80903FD03C0E3
:1003C00000E910E002C00CE810E0F72DF0717F2E7C
:1003D000F8018491882309F476C271108052B70124
:1003E00090E00E94F8090F5F1F4FF2CF77FE0FC019
:1003F0004C0C04FF04C08A81813309F44A9414141C
:1004000074F5F8E0F41578F588E0482E2CC076FCF9
:100410002AC0812F90E08C159D059CF06CEFC616CC
:100420006FEFD60674F0772D7068772E0AC0E2E081
:10043000F0E0EC0FFD1FE10FF11D8081803319F416
:1004400011501111F4CF77FE0EC044244394410E95
:10045000812F90E0C816D9062CF41C1904C044243E
:10046000439401C010E077FE07C01C141D043CF447
:1004700096012F5F3F4F05C025E030E002C021E02C
:1004800030E0662011F02F5F3F4F112331F0412FF4
:1004900050E04F5F5F4F240F351F452D50E024176C
:1004A000350714F4521A01C0512C872D897049F474
:1004B000552039F0B70180E290E00E94F8095A9483
:1004C000F7CF662029F0B701862D90E00E94F80949
:1004D00073FC09C0552039F0B70180E390E00E9419
:1004E000F8095A94F7CF77FE5FC09C2D8D2DD7FE6B
:1004F00002C090E080E0692E782E40E050E0C60116
:10050000841991099D878C87960126193709280D32
:10051000391D812F90E0EE27FF27E81BF90BFF879D
:10052000EE87FFEF6F167F0669F4B7018EE290E069
:100530002B8B3A8B488B598B0E94F8095989488933
:100540003A892B89C614D70454F06C857D856615CD
:1005500077052CF4F901E40FF51F818101C080E3D8
:1005600071E0671A71084F5F5F4FEE85FF856E1669
:100570007F066CF0B70190E02B8B3A8B488B598B40
:100580000E94F8092B893A8948895989CACF6C1485
:100590007D0439F49A81963318F4953311F404FFED
:1005A00081E3B70190E04BC08A81813309F00F7E6F
:1005B000B70190E00E94F809111105C074FE18C03F
:1005C00085E490E017C0B7018EE290E00E94F80940
:1005D00082E066246394680EF401E80FF11D8081C7
:1005E000B70190E00E94F809115041F3862DF1CF38
:1005F00085E690E0B7010E94F809D7FC05C0C11458
:10060000D10439F404FF05C0D194C194D1088DE21E
:1006100001C08BE2B70190E00E94F80980E36AE034
:10062000C616D1042CF08F5FFAE0CF1AD108F7CFAD
:10063000B70190E00E94F809B701C601C0960E9478
:10064000F80941C1833631F0833779F0833509F0F9
:1006500058C021C0560172E0A70EB11CF60180817E
:10066000898301E010E0640114C05601F2E0AF0E8E
:10067000B11CF601C080D18026FF03C0612F70E05D
:1006800002C06FEF7FEFC6012B8B0E94ED098C013A
:100690002B892F7715C05601F2E0AF0EB11CF60181
:1006A000C080D18026FF03C0612F70E002C06FEFD1
:1006B0007FEFC6012B8B0E94E2098C012B892068F9
:1006C000722E23FD1AC0852D90E008171907A8F493
:1006D000B70180E290E00E94F8095A94F4CFF60145
:1006E00077FC859177FE81916F01B70190E00E94C0
:1006F000F80951105A94015011090115110579F7A3
:10070000E2C0843611F0893651F5560127FF09C041
:10071000F4E0AF0EB11CF60160817181828193819A
:100720000AC0F2E0AF0EB11CF6016081718188272A
:1007300077FD8095982F022F0F7697FF08C0909530
:100740008095709561957F4F8F4F9F4F00682AE08D
:1007500030E0A4010E943C0AC82EC8183EC0022FF7
:10076000853721F40F7E2AE030E01DC0097F8F36E7
:1007700091F018F4883559F0B0C0803719F08837F7
:1007800011F0ABC0006104FF09C0046007C024FF82
:1007900008C0066006C028E030E005C020E130E077
:1007A00002C020E132E0560107FF09C0F4E0AF0EBD
:1007B000B11CF601608171818281938108C0F2E0F1
:1007C000AF0EB11CF6016081718180E090E0A40160
:1007D0000E943C0AC82EC8180F7706FF0BC0202FB6
:1007E0002E7FC11650F404FF0AC002FD08C0202F5E
:1007F0002E7E05C0DC2C202F03C0DC2C01C0D12EA6
:1008000024FF0DC0FE01EC0DF11D8081803311F439
:10081000297E09C022FF06C0D394D39404C0822F3E
:10082000867809F0D39423FD13C020FF06C01C2D49
:10083000D51418F4150D1D19D52CD51468F4B7016D
:1008400080E290E02B8B0E94F809D3942B89F5CF9E
:10085000D51410F45D1801C0512C24FF12C0B7014B
:1008600080E390E02B8B0E94F8092B8922FF17C0B0
:1008700021FF03C088E590E002C088E790E0B7015F
:100880000CC0822F867859F021FD02C080E201C0A1
:100890008BE227FD8DE2B70190E00E94F809C116B6
:1008A00038F4B70180E390E00E94F8091150F7CFC7
:1008B000CA94F401EC0DF11D8081B70190E00E9413
:1008C000F809C110F5CF552009F4C2CCB70180E278
:1008D00090E00E94F8095A94F6CFF701868197813B
:1008E00002C08FEF9FEF63960FB6F894DEBF0FBE86
:1008F000CDBFDF91CF911F910F91FF90EF90DF90CF
:10090000CF90BF90AF909F908F907F906F905F90AF
:100910004F903F902F900895CF93DF931F92CDB7C4
:10092000DEB719829E012F5F3F4F41E060E080916A
:1009300060010E94FB0581E09981953E09F080E00D
:100940000F90DF91CF9108954BE061E380916001BA
:100950000C94D00548E06DE2809160010C94D005C4
:10096000809360010E948C04882361F048E06CE26F
:10097000809160010E94D0050E94A4040E94AA04F4
:1009800081E0089580E00895CF92DF92EF92FF9288
:100990000F931F93CF93DF9300D000D000D0CDB73B
:1009A000DEB78C017B016A019E012F5F3F4F46E05D
:1009B00062E3809160010E94FB052A8130E0322FC2
:1009C00022278981282BF801318320838C8190E0B4
:1009D000982F88272B81822BF701918380838E812A
:1009E00090E0982F88272D81822BF60191838083B8
:1009F00026960FB6F894DEBF0FBECDBFDF91CF9124
:100A00001F910F91FF90EF90DF90CF900895CF92BC
:100A1000DF92EF92FF920F931F93CF93DF9300D05B
:100A200000D000D0CDB7DEB76C017B018A01AE01EA
:100A30004F5F5F4FBE016D5F7F4FCE0105960E94F5
:100A4000C4046D817E81882777FD8095982F0E9450
:100A5000C4072DEC3CEC4CE15DE30E945008F6012C
:100A600060837183828393836B817C81882777FD88
:100A70008095982F0E94C4072DEC3CEC4CE15DE37F
:100A80000E945008F7016083718382839383698198
:100A90007A81882777FD8095982F0E94C4072DECD6
:100AA0003CEC4CE15DE30E945008F80160837183E7
:100AB0008283938326960FB6F894DEBF0FBECDBF18
:100AC000DF91CF911F910F91FF90EF90DF90CF902A
:100AD00008950E9427076051710976956795609384
:100AE000700010927100E4E7F0E080818460808300
:100AF0000895E4E7F0E080818B7F8083089584EAA5
:100B0000809374008091740087FFFCCF089584E97E
:100B1000809374008091740084FDFCCF08958093CD
:100B2000730084E8809374008091740087FFFCCF89
:100B300080917100887F883169F080917100887F91
:100B4000883241F090917100987F81E0903419F0E3
:100B500080E0089581E0089520917400662311F0EB
:100B6000206401C02F7B20937400209174002068C2
:100B7000209374002091740027FFFCCF2091710016
:100B8000287F283529F020917100287F203531F405
:100B900020917300FC01208381E0089580E0089596
:100BA000CF93DF9300D01F92CDB7DEB74B836A831C
:100BB00089830E947F058981880F0E948F056A8141
:100BC000862F0E948F054B81842F0E948F058FE115
:100BD0009EE40197F1F700C000000E948705EFED49
:100BE000FEE23197F1F700C000000F900F900F90D8
:100BF000DF91CF910895EF92FF920F931F93CF93C0
:100C0000DF9300D0CDB7DEB7F82E042F122F3A8332
:100C100069830E947F05FF0C8F2D0E948F056981DB
:100C2000862F0E948F050E947F0581E08F0D0E9414
:100C30008F05E12E3A81F32E8E2D811B801740F413
:100C400061E0C7010E94AC058FEFE81AF80AF4CF03
:100C50000F900F90DF91CF911F910F91FF90EF9028
:100C60000895CF93C82F8A3019F48DE00E94310681
:100C70008C2F0E94020780E0CF91089560EA76E809
:100C800080E092E10E9469058DE10E94B00481300C
:100C900019F48EE091E002C08BE191E09F938F9375
:100CA0000E942A0A0F900F900895CF93DF93CDB73B
:100CB000DEB72C970FB6F894DEBF0FBECDBF80E82D
:100CC00095E20E94E80680E091E0909364018093B1
:100CD00063010E943E060CE211E087E3282E81E0CA
:100CE000382EAE014F5F5F4FBE016B5F7F4FCE016D
:100CF00009960E9407058C858F938B858F938A8533
:100D00008F9389858F931F930F930E942A0A88855A
:100D10008F938F818F938E818F938D818F933F924D
:100D20002F920E942A0A8C818F938B818F938A81C4
:100D30008F9389818F93A2E4B1E0BF93AF930E9418
:100D40002A0A69857A858B859C858D809E80AF80F7
:100D5000B884C980DA80EB80FC809B01AC010E94E2
:100D600050082B013C01A5019401C501B4010E946A
:100D700050089B01AC01C301B2010E945E074B0108
:100D80005C01A7019601C701B6010E9450089B01B2
:100D9000AC01C501B4010E945E070E94B7089F9391
:100DA0008F937F936F93ADE4B1E0BF93AF930E94B5
:100DB0002A0A8FEF91EEA4E081509040A040E1F725
:100DC00000C000000FB6F894DEBF0FBECDBF89CFC4
:100DD0009C0140E050E060E271EA87E090E00E9410
:100DE0003B072150310941095109BB27A52F942FF9
:100DF000832F8093900029B988E18AB986E0809397
:100E0000950008955D9BFECF8CB908955F9BFECF42
:100E10008CB10895EF92FF920F931F93CF93DF93BE
:100E20008C01EC01E62EF12CCE01801B910B8E156E
:100E30009F0524F489910E940207F6CF5E9BFECFA6
:100E4000DF91CF911F910F91FF90EF900895AA1B12
:100E5000BB1B51E107C0AA1FBB1FA617B70710F0A5
:100E6000A61BB70B881F991F5A95A9F780959095D7
:100E7000BC01CD010895A1E21A2EAA1BBB1BFD01E6
:100E80000DC0AA1FBB1FEE1FFF1FA217B307E40769
:100E9000F50720F0A21BB30BE40BF50B661F771FC1
:100EA000881F991F1A9469F76095709580959095A1
:100EB0009B01AC01BD01CF0108955058BB27AA2763
:100EC0000ED0B4C0A5D030F0AAD020F031F49F3FAE
:100ED00011F41EF49AC00EF4E095E7FB90C0E92FE0
:100EE000B6D080F3BA17620773078407950718F026
:100EF00071F49EF5CEC00EF4E0950B2EBA2FA02D06
:100F00000B01B90190010C01CA01A0011124FF27B6
:100F1000591B99F0593F50F4503E68F11A16F040B1
:100F2000A22F232F342F4427585FF3CF46953795B0
:100F30002795A795F0405395C9F77EF41F16BA0B75
:100F4000620B730B840BBAF09150A1F0FF0FBB1F23
:100F5000661F771F881FC2F70EC0BA0F621F731F6C
:100F6000841F48F4879577956795B795F7959E3FC9
:100F700008F0B3CF9395880F08F09927EE0F979557
:100F800087950895E89409C097FB3EF49095809565
:100F9000709561957F4F8F4F9F4F9923A9F0F92F3F
:100FA00096E9BB279395F695879577956795B795BD
:100FB000F111F8CFFAF4BB0F11F460FF1BC06F5FA3
:100FC0007F4F8F4F9F4F16C0882311F096E911C0B5
:100FD000772321F09EE8872F762F05C0662371F0D6
:100FE00096E8862F70E060E02AF09A95660F771FEA
:100FF000881FDAF7880F9695879597F9089597F9DE
:101000009F6780E870E060E008959FEF80EC0895AE
:1010100000240A94161617061806090608950024D7
:101020000A9412161306140605060895092E039451
:10103000000C11F4882352F0BB0F40F4BF2B11F4C5
:1010400060FF04C06F5F7F4F8F4F9F4F089557FD24
:101050009058440F551F59F05F3F71F04795880F26
:1010600097FB991F61F09F3F79F0879508951216BD
:1010700013061406551FF2CF4695F1DF08C0161669
:1010800017061806991FF1CF86957105610508941A
:101090000895E894BB2766277727CB0197F9089531
:1010A0000BD0C4CFB5DF28F0BADF18F0952309F0D4
:1010B000A6CFABCF1124EECFCADFA0F3959FD1F31B
:1010C000950F50E0551F629FF001729FBB27F00DF6
:1010D000B11D639FAA27F00DB11DAA1F649F66274B
:1010E000B00DA11D661F829F2227B00DA11D621F9A
:1010F000739FB00DA11D621F839FA00D611D221F54
:10110000749F3327A00D611D231F849F600D211D37
:10111000822F762F6A2F11249F5750408AF0E1F0DA
:1011200088234AF0EE0FFF1FBB1F661F771F881F23
:1011300091505040A9F79E3F510570F060CFAACF63
:101140005F3FECF3983EDCF3869577956795B7950E
:10115000F795E7959F5FC1F7FE2B880F911D969538
:10116000879597F9089511F40EF44FCF3EC077DFBD
:10117000D0F39923D9F3CEF39F57550B87FF43D074
:101180000024A0E640EA900180585695979528F4EF
:10119000805C660F771F881F20F0261737074807E7
:1011A00030F4621B730B840B202931294A2BA6953E
:1011B00017940794202531254A2758F7660F771F83
:1011C000881F20F026173707480730F4620B730B8F
:1011D000840B200D311D411DA09581F7B901842F8D
:1011E0009158880F9695879508959F3F31F09150BB
:1011F00020F4879577956795B795880F911D9695FB
:10120000879597F9089591505040660F771F881F72
:10121000D2F70895283008F027E03327DA01990F34
:10122000311D87FD916000966105710539F43260CA
:101230002E5F3D9330E32A95E1F708959F3F30F00C
:1012400080387105610509F03C5F3C5F3D9391304A
:1012500008F08068911DDF93CF931F930F93FF9247
:10126000EF92192F987F9695E92F96959695E90F0D
:10127000FF27E251FF4F99273327EE24FF24A701D0
:10128000E70105900894079428F4360FE71EF81E2E
:10129000491F511D660F771F881F991F0694A1F7DC
:1012A0000590079428F4E70EF81E491F561FC11D2C
:1012B000770F881F991F661F0694A1F70590079462
:1012C00028F4F80E491F561FC71FD11D880F991FFC
:1012D000661F771F0694A1F70590079420F4490F25
:1012E000561FC71FD81F990F661F771F881F0694A8
:1012F000A9F784911095177041F0D695C795579529
:101300004795F794E7941A95C1F7E4E9F0E06894FB
:101310001590159135916591959105907FE27395A2
:10132000E118F10A430B560BC90BD009C0F7E10CC9
:10133000F11E431F561FC91FD01D7EF4703311F4D8
:101340008A95E6CFE894015030F0080F0AF40027A0
:10135000021708F4202F2395022F7A3328F079E31F
:101360007D932A95E9F710C07D932A9589F6069416
:1013700097956795379517951794E118F10A430BE0
:10138000560BC90BD00998F023957E9173957A334B
:1013900008F070E37C932013B8F77E9170617D9321
:1013A00030F0839571E37D9370E32A95E1F7112482
:1013B000EF90FF900F911F91CF91DF91992787FDBB
:1013C00090950895FC010590615070400110D8F788
:1013D000809590958E0F9F1F0895FC01615070407D
:1013E00001900110D8F7809590958E0F9F1F08955A
:1013F0000F931F93CF93DF93182F092FEB018B814E
:1014000081FD03C08FEF9FEF20C082FF10C04E818F
:101410005F812C813D81421753077CF4E881F9817B
:101420009F012F5F3F4F39832883108306C0E885D3
:10143000F985812F0995892B29F72E813F812F5F0F
:101440003F4F3F832E83812F902FDF91CF911F91AC
:101450000F910895CF93DF93CDB7DEB7FE01359698
:1014600061917191AF0180916301909164010E943B
:10147000E800DF91CF910895FA01AA27283051F1B1
:10148000203181F1E8946F936E7F6E5F7F4F8F4FB5
:101490009F4FAF4FB1E03ED0B4E03CD0670F781F14
:1014A000891F9A1FA11D680F791F8A1F911DA11DF9
:1014B0006A0F711D811D911DA11D20D009F4689432
:1014C0003F912AE0269F11243019305D3193DEF6DA
:1014D000CF010895462F4770405D4193B3E00FD090
:1014E000C9F7F6CF462F4F70405D4A3318F0495D7B
:1014F00031FD4052419302D0A9F7EACFB4E0A6955E
:101500009795879577956795BA95C9F7009761057F
:10151000710508959B01AC010A2E069457954795D5
:1015200037952795BA95C9F7620F731F841F951FCA
:08153000A01D0895F894FFCFFF
:1015380000000002000000003106000000004144E5
:10154800584C20494E4954204F4B004144584C2098
:10155800494E4954204E4F54204F4B0078203D208F
:10156800252E36660A200079203D20252E36660A6B
:1015780020007A203D20252E36660A20006D6F64F3
:10158800756C655F67203D20252E36660A200000B1
:00000001FF
