:100000000C9408010C9427010C9427010C942701EF
:100010000C9427010C9427010C9427010C942701C0
:100020000C9427010C9427010C9427010C942701B0
:100030000C9427010C9427010C9427010C942701A0
:100040000C9427010C9427010C9427010C94270190
:100050000C9427010C9427010C9427010C94270180
:100060000C9427010C9427010C9427010C94270170
:100070000C9427010C9427010C9427010C94270160
:100080000C9427010C9427010C9427010763423636
:10009000B79BD8A71A39685618AEBAAB558C1D3C19
:1000A000B7CC5763BD6DEDFD753EF6177231BF00DD
:1000B0000000803F08000000BE922449123EABAA17
:1000C000AA2ABECDCCCC4C3E00000080BEABAAAA72
:1000D000AA3E00000000BF000000803F00000000BA
:1000E00000084178D3BB4387D1133D190E3CC3BDF3
:1000F0004282AD2B3E68EC8276BED98FE1A93E4CA0
:1001000080EFFFBE01C4FF7F3F00000000006E6172
:100110006E00696E660000407A10F35A00A0724EBD
:1001200018090010A5D4E80000E87648170000E49C
:100130000B54020000CA9A3B000000E1F5050000E4
:1001400080969800000040420F000000A086010049
:100150000000102700000000E80300000000640019
:10016000000000000A000000000001000000000084
:100170002C76D888DC674F0823DFC1DFAE59E1B1A8
:10018000B796E5E3E453C63AE651997696E8E6C2B7
:100190008426EB898C9B62ED407C6FFCEFBC9C9FBE
:1001A00040F2BAA56FA5F490055A2AF75C936B6CE0
:1001B000F9676DC11BFCE0E40D47FEF520E6B500D4
:1001C000D0ED902E0300943577050080841E080042
:1001D00000204E0A000000C80C333333330F986EF2
:1001E00012831141EF8D2114893BE65516CFFEE6AF
:1001F000DB18D1844B381BF77C1D901DA4BBE42475
:10020000203284725E228100C9F124ECA1E53D27F1
:1002100011241FBECFEFD0E1DEBFCDBF11E0A0E0C3
:10022000B1E0E8EFF0E200E00BBF02C007900D92F2
:10023000AA39B107D9F721E0AAE9B1E001C01D92BE
:10024000AE3BB207E1F70E94480A0C947A100C9476
:1002500000002F923F924F925F926F927F928F9207
:100260009F92AF92BF92CF92DF92EF92FF920F9345
:100270001F93CF93DF93CDB7DEB763970FB6F89494
:10028000DEBF0FBECDBF7C011B016A01FC011782DE
:100290001682838181FF66C3BE016F5F7F4F4B0172
:1002A000F7019381F10193FD859193FF81911F01E6
:1002B000882309F453C3853239F493FD859193FF64
:1002C00081911F01853239F4B70190E00E94AB0F94
:1002D00056016501E5CF10E0512C20E02032A0F45A
:1002E0008B3269F030F4803259F0833269F4206146
:1002F0002CC08D3239F0803339F4216026C0226061
:10030000246023C0286021C027FD27C030ED380FAE
:100310003A3078F426FF06C0FAE01F9F300D112412
:10032000132F13C06AE0569E300D1124532E206205
:100330000CC08E3221F426FD11C3206406C08C3619
:1003400011F4206802C0883641F4F10193FD8591D3
:1003500093FF81911F018111C1CF9BEB980F9330C7
:1003600018F42061805E06C09BE9980F933008F076
:10037000AAC12F7E26FF16E02F73722E853621F438
:10038000F22FF0647F2E08C0863621F4622F606859
:10039000762E02C01111115077FE07C01C3348F4AD
:1003A00044244394410E27E00BC0183030F4212F31
:1003B00006C027E04CE3442E03C027E017E0412CA1
:1003C000560174E0A70EB11CF60160817181828133
:1003D0009381042DA4010E94BD0E6C01098100FFD0
:1003E00002C003FF06C071FC07C072FC08C0612C8C
:1003F00008C03DE2632E05C02BE2622E02C090E2EF
:10040000692E802F8C7099F1662011F084E001C074
:1004100083E0851510F0512C0BC0581A73FC08C0EE
:10042000B70180E290E00E94AB0F5A94C9F7F3CF76
:10043000662029F0B701862D90E00E94AB0F03FDE6
:1004400003C002E111E002C00EE011E0F72DF071EF
:100450007F2EF8018491882309F476C271108052AE
:10046000B70190E00E94AB0F0F5F1F4FF2CF77FEF6
:100470000FC04C0C04FF04C08A81813309F44A94F4
:10048000141474F5F8E0F41578F588E0482E2CC0C3
:1004900076FC2AC0812F90E08C159D059CF06CEFB6
:1004A000C6166FEFD60674F0772D7068772E0AC0E7
:1004B000E2E0F0E0EC0FFD1FE10FF11D80818033E1
:1004C00019F411501111F4CF77FE0EC04424439457
:1004D000410E812F90E0C816D9062CF41C1904C0D7
:1004E0004424439401C010E077FE07C01C141D048F
:1004F0003CF496012F5F3F4F05C025E030E002C07D
:1005000021E030E0662011F02F5F3F4F112331F0E2
:10051000412F50E04F5F5F4F240F351F452D50E0B6
:100520002417350714F4521A01C0512C872D8970F5
:1005300049F4552039F0B70180E290E00E94AB0FFA
:100540005A94F7CF662029F0B701862D90E00E94DB
:10055000AB0F73FC09C0552039F0B70180E390E080
:100560000E94AB0F5A94F7CF77FE5FC09C2D8D2D64
:10057000D7FE02C090E080E0692E782E40E050E087
:10058000C601841991099D878C8796012619370920
:10059000280D391D812F90E0EE27FF27E81BF90B6E
:1005A000FF87EE87FFEF6F167F0669F4B7018EE2D3
:1005B00090E02B8B3A8B488B598B0E94AB0F59895B
:1005C00048893A892B89C614D70454F06C857D85F7
:1005D000661577052CF4F901E40FF51F818101C040
:1005E00080E371E0671A71084F5F5F4FEE85FF850A
:1005F0006E167F066CF0B70190E02B8B3A8B488B20
:10060000598B0E94AB0F2B893A8948895989CACFE7
:100610006C147D0439F49A81963318F4953311F4EF
:1006200004FF81E3B70190E04BC08A81813309F078
:100630000F7EB70190E00E94AB0F111105C074FE50
:1006400018C085E490E017C0B7018EE290E00E94E8
:10065000AB0F82E066246394680EF401E80FF11D8D
:100660008081B70190E00E94AB0F115041F3862DBD
:10067000F1CF85E690E0B7010E94AB0FD7FC05C033
:10068000C114D10439F404FF05C0D194C194D10838
:100690008DE201C08BE2B70190E00E94AB0F80E3D6
:1006A0006AE0C616D1042CF08F5FFAE0CF1AD108A9
:1006B000F7CFB70190E00E94AB0FB701C601C0961B
:1006C0000E94AB0F41C1833631F0833779F0833517
:1006D00009F058C021C0560172E0A70EB11CF60106
:1006E0008081898301E010E0640114C05601F2E0CA
:1006F000AF0EB11CF601C080D18026FF03C0612F70
:1007000070E002C06FEF7FEFC6012B8B0E94A00F3D
:100710008C012B892F7715C05601F2E0AF0EB11C6A
:10072000F601C080D18026FF03C0612F70E002C0B7
:100730006FEF7FEFC6012B8B0E94950F8C012B89E9
:100740002068722E23FD1AC0852D90E00817190726
:10075000A8F4B70180E290E00E94AB0F5A94F4CF66
:10076000F60177FC859177FE81916F01B70190E0EA
:100770000E94AB0F51105A94015011090115110537
:1007800079F7E2C0843611F0893651F5560127FF1A
:1007900009C0F4E0AF0EB11CF60160817181828165
:1007A00093810AC0F2E0AF0EB11CF6016081718145
:1007B000882777FD8095982F022F0F7697FF08C026
:1007C00090958095709561957F4F8F4F9F4F0068F2
:1007D0002AE030E0A4010E941C10C82EC8183EC0B8
:1007E000022F853721F40F7E2AE030E01DC0097FFB
:1007F0008F3691F018F4883559F0B0C0803719F071
:10080000883711F0ABC0006104FF09C0046007C065
:1008100024FF08C0066006C028E030E005C020E1E3
:1008200030E002C020E132E0560107FF09C0F4E0E9
:10083000AF0EB11CF601608171818281938108C085
:10084000F2E0AF0EB11CF6016081718180E090E0B2
:10085000A4010E941C10C82EC8180F7706FF0BC0F9
:10086000202F2E7FC11650F404FF0AC002FD08C0DD
:10087000202F2E7E05C0DC2C202F03C0DC2C01C0D5
:10088000D12E24FF0DC0FE01EC0DF11D80818033BF
:1008900011F4297E09C022FF06C0D394D39404C06A
:1008A000822F867809F0D39423FD13C020FF06C061
:1008B0001C2DD51418F4150D1D19D52CD51468F45C
:1008C000B70180E290E02B8B0E94AB0FD3942B8971
:1008D000F5CFD51410F45D1801C0512C24FF12C0BF
:1008E000B70180E390E02B8B0E94AB0F2B8922FF96
:1008F00017C021FF03C088E590E002C088E790E0C0
:10090000B7010CC0822F867859F021FD02C080E229
:1009100001C08BE227FD8DE2B70190E00E94AB0F92
:10092000C11638F4B70180E390E00E94AB0F11507C
:10093000F7CFCA94F401EC0DF11D8081B70190E06E
:100940000E94AB0FC110F5CF552009F4C2CCB701FE
:1009500080E290E00E94AB0F5A94F6CFF7018681B7
:10096000978102C08FEF9FEF63960FB6F894DEBFBA
:100970000FBECDBFDF91CF911F910F91FF90EF90F0
:10098000DF90CF90BF90AF909F908F907F906F90AF
:100990005F904F903F902F900895462F682F809141
:1009A000A5010C94DA09CF93DF931F92CDB7DEB780
:1009B0009E012F5F3F4F41E0682F8091A5010E946B
:1009C000050A89810F90DF91CF910895CF93DF932E
:1009D00000D0CDB7DEB79E012F5F3F4F42E0682FBA
:1009E0008091A5010E94050A898190E0982F8827AF
:1009F0002A81822B0F900F90DF91CF9108950E9452
:100A0000E60498278927982708950C94FF04CF932C
:100A1000DF9300D01F92CDB7DEB79E012F5F3F4F0F
:100A200043E0682F8091A5010E94050A6981862F05
:100A300090E0A0E0B0E0BA2FA92F982F88272A8154
:100A4000822B6627782F892F9A2F2B81622B0F906C
:100A50000F900F90DF91CF91089588E80E94FF04D6
:100A600090939E0180939D018AE80E94FF049093D9
:100A7000A00180939F018CE80E94FF049093B10134
:100A80008093B0018EE80E94FF049093A9018093A7
:100A9000A80180E90E94FF049093A2018093A10124
:100AA00082E90E94FF049093AB018093AA0184E93C
:100AB0000E94FF049093A4018093A30186E90E9401
:100AC000FF049093A7018093A60188E90E94FF0488
:100AD0009093B3018093B2018AE90E94FF0490933E
:100AE0009C0180939B018CE90E94FF049093AD01CF
:100AF0008093AC018EE90E94FF049093AF01809334
:100B0000AE0108958093A50180ED0E94D30488353D
:100B100059F40E942D0568E685EF0E94CD0485EF0B
:100B20000E94D30481E0089580E008958F929F92FF
:100B3000AF92BF92CF92DF92EF92FF928AEF0E9424
:100B4000070520919D0130919E016901E12CF12C56
:100B5000872E982EA92EBB24A7FCBA948C189D082A
:100B6000AE08BF089B01AC0167E0559547953795E6
:100B700027956A95D1F7D701C601880F991FAA1F3B
:100B8000BB1F281B390B4A0B5B0BA0919F01B09137
:100B9000A0010E945B0B6B017C01EBE0F594E794F4
:100BA000D794C794EA95D1F7A5019401C501B40182
:100BB0000E940A0B9B01AC01FCE0559547953795C7
:100BC0002795FA95D1F7A091B001B091B1010E949B
:100BD0005B0BAEE09595879577956795AA95D1F7CC
:100BE000C60ED71EE81EF91EC092B401D092B50100
:100BF000E092B601F092B701A5E0B0E0A70196013E
:100C00000E94500B60587F4F8F4F9F4F672F782F58
:100C1000892F992787FD9A95FF90EF90DF90CF90CD
:100C2000BF90AF909F908F9008952F923F924F92D8
:100C30005F926F927F928F929F92AF92BF92CF926C
:100C4000DF92EF92FF920F931F93CF93DF9300D029
:100C500000D0CDB7DEB70E94960587EF0E9407054A
:100C600069837A838B839C838090B4019090B501D3
:100C7000A090B601B090B701B594A79497948794CB
:100C80008AEF981AA108B108C501B401F2E0959560
:100C9000879577956795FA95D1F79B01AC010E94EE
:100CA0000A0B6B017C01E091B201F091B30120903D
:100CB000A6013090A7010091A3011091A401A09179
:100CC000AA01B091AB019B01AC018DE05595479510
:100CD000379527958A95D1F70E945B0B2B013C0134
:100CE00093E075946794579447949A95D1F7A0919F
:100CF000A101B091A201A50194010E945B0B959501
:100D0000879577956795460E571E681E791E32E1C6
:100D100075946794579447943A95D1F780E8580EA4
:100D2000611C711CA091A801B091A901A3019201BD
:100D30000E94500B2B013C014FE07594679457942F
:100D400047944A95D1F7411451046104710409F4A0
:100D5000C0C0A70196016BE055954795379527953B
:100D60006A95D1F7DF010E945B0B6B017C01D10119
:100D7000A50194010E945B0B660F771F881F991FC6
:100D8000C60ED71EE81EF91EF2E0F594E794D7943C
:100D9000C794FA95D1F789819A81AB81BC8124E00F
:100DA000B595A795979587952A95D1F7222733274B
:100DB000A901281B390B4A0B5B0BC801AA2797FD19
:100DC000A095BA2FDC0199278827C80ED91EEA1EE4
:100DD000FB1E7CE0F594E794D794C7947A95D1F7FD
:100DE0002C193D094E095F09A5E3BCE00E94500B98
:100DF000805B9C4397FD0BC0660F771F881F991F70
:100E0000A30192010E942E0B49015A010AC0A301BD
:100E100092010E942E0B49015A01880C991CAA1CB0
:100E2000BB1CC501B40113E096958795779567952E
:100E30001A95D1F7E091AE01F091AF019B01AC01A1
:100E40000E940A0B9B01AC010DE056954795379522
:100E500027950A95D1F7DF010E945B0B6B017C019E
:100E60008CE0F594E794D794C7948A95D1F7A501BF
:100E7000940192E056954795379527959A95D1F725
:100E8000A091AC01B091AD010E945B0B2DE0959556
:100E90008795779567952A95D1F7C60ED71EE81ED8
:100EA000F91E80919B0190919C01AA2797FDA09526
:100EB000BA2FC80ED91EEA1EFB1E34E0F594E79443
:100EC000D794C7943A95D1F7C80CD91CEA1CFB1CDF
:100ED00003C0C12CD12C7601C701B6010F900F9031
:100EE0000F900F90DF91CF911F910F91FF90EF9096
:100EF000DF90CF90BF90AF909F908F907F906F903A
:100F00005F904F903F902F9008952F923F924F9275
:100F10005F926F927F928F929F92AF92BF92CF9289
:100F2000DF92EF92FF920F931F93CF93DF93CDB792
:100F3000DEB728970FB6F894DEBF0FBECDBF8C0189
:100F400078876F830E949605F8016083718382839E
:100F5000938387EF0E94070569837A838B839C8341
:100F60006091B4017091B5018091B6019091B70183
:100F70000E94450C20E030E040E05FE30E94F50C69
:100F800020E030E04AE757E40E94720B6B017C01DD
:100F90000091B2011091B3012090A6013090A701F9
:100FA0002091A3013091A4013E832D836091AA0179
:100FB0007091AB01882777FD8095982F0E94450C92
:100FC000A70196010E94F50CA70196010E94F50C5D
:100FD00020E030E040E056E30E94F50C4B015C015C
:100FE0006091A1017091A201882777FD8095982FCB
:100FF0000E94450CA70196010E94F50C9B01AC01D3
:10100000C501B4010E94730B20E030E040E056E3DC
:101010000E94F50C20E030E040E058E30E94F50C1F
:1010200020E030E040E85FE30E94730B4B015C017D
:101030006091A8017091A90180E090E00E94430CAA
:101040009B01AC01C501B4010E94F50C4B015C0190
:1010500020E030E0A9010E94D70B811107C0EF8189
:10106000F8851082118212821382DAC0A7019601DC
:10107000C701B6010E94F50C2B013C01B80188277D
:1010800077FD8095982F0E94450C9B01AC01C30110
:10109000B2010E94F50C20E030E040E058E30E94ED
:1010A000F50C2B013C01B101882777FD8095982F25
:1010B0000E94450C9B01AC01C701B6010E94F50CD2
:1010C0009B01AC010E94730B9B01AC01C301B201F7
:1010D0000E94730B20E030E040E85EE30E94F50CD4
:1010E0006B017C0169817A818B819C8154E09595AB
:1010F0008795779567955A95D1F70E94450C9B0186
:10110000AC0160E070E080E899E40E94720B2B0172
:101110003C012D813E81B901882777FD8095982F6C
:101120000E94450C20E030E040E857E40E94F50CB6
:101130009B01AC01C701B6010E94730B20E030E0B7
:1011400040E859E30E94F50C9B01AC01C301B201D8
:101150000E94720B20E030E543EC55E40E94F50C50
:10116000A50194010E94DB0B6B017C016091AE0133
:101170007091AF01882777FD8095982F0E94450CCC
:10118000A70196010E94F50CA70196010E94F50C9B
:1011900020E030E040E050E30E94F50C4B015C01A0
:1011A0006091AC017091AD01882777FD8095982FF3
:1011B0000E94450C9B01AC01C701B6010E94F50CD1
:1011C00020E030E040E058E30E94F50C9B01AC01C8
:1011D000C501B4010E94730B4B015C0160919B013E
:1011E00070919C01882777FD8095982F0E94450C6F
:1011F0009B01AC01C501B4010E94730B20E030E0FB
:1012000040E85DE30E94F50C9B01AC01C701B6010B
:101210000E94730BEF81F8856083718382839383CF
:1012200028960FB6F894DEBF0FBECDBFDF91CF91E9
:101230001F910F91FF90EF90DF90CF90BF90AF90F4
:101240009F908F907F906F905F904F903F902F90E6
:10125000089520E836EE45EC57E4FC016081718189
:10126000828193810E94DB0B22E63BED42E45EE348
:101270000E94580D9B01AC0160E070E080E89FE3A4
:101280000E94720B20E03AE24DE257E40E94F50C16
:101290000895EF92FF920F931F93CF93DF937C01FA
:1012A000EB018A0165E584EF0E94CD042FEF82E116
:1012B00091E0215080409040E1F700C00000BE0165
:1012C000C7010E948507CE010E942909F8016083A9
:1012D00071838283938381E0DF91CF911F910F917E
:1012E000FF90EF9008950E941A0B60517109769556
:1012F00067956093700010927100E4E7F0E08081E0
:10130000846080830895E4E7F0E080818B7F8083B0
:10131000089584EA809374008091740087FFFCCF65
:10132000089584E9809374008091740084FDFCCF5B
:1013300008958093730084E8809374008091740012
:1013400087FFFCCF80917100887F883169F08091A0
:101350007100887F883241F090917100987F81E020
:10136000903419F080E0089581E008952091740090
:10137000662311F0206401C02F7B2093740020911C
:1013800074002068209374002091740027FFFCCF24
:1013900020917100287F283529F020917100287F45
:1013A000203531F420917300FC01208381E0089501
:1013B00080E00895CF93DF9300D01F92CDB7DEB7C2
:1013C0004B836A8389830E9489098981880F0E94DF
:1013D00099096A81862F0E9499094B81842F0E9466
:1013E00099098FE19EE40197F1F700C000000E9487
:1013F0009109EFEDFEE23197F1F700C000000F9088
:101400000F900F90DF91CF910895EF92FF920F937D
:101410001F93CF93DF9300D0CDB7DEB7F82E042F04
:10142000122F3A8369830E948909FF0C8F2D0E9435
:1014300099096981862F0E9499090E94890981E092
:101440008F0D0E949909E12E3A81F32E8E2D811B7A
:10145000801740F461E0C7010E94B6098FEFE81AD7
:10146000F80AF4CF0F900F90DF91CF911F910F9159
:10147000FF90EF900895CF93C82F8A3019F48DE034
:101480000E943B0A8C2F0E94E50A80E0CF910895CC
:10149000EF92FF920F931F93CF93DF93CDB7DEB7F9
:1014A0002C970FB6F894DEBF0FBECDBF80E895E253
:1014B0000E94D10A20EA36E841E050E060E072E1A3
:1014C0008AE790E00E94730980E091E09093BB016D
:1014D0008093BA018EE091E00E94EF0F87E70E94AF
:1014E0008205813009F04AC08FE191E00E94EF0F40
:1014F0008DE4E82E81E0F82E0DE811E0AE014F5F9B
:101500005F4FBE016B5F7F4FCE0109960E94490974
:10151000813011F58C818F938B818F938A818F938A
:1015200089818F9388858F938F818F938E818F93FD
:101530008D818F938C858F938B858F938A858F93E5
:1015400089858F93FF92EF920E94DD0F0FB6F8947A
:10155000DEBF0FBECDBF04C083E791E00E94EF0F56
:1015600080ED0E94D3041F928F931F930F930E94CC
:10157000DD0F0F900F900F900F90C0CF84E391E09C
:101580000E94EF0F80E090E02C960FB6F894DEBF3B
:101590000FBECDBFDF91CF911F910F91FF90EF90C4
:1015A00008959C0140E050E060E271EA87E090E03D
:1015B0000E942E0B215031093093900029B988E107
:1015C0008AB986E08093950008955D9BFECF8CB923
:1015D00008955F9BFECF8CB10895EF92FF920F9319
:1015E0001F93CF93DF938C01EC01E62EF12CCE01FB
:1015F000801B910B8E159F0524F489910E94E50AAA
:10160000F6CF5E9BFECFDF91CF911F910F91FF90A0
:10161000EF900895DB018F939F930E94500BBF9131
:10162000AF91A29F800D911DA39F900DB29F900D31
:1016300011240895AA1BBB1B51E107C0AA1FBB1FA1
:10164000A617B70710F0A61BB70B881F991F5A954E
:10165000A9F780959095BC01CD010895A1E21A2EBD
:10166000AA1BBB1BFD010DC0AA1FBB1FEE1FFF1F46
:10167000A217B307E407F50720F0A21BB30BE40B96
:10168000F50B661F771F881F991F1A9469F76095DD
:101690007095809590959B01AC01BD01CF01089597
:1016A0000E94630BA59F900DB49F900DA49F800D89
:1016B000911D11240895B7FF0C94500B0E94500BFC
:1016C000821B930B0895A29FB001B39FC001A39FFB
:1016D000700D811D1124911DB29F700D811D11246B
:1016E000911D08955058BB27AA270ED044C135D16B
:1016F00030F03AD120F031F49F3F11F41EF42AC1AA
:101700000EF4E095E7FB20C1E92F46D180F3BA172C
:10171000620773078407950718F071F49EF55EC1A0
:101720000EF4E0950B2EBA2FA02D0B01B9019001FC
:101730000C01CA01A0011124FF27591B99F0593F40
:1017400050F4503E68F11A16F040A22F232F342F88
:101750004427585FF3CF469537952795A795F040D6
:101760005395C9F77EF41F16BA0B620B730B840BEB
:10177000BAF09150A1F0FF0FBB1F661F771F881FA3
:10178000C2F70EC0BA0F621F731F841F48F48795FB
:1017900077956795B795F7959E3F08F0B3CF9395EA
:1017A000880F08F09927EE0F979587950895A8D090
:1017B00008F481E008950CD0DEC0D6D040F0CDD042
:1017C00030F021F45F3F19F0BFC0511108C1C2C011
:1017D000E3D098F39923C9F35523B1F3951B550B27
:1017E000BB27AA2762177307840738F09F5F5F4FF4
:1017F000220F331F441FAA1FA9F333D00E2E3AF035
:10180000E0E830D091505040E695001CCAF729D04E
:10181000FE2F27D0660F771F881FBB1F261737079D
:101820004807AB07B0E809F0BB0B802DBF01FF27CD
:1018300093585F4F2AF09E3F510568F085C0CFC096
:101840005F3FECF3983EDCF3869577956795B79507
:10185000F7959F5FC9F7880F911D9695879597F922
:101860000895E1E0660F771F881FBB1F621773079B
:101870008407BA0720F0621B730B840BBA0BEE1FB0
:1018800088F7E0950895E89409C097FB3EF4909599
:101890008095709561957F4F8F4F9F4F9923A9F049
:1018A000F92F96E9BB279395F695879577956795D8
:1018B000B795F111F8CFFAF4BB0F11F460FF1BC01C
:1018C0006F5F7F4F8F4F9F4F16C0882311F096E9AF
:1018D00011C0772321F09EE8872F762F05C066235D
:1018E00071F096E8862F70E060E02AF09A95660F16
:1018F000771F881FDAF7880F9695879597F90895CF
:10190000990F0008550FAA0BE0E8FEEF1616170610
:10191000E807F907C0F012161306E407F50798F078
:10192000621B730B840B950B39F40A2661F0232B91
:10193000242B252B21F408950A2609F4A140A6950D
:101940008FEF811D811D089597F99F6780E870E0F2
:1019500060E008959FEF80EC089500240A94161625
:10196000170618060906089500240A94121613068D
:10197000140605060895092E0394000C11F488231B
:1019800052F0BB0F40F4BF2B11F460FF04C06F5F37
:101990007F4F8F4F9F4F089557FD9058440F551F0D
:1019A00059F05F3F71F04795880F97FB991F61F0E1
:1019B0009F3F79F087950895121613061406551F58
:1019C000F2CF4695F1DF08C0161617061806991FC4
:1019D000F1CF86957105610508940895E894BB27B9
:1019E00066277727CB0197F908950BD0C4CFB5DFD1
:1019F00028F0BADF18F0952309F0A6CFABCF112459
:101A0000EECFCADFA0F3959FD1F3950F50E0551F9D
:101A1000629FF001729FBB27F00DB11D639FAA2743
:101A2000F00DB11DAA1F649F6627B00DA11D661F92
:101A3000829F2227B00DA11D621F739FB00DA11DB3
:101A4000621F839FA00D611D221F749F3327A00D6D
:101A5000611D231F849F600D211D822F762F6A2F09
:101A600011249F5750408AF0E1F088234AF0EE0F8E
:101A7000FF1FBB1F661F771F881F91505040A9F79B
:101A80009E3F510570F060CFAACF5F3FECF3983EC8
:101A9000DCF3869577956795B795F795E7959F5F02
:101AA000C1F7FE2B880F911D9695879597F908959C
:101AB000FA01EE0FFF1F30962105310599F16115EE
:101AC000710561F48038BFE39B0749F16894903851
:101AD000810561F08038BFEF9B0741F0992342F503
:101AE000FF3FE1053105210511F1E8940894E795E0
:101AF000D901AA2329F4AB2FBE2FF85FD0F310C071
:101B0000FF5F70F4A695E0F7F73950F019F0FF3A4F
:101B100038F49F779F930CD00F9007FC905808954E
:101B20003EF018CF60E070E080E89FE308954FE753
:101B30009F775F934F933F932F939ED02F913F9129
:101B40004F915F9152DF05C019F40EF0FDCE46CFE4
:101B500001CF2ADFC8F39638C0F707F80F92E89450
:101B60002BE33AEA48EB5FE74EDF0F920F920F92BA
:101B70004DB75EB70F92C0D0ECE8F0E016D04F91B1
:101B80005F91EF91FF91E595EE1FFF1F49F0FE5722
:101B9000E0684427EE0F441FFA95E1F74195550B95
:101BA00032D00F9007FE26C00895DF93CF931F9386
:101BB0000F93FF92EF92DF927B018C01689405C036
:101BC000DA2EEF011EDFFE01E894A59125913591F3
:101BD00045915591AEF3EF0197DDFE019701A80104
:101BE000DA9479F7DF90EF90FF900F911F91CF91EA
:101BF000DF9108959B01AC0160E070E080E89FE315
:101C0000DACDA2CEACC0D0DEE8F39923D9F3940F9D
:101C1000511DBBF39150504094F059F0882332F09D
:101C2000660F771F881F91505040C1F79E3F5105A6
:101C300044F7880F911D9695879597F908955F3F12
:101C4000ACF0983E9CF0BB27869577956795B79545
:101C500008F4B1609395C1F7BB0F58F711F460FF1A
:101C6000E8CF6F5F7F4F8F4F9F4FE3CFB8CE0EF01F
:101C700076C070CE689468CE97DEC8F39923D1F30E
:101C8000C6F3DF93CF931F930F93FF92C92FDD27E6
:101C900088232AF02197660F771F881FDAF720E044
:101CA00030E040E85FEB9FE3883920F0803E30F081
:101CB00021968F7718DDE4EBF0E003C014DDE1EE50
:101CC000F0E073DF8B01BE01EC01FB2E6F57710951
:101CD0007595771F880B990BD8DD28E132E741E332
:101CE0005FE38FDEAF2D9801AE01FF900F911F9142
:101CF000CF91DF9109DD3FCEFA01DC01AA0FBB1FB6
:101D00009B01AC01BF5728F4222733274427507882
:101D10001FC0B75188F4AB2F0024469537952795FF
:101D2000011CA395D2F3002069F0220F331F441F3A
:101D3000B395DAF30DD0D6CC61307105A0E88A07EF
:101D4000B94630F49B01AC01662777278827907845
:101D5000309621F0208331834283538308959F3F3F
:101D600031F0915020F4879577956795B795880F56
:101D7000911D9695879597F90895283008F027E0EA
:101D80003327DA01990F311D87FD916000966105B7
:101D9000710539F432602E5F3D9330E32A95E1F707
:101DA00008959F3F30F080387105610509F03C5F70
:101DB0003C5F3D93913008F08068911DDF93CF9395
:101DC0001F930F93FF92EF92192F987F9695E92F0B
:101DD00096959695E90FFF27E059FE4F99273327EF
:101DE000EE24FF24A701E70105900894079428F446
:101DF000360FE71EF81E491F511D660F771F881FFB
:101E0000991F0694A1F70590079428F4E70EF81E91
:101E1000491F561FC11D770F881F991F661F069403
:101E2000A1F70590079428F4F80E491F561FC71F05
:101E3000D11D880F991F661F771F0694A1F7059083
:101E4000079420F4490F561FC71FD81F990F661F0C
:101E5000771F881F0694A9F784911095177041F099
:101E6000D695C79557954795F794E7941A95C1F776
:101E7000E6E1F1E0689415901591359165919591A1
:101E800005907FE27395E118F10A430B560BC90BDD
:101E9000D009C0F7E10CF11E431F561FC91FD01D0A
:101EA0007EF4703311F48A95E6CFE894015030F057
:101EB000080F0AF40027021708F4202F2395022F99
:101EC0007A3328F079E37D932A95E9F710C07D9362
:101ED0002A9589F6069497956795379517951794DF
:101EE000E118F10A430B560BC90BD00998F0239562
:101EF0007E9173957A3308F070E37C932013B8F7E2
:101F00007E9170617D9330F0839571E37D9370E3F2
:101F10002A95E1F71124EF90FF900F911F91CF9137
:101F2000DF91992787FD90950895FC0105906150F8
:101F300070400110D8F7809590958E0F9F1F0895DF
:101F4000FC016150704001900110D8F78095909588
:101F50008E0F9F1F08950F931F93CF93DF93182F1A
:101F6000092FEB018B8181FD03C08FEF9FEF20C014
:101F700082FF10C04E815F812C813D814217530743
:101F80007CF4E881F9819F012F5F3F4F39832883DB
:101F9000108306C0E885F985812F0995892B29F7DB
:101FA0002E813F812F5F3F4F3F832E83812F902FC4
:101FB000DF91CF911F910F910895CF93DF93CDB70C
:101FC000DEB7FE01359661917191AF018091BA0142
:101FD0009091BB010E942901DF91CF9108950F9349
:101FE0001F93CF93DF93E091BA01F091BB0123815E
:101FF00021FF1BC0EC0100E010E089916091BA0163
:102000007091BB01DB011896ED91FC911997882323
:1020100031F00995892B89F30FEF1FEFEECF8AE09E
:102020000995892B11F4C80102C08FEF9FEFDF9152
:10203000CF911F910F910895FA01AA27283051F1ED
:10204000203181F1E8946F936E7F6E5F7F4F8F4FE9
:102050009F4FAF4FB1E03ED0B4E03CD0670F781F48
:10206000891F9A1FA11D680F791F8A1F911DA11D2D
:102070006A0F711D811D911DA11D20D009F4689466
:102080003F912AE0269F11243019305D3193DEF60E
:10209000CF010895462F4770405D4193B3E00FD0C4
:1020A000C9F7F6CF462F4F70405D4A3318F0495DAF
:1020B00031FD4052419302D0A9F7EACFB4E0A69592
:1020C0009795879577956795BA95C9F700976105B4
:1020D000710508959B01AC010A2E0694579547950A
:1020E00037952795BA95C9F7620F731F841F951FFF
:0820F000A01D0895F894FFCF34
:1020F80000000002000000003B0A000000000A4245
:102108004D50323830204932432044656D6F0042CB
:102118004D5032383020636F6E6E656374696F6E30
:10212800204F4B00424D5032383020636F6E6E6541
:102138006374696F6E206E6F74204F4B0074656D09
:1021480070203D20256C640A207072657373203DF1
:1021580020252E34660A20616C74203D20252E34FB
:10216800660A00424D50323830206D6561737572D1
:10217800656D656E74206E6F74204F4B00636869DF
:0A21880064203D20252E32580A0085
:00000001FF
