:100000000C94C7000C94E6000C94E6000C94E600F7
:100010000C94E6000C94E6000C94E6000C94E600C8
:100020000C94E6000C94E6000C94E6000C94E600B8
:100030000C94E6000C94E6000C94E6000C94E600A8
:100040000C94E6000C94E6000C94E6000C94E60098
:100050000C94E6000C94E6000C94E6000C94E60088
:100060000C94E6000C94E6000C94E6000C94E60078
:100070000C94E6000C94E6000C94E6000C94E60068
:100080000C94E6000C94E6000C94E6006E616E00A1
:10009000696E660000407A10F35A00A0724E18098B
:1000A0000010A5D4E80000E87648170000E40B54DF
:1000B000020000CA9A3B000000E1F50500008096AE
:1000C0009800000040420F000000A08601000000E0
:1000D000102700000000E80300000000640000009A
:1000E00000000A00000000000100000000002C7663
:1000F000D888DC674F0823DFC1DFAE59E1B1B7967E
:10010000E5E3E453C63AE651997696E8E6C28426DA
:10011000EB898C9B62ED407C6FFCEFBC9C9F40F2B6
:10012000BAA56FA5F490055A2AF75C936B6CF96732
:100130006DC11BFCE0E40D47FEF520E6B500D0EDF7
:10014000902E0300943577050080841E080000205F
:100150004E0A000000C80C333333330F986E1283FD
:100160001141EF8D2114893BE65516CFFEE6DB18D1
:10017000D1844B381BF77C1D901DA4BBE424203296
:1001800084725E228100C9F124ECA1E53D2711248F
:100190001FBECFEFD0E1DEBFCDBF12E0A0E0B1E0E7
:1001A000E4E7F1E100E00BBF02C007900D92A83632
:1001B000B107D9F722E0A8E6B2E001C01D92AE3641
:1001C000B207E1F70E9447060C94B8080C940000AF
:1001D0002F923F924F925F926F927F928F929F9257
:1001E000AF92BF92CF92DF92EF92FF920F931F9345
:1001F000CF93DF93CDB7DEB763970FB6F894DEBF2A
:100200000FBECDBF7C011B016A01FC011782168263
:10021000838181FF66C3BE016F5F7F4F4B01F70192
:100220009381F10193FD859193FF81911F018823B3
:1002300009F453C3853239F493FD859193FF81917D
:100240001F01853239F4B70190E00E94E907560199
:100250006501E5CF10E0512C20E02032A0F48B3274
:1002600069F030F4803259F0833269F420612CC097
:100270008D3239F0803339F4216026C02260246049
:1002800023C0286021C027FD27C030ED380F3A3049
:1002900078F426FF06C0FAE01F9F300D1124132FBB
:1002A00013C06AE0569E300D1124532E20620CC0FC
:1002B0008E3221F426FD11C3206406C08C3611F461
:1002C000206802C0883641F4F10193FD859193FFC7
:1002D00081911F018111C1CF9BEB980F933018F4CE
:1002E0002061805E06C09BE9980F933008F0AAC198
:1002F0002F7E26FF16E02F73722E853621F4F22F03
:10030000F0647F2E08C0863621F4622F6068762E56
:1003100002C01111115077FE07C01C3348F4442469
:100320004394410E27E00BC0183030F4212F06C053
:1003300027E04CE3442E03C027E017E0412C560190
:1003400074E0A70EB11CF6016081718182819381F6
:10035000042DA4010E94FB066C01098100FF02C06C
:1003600003FF06C071FC07C072FC08C0612C08C006
:100370003DE2632E05C02BE2622E02C090E2692EA0
:10038000802F8C7099F1662011F084E001C083E029
:10039000851510F0512C0BC0581A73FC08C0B7011A
:1003A00080E290E00E94E9075A94C9F7F3CF6620F3
:1003B00029F0B701862D90E00E94E90703FD03C0F4
:1003C00000E910E002C00CE810E0F72DF0717F2E7C
:1003D000F8018491882309F476C271108052B70124
:1003E00090E00E94E9070F5F1F4FF2CF77FE0FC02A
:1003F0004C0C04FF04C08A81813309F44A9414141C
:1004000074F5F8E0F41578F588E0482E2CC076FCF9
:100410002AC0812F90E08C159D059CF06CEFC616CC
:100420006FEFD60674F0772D7068772E0AC0E2E081
:10043000F0E0EC0FFD1FE10FF11D8081803319F416
:1004400011501111F4CF77FE0EC044244394410E95
:10045000812F90E0C816D9062CF41C1904C044243E
:10046000439401C010E077FE07C01C141D043CF447
:1004700096012F5F3F4F05C025E030E002C021E02C
:1004800030E0662011F02F5F3F4F112331F0412FF4
:1004900050E04F5F5F4F240F351F452D50E024176C
:1004A000350714F4521A01C0512C872D897049F474
:1004B000552039F0B70180E290E00E94E9075A9494
:1004C000F7CF662029F0B701862D90E00E94E9075A
:1004D00073FC09C0552039F0B70180E390E00E9419
:1004E000E9075A94F7CF77FE5FC09C2D8D2DD7FE7C
:1004F00002C090E080E0692E782E40E050E0C60116
:10050000841991099D878C87960126193709280D32
:10051000391D812F90E0EE27FF27E81BF90BFF879D
:10052000EE87FFEF6F167F0669F4B7018EE290E069
:100530002B8B3A8B488B598B0E94E9075989488944
:100540003A892B89C614D70454F06C857D856615CD
:1005500077052CF4F901E40FF51F818101C080E3D8
:1005600071E0671A71084F5F5F4FEE85FF856E1669
:100570007F066CF0B70190E02B8B3A8B488B598B40
:100580000E94E9072B893A8948895989CACF6C1496
:100590007D0439F49A81963318F4953311F404FFED
:1005A00081E3B70190E04BC08A81813309F00F7E6F
:1005B000B70190E00E94E907111105C074FE18C050
:1005C00085E490E017C0B7018EE290E00E94E90751
:1005D00082E066246394680EF401E80FF11D8081C7
:1005E000B70190E00E94E907115041F3862DF1CF49
:1005F00085E690E0B7010E94E907D7FC05C0C11469
:10060000D10439F404FF05C0D194C194D1088DE21E
:1006100001C08BE2B70190E00E94E90780E36AE045
:10062000C616D1042CF08F5FFAE0CF1AD108F7CFAD
:10063000B70190E00E94E907B701C601C0960E9489
:10064000E90741C1833631F0833779F0833509F00A
:1006500058C021C0560172E0A70EB11CF60180817E
:10066000898301E010E0640114C05601F2E0AF0E8E
:10067000B11CF601C080D18026FF03C0612F70E05D
:1006800002C06FEF7FEFC6012B8B0E94DE078C014B
:100690002B892F7715C05601F2E0AF0EB11CF60181
:1006A000C080D18026FF03C0612F70E002C06FEFD1
:1006B0007FEFC6012B8B0E94D3078C012B8920680A
:1006C000722E23FD1AC0852D90E008171907A8F493
:1006D000B70180E290E00E94E9075A94F4CFF60156
:1006E00077FC859177FE81916F01B70190E00E94C0
:1006F000E90751105A94015011090115110579F7B4
:10070000E2C0843611F0893651F5560127FF09C041
:10071000F4E0AF0EB11CF60160817181828193819A
:100720000AC0F2E0AF0EB11CF6016081718188272A
:1007300077FD8095982F022F0F7697FF08C0909530
:100740008095709561957F4F8F4F9F4F00682AE08D
:1007500030E0A4010E945A08C82EC8183EC0022FDB
:10076000853721F40F7E2AE030E01DC0097F8F36E7
:1007700091F018F4883559F0B0C0803719F08837F7
:1007800011F0ABC0006104FF09C0046007C024FF82
:1007900008C0066006C028E030E005C020E130E077
:1007A00002C020E132E0560107FF09C0F4E0AF0EBD
:1007B000B11CF601608171818281938108C0F2E0F1
:1007C000AF0EB11CF6016081718180E090E0A40160
:1007D0000E945A08C82EC8180F7706FF0BC0202F9A
:1007E0002E7FC11650F404FF0AC002FD08C0202F5E
:1007F0002E7E05C0DC2C202F03C0DC2C01C0D12EA6
:1008000024FF0DC0FE01EC0DF11D8081803311F439
:10081000297E09C022FF06C0D394D39404C0822F3E
:10082000867809F0D39423FD13C020FF06C01C2D49
:10083000D51418F4150D1D19D52CD51468F4B7016D
:1008400080E290E02B8B0E94E907D3942B89F5CFAF
:10085000D51410F45D1801C0512C24FF12C0B7014B
:1008600080E390E02B8B0E94E9072B8922FF17C0C1
:1008700021FF03C088E590E002C088E790E0B7015F
:100880000CC0822F867859F021FD02C080E201C0A1
:100890008BE227FD8DE2B70190E00E94E907C116C7
:1008A00038F4B70180E390E00E94E9071150F7CFD8
:1008B000CA94F401EC0DF11D8081B70190E00E9413
:1008C000E907C110F5CF552009F4C2CCB70180E289
:1008D00090E00E94E9075A94F6CFF701868197814C
:1008E00002C08FEF9FEF63960FB6F894DEBF0FBE86
:1008F000CDBFDF91CF911F910F91FF90EF90DF90CF
:10090000CF90BF90AF909F908F907F906F905F90AF
:100910004F903F902F900895CF93DF9300D000D059
:10092000CDB7DEB780644C835B836A8379830E9492
:1009300093057981872F0E9493056A81862F0E94F3
:1009400093055B81852F0E9493054C81842F0E9423
:10095000930585E90F900F900F900F90DF91CF9145
:100960000C949305CF93CBE08FEF0E949305C15079
:1009700011F08F3FC9F3CF910895CF93DF930E9479
:100980008A058FE19EE40197F1F700C00000CAE0FC
:100990008FEF0E949305C150D9F7A89840E050E02E
:1009A000BA0180E00E948C040E94B204813011F0F0
:1009B00091E01CC0C9E5D4E140E050E0BA0181E01B
:1009C0000E948C040E94B2042197209789F3811120
:1009D000F3CF40E850E060E070E080E10E948C04DA
:1009E0000E94B20491E0811101C090E0892FDF9153
:1009F000CF9108950F931F93CF93DF93182F092F53
:100A000081E10E948C040E94B20481111AC08FEF10
:100A10000E9493058E3FD9F7C12FD02F00E010E040
:100A20008FEF0E94930589930F5F1F4F00381105C8
:100A3000B9F78FEF0E9493058FEF0E94930580E036
:100A400001C081E0DF91CF911F910F910895CF9266
:100A5000DF92EF92FF920F931F93CF93DF938C015E
:100A60006A017B0140E052E060E070E080E10E94BA
:100A70008C040E94B204882311F091E041C0B701B8
:100A8000A60188E10E948C040E94B2048111F5CF76
:100A90008FEF0E9493058EEF0E949305E801E12CF1
:100AA000F12C89910E9493058FEFE81AF80A80E8EB
:100AB000E816F104B1F7C0E8D1E08FEF0E9493058A
:100AC00021972097D1F78FEF0E9493058FEF0E9417
:100AD00093058FEF0E94930582FFCFCF8FEF0E9487
:100AE00093058823D9F340E850E060E070E080E1AE
:100AF0000E948C040E94B20491E0811101C090E038
:100B0000892FDF91CF911F910F91FF90EF90DF9090
:100B1000CF90089584B3876084BBA39885B38B601E
:100B200085BBAA980895482F28E030E090E880E03F
:100B3000592F542311F0A99A01C0A9980000AA9A2C
:100B40009B99892B000000000000000000000000BD
:100B5000000000000000000000000000AA98969528
:100B6000215031092115310519F70895EF92FF92AF
:100B70000F931F93CF93DF938C017B01EA012197A1
:100B8000D7FD0BC0F801EC0FFD1F80810E9493057B
:100B9000F701EC0FFD1F8083F2CFDF91CF911F9102
:100BA0000F91FF90EF90089588E18AB908955F9BB7
:100BB000FECF8CB108958CB95D9BFECF08951F9335
:100BC000CF93DF93EC0110E0FE01E10FF11D808176
:100BD000882321F00E94DB051F5FF6CFDF91CF91C4
:100BE0001F9108950F931F93CF93DF93EC01188209
:100BF00010E00E94D705082F143118F5111102C01A
:100C0000883071F0802F0E94DB05083039F0212FE9
:100C100030E00D3081F4C20FD31F18C011111150F4
:100C2000FE01E10FF11D108280E20E94DB0588E0E9
:100C30000E94DB05DECFFE01E20FF31F00831F5F82
:100C4000D8CF8D30B1F6C10FD11D21971882DF9119
:100C5000CF911F910F910895CF93DF93EC01FE0187
:100C600084912196882319F00E94DB05F8CFDF914B
:100C7000CF910895CF93C82F8A3019F48DE00E9448
:100C80003A068C2F0E94B40680E0CF91089580E848
:100C900095E20E94A00680E091E090936B02809321
:100CA0006A028EE092E00E942D080E94BD0481112C
:100CB00016C081E192E00E942D0840E050E0BA01A8
:100CC0008EE891E00E94FA0481110EC088E292E061
:100CD0000E942D08CEE8D1E004E412E00AC08DE1C4
:100CE00092E00E942D08FFCF83E392E00E942D083E
:100CF000FFCF89911F928F931F930F930E941B0820
:100D00000F900F900F900F9082E0CE30D80789F7A8
:100D100087E492E00E942D0840E052E060E070E03D
:100D20008EE091E00E942705811105C089E492E0E0
:100D30000E942D08FFCF85E592E00E942D08FACF92
:100D40009C0140E050E060E271EA87E090E00E94A0
:100D5000D906215031093093900029B988E18AB928
:100D600086E08093950008955D9BFECF8CB9089531
:100D70005F9BFECF8CB10895EF92FF920F931F936C
:100D8000CF93DF938C01EC01E62EF12CCE01801B7A
:100D9000910B8E159F0524F489910E94B406F6CF1D
:100DA0005E9BFECFDF91CF911F910F91FF90EF904F
:100DB0000895A1E21A2EAA1BBB1BFD010DC0AA1F9C
:100DC000BB1FEE1FFF1FA217B307E407F50720F0B4
:100DD000A21BB30BE40BF50B661F771F881F991F2F
:100DE0001A9469F760957095809590959B01AC0178
:100DF000BD01CF010895283008F027E03327DA013C
:100E0000990F311D87FD916000966105710539F4D8
:100E100032602E5F3D9330E32A95E1F708959F3FBE
:100E200030F080387105610509F03C5F3C5F3D930F
:100E3000913008F08068911DDF93CF931F930F933B
:100E4000FF92EF92192F987F9695E92F9695969598
:100E5000E90FFF27E251FF4F99273327EE24FF24A4
:100E6000A701E70105900894079428F4360FE71EC0
:100E7000F81E491F511D660F771F881F991F069482
:100E8000A1F70590079428F4E70EF81E491F561F96
:100E9000C11D770F881F991F661F0694A1F7059043
:100EA000079428F4F80E491F561FC71FD11D880F3D
:100EB000991F661F771F0694A1F70590079420F4E9
:100EC000490F561FC71FD81F990F661F771F881F0E
:100ED0000694A9F784911095177041F0D695C7959F
:100EE00057954795F794E7941A95C1F7E4E9F0E030
:100EF00068941590159135916591959105907FE2D3
:100F00007395E118F10A430B560BC90BD009C0F7D2
:100F1000E10CF11E431F561FC91FD01D7EF4703314
:100F200011F48A95E6CFE894015030F0080F0AF4E6
:100F30000027021708F4202F2395022F7A3328F078
:100F400079E37D932A95E9F710C07D932A9589F678
:100F5000069497956795379517951794E118F10AB8
:100F6000430B560BC90BD00998F023957E917395CE
:100F70007A3308F070E37C932013B8F77E917061A8
:100F80007D9330F0839571E37D9370E32A95E1F7CB
:100F90001124EF90FF900F911F91CF91DF9199272E
:100FA00087FD90950895FC010590615070400110F7
:100FB000D8F7809590958E0F9F1F0895FC01615082
:100FC000704001900110D8F7809590958E0F9F1F6B
:100FD00008950F931F93CF93DF93182F092FEB01E1
:100FE0008B8181FD03C08FEF9FEF20C082FF10C077
:100FF0004E815F812C813D81421753077CF4E8814B
:10100000F9819F012F5F3F4F39832883108306C0EA
:10101000E885F985812F0995892B29F72E813F8154
:101020002F5F3F4F3F832E83812F902FDF91CF91F2
:101030001F910F910895CF93DF93CDB7DEB7FE01D7
:10104000359661917191AF0180916A0290916B0226
:101050000E94E800DF91CF9108950F931F93CF93E3
:10106000DF93E0916A02F0916B02238121FF1BC0A4
:10107000EC0100E010E0899160916A0270916B02CE
:10108000DB011896ED91FC911997882331F00995B1
:10109000892B89F30FEF1FEFEECF8AE00995892B9B
:1010A00011F4C80102C08FEF9FEFDF91CF911F9124
:1010B0000F910895FA01AA27283051F1203181F1CA
:1010C000E8946F936E7F6E5F7F4F8F4F9F4FAF4F50
:1010D000B1E03ED0B4E03CD0670F781F891F9A1F63
:1010E000A11D680F791F8A1F911DA11D6A0F711D17
:1010F000811D911DA11D20D009F468943F912AE023
:10110000269F11243019305D3193DEF6CF0108950A
:10111000462F4770405D4193B3E00FD0C9F7F6CF3B
:10112000462F4F70405D4A3318F0495D31FD405203
:10113000419302D0A9F7EACFB4E0A6959795879599
:1011400077956795BA95C9F7009761057105089578
:101150009B01AC010A2E0694579547953795279524
:10116000BA95C9F7620F731F841F951FA01D0895BC
:04117000F894FFCF21
:1011740000000002000000003A0600000000577260
:10118400697465207465737420626C6F636B206886
:101194006572652E0D0A00000000000000000000CA
:1011A400000000000000000000000000000000003B
:1011B400000000000000000000000000000000002B
:1011C400000000000000000000000000000000001B
:1011D400000000000000000000000000000000000B
:1011E40000000000000000000000000000000000FB
:1011F4000000000000000000000000000000566F26
:101204006964206275666665720000000000000073
:1012140000000000000000000000000000000000CA
:1012240000000000000000000000000000000000BA
:1012340000000000000000000000000000000000AA
:10124400000000000000000000000000000000009A
:10125400000000000000000000000000000000008A
:10126400000000000000000000000000000000007A
:1012740000000000000000000000000000005344D3
:101284000073645F6F6B2E20496E697400496E6948
:1012940074206572726F72007265616420626C6F93
:1012A400636B007265616420626C6F636B206572AE
:1012B400726F72002564000D0057726974652062B4
:1012C4006C6F636B00577269746520626C6F636B3B
:0812D400206572726F720000C8
:00000001FF
